{
  "contractName": "CliqStaking",
  "abi": [
    {
      "constant": true,
      "inputs": [],
      "name": "name",
      "outputs": [
        {
          "name": "",
          "type": "string"
        }
      ],
      "payable": false,
      "stateMutability": "view",
      "type": "function"
    },
    {
      "constant": false,
      "inputs": [
        {
          "name": "account",
          "type": "address"
        }
      ],
      "name": "addWhitelisted",
      "outputs": [],
      "payable": false,
      "stateMutability": "nonpayable",
      "type": "function"
    },
    {
      "constant": true,
      "inputs": [],
      "name": "totalStakedFunds",
      "outputs": [
        {
          "name": "",
          "type": "uint256"
        }
      ],
      "payable": false,
      "stateMutability": "view",
      "type": "function"
    },
    {
      "constant": true,
      "inputs": [],
      "name": "CLIQ",
      "outputs": [
        {
          "name": "",
          "type": "address"
        }
      ],
      "payable": false,
      "stateMutability": "view",
      "type": "function"
    },
    {
      "constant": false,
      "inputs": [
        {
          "name": "account",
          "type": "address"
        }
      ],
      "name": "removeWhitelisted",
      "outputs": [],
      "payable": false,
      "stateMutability": "nonpayable",
      "type": "function"
    },
    {
      "constant": true,
      "inputs": [
        {
          "name": "account",
          "type": "address"
        }
      ],
      "name": "isWhitelisted",
      "outputs": [
        {
          "name": "",
          "type": "bool"
        }
      ],
      "payable": false,
      "stateMutability": "view",
      "type": "function"
    },
    {
      "constant": false,
      "inputs": [],
      "name": "renounceWhitelistAdmin",
      "outputs": [],
      "payable": false,
      "stateMutability": "nonpayable",
      "type": "function"
    },
    {
      "constant": true,
      "inputs": [],
      "name": "tokenContract",
      "outputs": [
        {
          "name": "",
          "type": "address"
        }
      ],
      "payable": false,
      "stateMutability": "view",
      "type": "function"
    },
    {
      "constant": true,
      "inputs": [
        {
          "name": "",
          "type": "address"
        },
        {
          "name": "",
          "type": "uint256"
        }
      ],
      "name": "stakes",
      "outputs": [
        {
          "name": "_amount",
          "type": "uint256"
        },
        {
          "name": "_timestamp",
          "type": "uint256"
        },
        {
          "name": "_packageName",
          "type": "bytes32"
        },
        {
          "name": "_withdrawnTimestamp",
          "type": "uint256"
        },
        {
          "name": "_stakeRewardType",
          "type": "uint16"
        }
      ],
      "payable": false,
      "stateMutability": "view",
      "type": "function"
    },
    {
      "constant": true,
      "inputs": [
        {
          "name": "",
          "type": "bytes32"
        }
      ],
      "name": "packages",
      "outputs": [
        {
          "name": "_packageName",
          "type": "bytes32"
        },
        {
          "name": "_daysLocked",
          "type": "uint256"
        },
        {
          "name": "_packageInterest",
          "type": "uint256"
        },
        {
          "name": "_packageCliqReward",
          "type": "uint256"
        }
      ],
      "payable": false,
      "stateMutability": "view",
      "type": "function"
    },
    {
      "constant": false,
      "inputs": [
        {
          "name": "account",
          "type": "address"
        }
      ],
      "name": "addWhitelistAdmin",
      "outputs": [],
      "payable": false,
      "stateMutability": "nonpayable",
      "type": "function"
    },
    {
      "constant": true,
      "inputs": [
        {
          "name": "",
          "type": "uint256"
        }
      ],
      "name": "packageNames",
      "outputs": [
        {
          "name": "",
          "type": "bytes32"
        }
      ],
      "payable": false,
      "stateMutability": "view",
      "type": "function"
    },
    {
      "constant": true,
      "inputs": [
        {
          "name": "",
          "type": "address"
        }
      ],
      "name": "totalStakedBalance",
      "outputs": [
        {
          "name": "",
          "type": "uint256"
        }
      ],
      "payable": false,
      "stateMutability": "view",
      "type": "function"
    },
    {
      "constant": true,
      "inputs": [
        {
          "name": "account",
          "type": "address"
        }
      ],
      "name": "isWhitelistAdmin",
      "outputs": [
        {
          "name": "",
          "type": "bool"
        }
      ],
      "payable": false,
      "stateMutability": "view",
      "type": "function"
    },
    {
      "constant": true,
      "inputs": [
        {
          "name": "",
          "type": "address"
        }
      ],
      "name": "hasStaked",
      "outputs": [
        {
          "name": "",
          "type": "bool"
        }
      ],
      "payable": false,
      "stateMutability": "view",
      "type": "function"
    },
    {
      "constant": false,
      "inputs": [],
      "name": "renounceWhitelisted",
      "outputs": [],
      "payable": false,
      "stateMutability": "nonpayable",
      "type": "function"
    },
    {
      "inputs": [
        {
          "name": "_stakedToken",
          "type": "address"
        },
        {
          "name": "_CLIQ",
          "type": "address"
        }
      ],
      "payable": false,
      "stateMutability": "nonpayable",
      "type": "constructor"
    },
    {
      "anonymous": false,
      "inputs": [
        {
          "indexed": true,
          "name": "account",
          "type": "address"
        }
      ],
      "name": "WhitelistedAdded",
      "type": "event"
    },
    {
      "anonymous": false,
      "inputs": [
        {
          "indexed": true,
          "name": "account",
          "type": "address"
        }
      ],
      "name": "WhitelistedRemoved",
      "type": "event"
    },
    {
      "anonymous": false,
      "inputs": [
        {
          "indexed": true,
          "name": "account",
          "type": "address"
        }
      ],
      "name": "WhitelistAdminAdded",
      "type": "event"
    },
    {
      "anonymous": false,
      "inputs": [
        {
          "indexed": true,
          "name": "account",
          "type": "address"
        }
      ],
      "name": "WhitelistAdminRemoved",
      "type": "event"
    },
    {
      "constant": true,
      "inputs": [
        {
          "name": "_address",
          "type": "address"
        },
        {
          "name": "stakeIndex",
          "type": "uint256"
        }
      ],
      "name": "getStakes",
      "outputs": [
        {
          "name": "amount",
          "type": "uint256"
        },
        {
          "name": "timestamp",
          "type": "uint256"
        },
        {
          "name": "packageName",
          "type": "bytes32"
        },
        {
          "name": "withdrawnTimestamp",
          "type": "uint256"
        }
      ],
      "payable": false,
      "stateMutability": "view",
      "type": "function"
    },
    {
      "constant": true,
      "inputs": [
        {
          "name": "_address",
          "type": "address"
        }
      ],
      "name": "stakesLength",
      "outputs": [
        {
          "name": "",
          "type": "uint256"
        }
      ],
      "payable": false,
      "stateMutability": "view",
      "type": "function"
    },
    {
      "constant": true,
      "inputs": [],
      "name": "packageLength",
      "outputs": [
        {
          "name": "",
          "type": "uint256"
        }
      ],
      "payable": false,
      "stateMutability": "view",
      "type": "function"
    },
    {
      "constant": false,
      "inputs": [
        {
          "name": "_amount",
          "type": "uint256"
        },
        {
          "name": "_packageName",
          "type": "bytes32"
        },
        {
          "name": "_stakeRewardType",
          "type": "uint16"
        }
      ],
      "name": "stakeTokens",
      "outputs": [],
      "payable": false,
      "stateMutability": "nonpayable",
      "type": "function"
    },
    {
      "constant": true,
      "inputs": [
        {
          "name": "_address",
          "type": "address"
        },
        {
          "name": "stakeIndex",
          "type": "uint256"
        }
      ],
      "name": "checkStakeReward",
      "outputs": [
        {
          "name": "",
          "type": "uint256"
        }
      ],
      "payable": false,
      "stateMutability": "view",
      "type": "function"
    },
    {
      "constant": true,
      "inputs": [
        {
          "name": "_address",
          "type": "address"
        },
        {
          "name": "stakeIndex",
          "type": "uint256"
        }
      ],
      "name": "checkStakeCliqReward",
      "outputs": [
        {
          "name": "",
          "type": "uint256"
        }
      ],
      "payable": false,
      "stateMutability": "view",
      "type": "function"
    },
    {
      "constant": false,
      "inputs": [
        {
          "name": "stakeIndex",
          "type": "uint256"
        }
      ],
      "name": "unstake",
      "outputs": [],
      "payable": false,
      "stateMutability": "nonpayable",
      "type": "function"
    },
    {
      "constant": false,
      "inputs": [
        {
          "name": "stakeIndex",
          "type": "uint256"
        }
      ],
      "name": "forceWithdraw",
      "outputs": [],
      "payable": false,
      "stateMutability": "nonpayable",
      "type": "function"
    },
    {
      "constant": false,
      "inputs": [
        {
          "name": "_parkedAmount",
          "type": "uint256"
        },
        {
          "name": "tokenAddr",
          "type": "address"
        }
      ],
      "name": "parkFunds",
      "outputs": [
        {
          "name": "",
          "type": "bool"
        }
      ],
      "payable": false,
      "stateMutability": "nonpayable",
      "type": "function"
    },
    {
      "constant": false,
      "inputs": [
        {
          "name": "_parkedAmount",
          "type": "uint256"
        }
      ],
      "name": "parkETH",
      "outputs": [],
      "payable": false,
      "stateMutability": "nonpayable",
      "type": "function"
    },
    {
      "constant": false,
      "inputs": [
        {
          "name": "_amount",
          "type": "uint256"
        }
      ],
      "name": "addStakedTokenReward",
      "outputs": [
        {
          "name": "",
          "type": "bool"
        }
      ],
      "payable": false,
      "stateMutability": "nonpayable",
      "type": "function"
    },
    {
      "constant": false,
      "inputs": [
        {
          "name": "_amount",
          "type": "uint256"
        }
      ],
      "name": "removeStakedTokenReward",
      "outputs": [
        {
          "name": "",
          "type": "bool"
        }
      ],
      "payable": false,
      "stateMutability": "nonpayable",
      "type": "function"
    }
  ],
  "bytecode": "0x60806040526040805190810160405280601581526020017f436c6971205374616b696e6720436f6e7472616374000000000000000000000081525060029080519060200190620000519291906200059e565b5060126004556000600a556000600e55620f4240600f553480156200007557600080fd5b50604051604080620048f3833981018060405260408110156200009757600080fd5b810190808051906020019092919080519060200190929190505050620000e4620000cf62000275640100000000026401000000009004565b6200027d640100000000026401000000009004565b33600660006101000a81548173ffffffffffffffffffffffffffffffffffffffff021916908373ffffffffffffffffffffffffffffffffffffffff16021790555081600760006101000a81548173ffffffffffffffffffffffffffffffffffffffff021916908373ffffffffffffffffffffffffffffffffffffffff16021790555080600860006101000a81548173ffffffffffffffffffffffffffffffffffffffff021916908373ffffffffffffffffffffffffffffffffffffffff160217905550620001e97f53696c766572205061636b616765000000000000000000000000000000000000601e600f620f4240620002e7640100000000026401000000009004565b6200022b7f476f6c64205061636b6167650000000000000000000000000000000000000000603c60126216e360620002e7640100000000026401000000009004565b6200026d7f506c6174696e756d205061636b61676500000000000000000000000000000000605a6018621e8480620002e7640100000000026401000000009004565b505062000679565b600033905090565b620002a18160006200038b6401000000000262003e47179091906401000000009004565b8073ffffffffffffffffffffffffffffffffffffffff167f22380c05984257a1cb900161c713dd71d39e74820f1aea43bd3f1bdd2096129960405160405180910390a250565b620002f162000625565b8481600001818152505083816020018181525050828160400181815250508181606001818152505080600560008781526020019081526020016000206000820151816000015560208201518160010155604082015181600201556060820151816003015590505060038590806001815401808255809150509060018203906000526020600020016000909192909190915055505050505050565b620003a682826200047a640100000000026401000000009004565b1515156200041c576040517f08c379a000000000000000000000000000000000000000000000000000000000815260040180806020018281038252601f8152602001807f526f6c65733a206163636f756e7420616c72656164792068617320726f6c650081525060200191505060405180910390fd5b60018260000160008373ffffffffffffffffffffffffffffffffffffffff1673ffffffffffffffffffffffffffffffffffffffff16815260200190815260200160002060006101000a81548160ff0219169083151502179055505050565b60008073ffffffffffffffffffffffffffffffffffffffff168273ffffffffffffffffffffffffffffffffffffffff161415151562000547576040517f08c379a00000000000000000000000000000000000000000000000000000000081526004018080602001828103825260228152602001807f526f6c65733a206163636f756e7420697320746865207a65726f20616464726581526020017f737300000000000000000000000000000000000000000000000000000000000081525060400191505060405180910390fd5b8260000160008373ffffffffffffffffffffffffffffffffffffffff1673ffffffffffffffffffffffffffffffffffffffff16815260200190815260200160002060009054906101000a900460ff16905092915050565b828054600181600116156101000203166002900490600052602060002090601f016020900481019282601f10620005e157805160ff191683800117855562000612565b8280016001018555821562000612579182015b8281111562000611578251825591602001919060010190620005f4565b5b50905062000621919062000651565b5090565b608060405190810160405280600080191681526020016000815260200160008152602001600081525090565b6200067691905b808211156200067257600081600090555060010162000658565b5090565b90565b61426a80620006896000396000f3fe60806040526004361061016a576000357c0100000000000000000000000000000000000000000000000000000000900463ffffffff16806306fdde031461016f5780630fcc56f7146101ff57806310154bad1461023a57806318ec2d5c1461028b5780631e1cb732146102b65780631faee8681461030d578063291d9549146103385780632e17de78146103895780633af32abf146103c457806349fc9df71461042d5780634c5a628c146104925780634cb8a68b146104a95780634d85bd9f1461052d57806355a373d614610580578063584b62a1146105d75780635925e37e1461066a57806371102819146106d95780637156145c1461073d5780637362d9c81461077857806377e62a30146107c95780637c329830146108185780637e0391531461087d578063864792b4146108d0578063bb5f747b1461093f578063c93c8f34146109a8578063cb2b0d6114610a11578063d6cd947314610a64578063df465e1514610a7b575b600080fd5b34801561017b57600080fd5b50610184610aee565b6040518080602001828103825283818151815260200191508051906020019080838360005b838110156101c45780820151818401526020810190506101a9565b50505050905090810190601f1680156101f15780820380516001836020036101000a031916815260200191505b509250505060405180910390f35b34801561020b57600080fd5b506102386004803603602081101561022257600080fd5b8101908080359060200190929190505050610b8c565b005b34801561024657600080fd5b506102896004803603602081101561025d57600080fd5b81019080803573ffffffffffffffffffffffffffffffffffffffff169060200190929190505050611089565b005b34801561029757600080fd5b506102a061113f565b6040518082815260200191505060405180910390f35b3480156102c257600080fd5b506102cb611145565b604051808273ffffffffffffffffffffffffffffffffffffffff1673ffffffffffffffffffffffffffffffffffffffff16815260200191505060405180910390f35b34801561031957600080fd5b5061032261116b565b6040518082815260200191505060405180910390f35b34801561034457600080fd5b506103876004803603602081101561035b57600080fd5b81019080803573ffffffffffffffffffffffffffffffffffffffff169060200190929190505050611178565b005b34801561039557600080fd5b506103c2600480360360208110156103ac57600080fd5b810190808035906020019092919050505061122e565b005b3480156103d057600080fd5b50610413600480360360208110156103e757600080fd5b81019080803573ffffffffffffffffffffffffffffffffffffffff169060200190929190505050611d52565b604051808215151515815260200191505060405180910390f35b34801561043957600080fd5b5061047c6004803603602081101561045057600080fd5b81019080803573ffffffffffffffffffffffffffffffffffffffff169060200190929190505050611d6f565b6040518082815260200191505060405180910390f35b34801561049e57600080fd5b506104a7611dbb565b005b3480156104b557600080fd5b50610502600480360360408110156104cc57600080fd5b81019080803573ffffffffffffffffffffffffffffffffffffffff16906020019092919080359060200190929190505050611dcd565b6040518085815260200184815260200183815260200182815260200194505050505060405180910390f35b34801561053957600080fd5b506105666004803603602081101561055057600080fd5b8101908080359060200190929190505050611f5c565b604051808215151515815260200191505060405180910390f35b34801561058c57600080fd5b506105956121a7565b604051808273ffffffffffffffffffffffffffffffffffffffff1673ffffffffffffffffffffffffffffffffffffffff16815260200191505060405180910390f35b3480156105e357600080fd5b50610630600480360360408110156105fa57600080fd5b81019080803573ffffffffffffffffffffffffffffffffffffffff169060200190929190803590602001909291905050506121cd565b604051808681526020018581526020018481526020018381526020018261ffff1661ffff1681526020019550505050505060405180910390f35b34801561067657600080fd5b506106c36004803603604081101561068d57600080fd5b81019080803573ffffffffffffffffffffffffffffffffffffffff1690602001909291908035906020019092919050505061222d565b6040518082815260200191505060405180910390f35b3480156106e557600080fd5b50610712600480360360208110156106fc57600080fd5b8101908080359060200190929190505050612443565b6040518085815260200184815260200183815260200182815260200194505050505060405180910390f35b34801561074957600080fd5b506107766004803603602081101561076057600080fd5b8101908080359060200190929190505050612473565b005b34801561078457600080fd5b506107c76004803603602081101561079b57600080fd5b81019080803573ffffffffffffffffffffffffffffffffffffffff169060200190929190505050612567565b005b3480156107d557600080fd5b50610802600480360360208110156107ec57600080fd5b810190808035906020019092919050505061261d565b6040518082815260200191505060405180910390f35b34801561082457600080fd5b506108676004803603602081101561083b57600080fd5b81019080803573ffffffffffffffffffffffffffffffffffffffff169060200190929190505050612640565b6040518082815260200191505060405180910390f35b34801561088957600080fd5b506108b6600480360360208110156108a057600080fd5b8101908080359060200190929190505050612658565b604051808215151515815260200191505060405180910390f35b3480156108dc57600080fd5b50610929600480360360408110156108f357600080fd5b81019080803573ffffffffffffffffffffffffffffffffffffffff1690602001909291908035906020019092919050505061285d565b6040518082815260200191505060405180910390f35b34801561094b57600080fd5b5061098e6004803603602081101561096257600080fd5b81019080803573ffffffffffffffffffffffffffffffffffffffff169060200190929190505050612a4c565b604051808215151515815260200191505060405180910390f35b3480156109b457600080fd5b506109f7600480360360208110156109cb57600080fd5b81019080803573ffffffffffffffffffffffffffffffffffffffff169060200190929190505050612a69565b604051808215151515815260200191505060405180910390f35b348015610a1d57600080fd5b50610a6260048036036060811015610a3457600080fd5b810190808035906020019092919080359060200190929190803561ffff169060200190929190505050612a89565b005b348015610a7057600080fd5b50610a796130a2565b005b348015610a8757600080fd5b50610ad460048036036040811015610a9e57600080fd5b8101908080359060200190929190803573ffffffffffffffffffffffffffffffffffffffff1690602001909291905050506130b4565b604051808215151515815260200191505060405180910390f35b60028054600181600116156101000203166002900480601f016020809104026020016040519081016040528092919081815260200182805460018160011615610100020316600290048015610b845780601f10610b5957610100808354040283529160200191610b84565b820191906000526020600020905b815481529060010190602001808311610b6757829003601f168201915b505050505081565b6000600c60003373ffffffffffffffffffffffffffffffffffffffff1673ffffffffffffffffffffffffffffffffffffffff16815260200190815260200160002082815481101515610bda57fe5b906000526020600020906005020160000154111515610c87576040517f08c379a000000000000000000000000000000000000000000000000000000000815260040180806020018281038252602e8152602001807f546865207374616b6520796f752061726520736561726368696e6720666f722081526020017f6973206e6f7420646566696e656400000000000000000000000000000000000081525060400191505060405180910390fd5b6000600c60003373ffffffffffffffffffffffffffffffffffffffff1673ffffffffffffffffffffffffffffffffffffffff16815260200190815260200160002082815481101515610cd557fe5b906000526020600020906005020160030154141515610d5c576040517f08c379a00000000000000000000000000000000000000000000000000000000081526004018080602001828103825260178152602001807f5374616b6520616c72656164792077697468647261776e00000000000000000081525060200191505060405180910390fd5b600760009054906101000a900473ffffffffffffffffffffffffffffffffffffffff1673ffffffffffffffffffffffffffffffffffffffff1663a9059cbb33600c60003373ffffffffffffffffffffffffffffffffffffffff1673ffffffffffffffffffffffffffffffffffffffff16815260200190815260200160002084815481101515610de757fe5b9060005260206000209060050201600001546040518363ffffffff167c0100000000000000000000000000000000000000000000000000000000028152600401808373ffffffffffffffffffffffffffffffffffffffff1673ffffffffffffffffffffffffffffffffffffffff16815260200182815260200192505050602060405180830381600087803b158015610e7e57600080fd5b505af1158015610e92573d6000803e3d6000fd5b505050506040513d6020811015610ea857600080fd5b81019080805190602001909291905050505042600c60003373ffffffffffffffffffffffffffffffffffffffff1673ffffffffffffffffffffffffffffffffffffffff16815260200190815260200160002082815481101515610f0757fe5b906000526020600020906005020160030181905550610f8e600c60003373ffffffffffffffffffffffffffffffffffffffff1673ffffffffffffffffffffffffffffffffffffffff16815260200190815260200160002082815481101515610f6b57fe5b906000526020600020906005020160000154600e5461324690919063ffffffff16565b600e81905550611043600c60003373ffffffffffffffffffffffffffffffffffffffff1673ffffffffffffffffffffffffffffffffffffffff16815260200190815260200160002082815481101515610fe357fe5b906000526020600020906005020160000154600b60003373ffffffffffffffffffffffffffffffffffffffff1673ffffffffffffffffffffffffffffffffffffffff1681526020019081526020016000205461324690919063ffffffff16565b600b60003373ffffffffffffffffffffffffffffffffffffffff1673ffffffffffffffffffffffffffffffffffffffff1681526020019081526020016000208190555050565b611099611094613290565b612a4c565b1515611133576040517f08c379a00000000000000000000000000000000000000000000000000000000081526004018080602001828103825260408152602001807f57686974656c69737441646d696e526f6c653a2063616c6c657220646f65732081526020017f6e6f742068617665207468652057686974656c69737441646d696e20726f6c6581525060400191505060405180910390fd5b61113c81613298565b50565b600e5481565b600860009054906101000a900473ffffffffffffffffffffffffffffffffffffffff1681565b6000600380549050905090565b611188611183613290565b612a4c565b1515611222576040517f08c379a00000000000000000000000000000000000000000000000000000000081526004018080602001828103825260408152602001807f57686974656c69737441646d696e526f6c653a2063616c6c657220646f65732081526020017f6e6f742068617665207468652057686974656c69737441646d696e20726f6c6581525060400191505060405180910390fd5b61122b816132f2565b50565b6000600c60003373ffffffffffffffffffffffffffffffffffffffff1673ffffffffffffffffffffffffffffffffffffffff1681526020019081526020016000208281548110151561127c57fe5b906000526020600020906005020160000154111515611329576040517f08c379a000000000000000000000000000000000000000000000000000000000815260040180806020018281038252602e8152602001807f546865207374616b6520796f752061726520736561726368696e6720666f722081526020017f6973206e6f7420646566696e656400000000000000000000000000000000000081525060400191505060405180910390fd5b6000600c60003373ffffffffffffffffffffffffffffffffffffffff1673ffffffffffffffffffffffffffffffffffffffff1681526020019081526020016000208281548110151561137757fe5b9060005260206000209060050201600301541415156113fe576040517f08c379a00000000000000000000000000000000000000000000000000000000081526004018080602001828103825260178152602001807f5374616b6520616c72656164792077697468647261776e00000000000000000081525060200191505060405180910390fd5b6000600c60003373ffffffffffffffffffffffffffffffffffffffff1673ffffffffffffffffffffffffffffffffffffffff1681526020019081526020016000208281548110151561144c57fe5b906000526020600020906005020160040160009054906101000a900461ffff1661ffff1614156116e157600061148333834261334c565b905080600a5411151561154a576040517f08c379a00000000000000000000000000000000000000000000000000000000081526004018080602001828103825260588152602001807f546f6b656e2063726561746f727320646964206e6f7420706c61636520656e6f81526020017f756768206c697175696469747920696e2074686520636f6e747261637420666f81526020017f7220796f75722072657761726420746f2062652070616964000000000000000081525060600191505060405180910390fd5b61155f81600a5461324690919063ffffffff16565b600a8190555060006115d782600c60003373ffffffffffffffffffffffffffffffffffffffff1673ffffffffffffffffffffffffffffffffffffffff168152602001908152602001600020858154811015156115b757fe5b90600052602060002090600502016000015461375190919063ffffffff16565b9050600760009054906101000a900473ffffffffffffffffffffffffffffffffffffffff1673ffffffffffffffffffffffffffffffffffffffff1663a9059cbb33836040518363ffffffff167c0100000000000000000000000000000000000000000000000000000000028152600401808373ffffffffffffffffffffffffffffffffffffffff1673ffffffffffffffffffffffffffffffffffffffff16815260200182815260200192505050602060405180830381600087803b15801561169e57600080fd5b505af11580156116b2573d6000803e3d6000fd5b505050506040513d60208110156116c857600080fd5b8101908080519060200190929190505050505050611b83565b6000600c60003373ffffffffffffffffffffffffffffffffffffffff1673ffffffffffffffffffffffffffffffffffffffff1681526020019081526020016000208281548110151561172f57fe5b906000526020600020906005020160040160009054906101000a900461ffff1661ffff161415611b825760006117663383426137db565b905080600860009054906101000a900473ffffffffffffffffffffffffffffffffffffffff1673ffffffffffffffffffffffffffffffffffffffff166370a08231306040518263ffffffff167c0100000000000000000000000000000000000000000000000000000000028152600401808273ffffffffffffffffffffffffffffffffffffffff1673ffffffffffffffffffffffffffffffffffffffff16815260200191505060206040518083038186803b15801561182457600080fd5b505afa158015611838573d6000803e3d6000fd5b505050506040513d602081101561184e57600080fd5b810190808051906020019092919050505010151515611921576040517f08c379a00000000000000000000000000000000000000000000000000000000081526004018080602001828103825260438152602001807f7468652069736e277420656e6f75676820434c495120696e207468697320636f81526020017f6e747261637420746f2070617920796f7572207265776172642072696768742081526020017f6e6f77000000000000000000000000000000000000000000000000000000000081525060600191505060405180910390fd5b600860009054906101000a900473ffffffffffffffffffffffffffffffffffffffff1673ffffffffffffffffffffffffffffffffffffffff1663a9059cbb33836040518363ffffffff167c0100000000000000000000000000000000000000000000000000000000028152600401808373ffffffffffffffffffffffffffffffffffffffff1673ffffffffffffffffffffffffffffffffffffffff16815260200182815260200192505050602060405180830381600087803b1580156119e657600080fd5b505af11580156119fa573d6000803e3d6000fd5b505050506040513d6020811015611a1057600080fd5b810190808051906020019092919050505050600760009054906101000a900473ffffffffffffffffffffffffffffffffffffffff1673ffffffffffffffffffffffffffffffffffffffff1663a9059cbb33600c60003373ffffffffffffffffffffffffffffffffffffffff1673ffffffffffffffffffffffffffffffffffffffff16815260200190815260200160002085815481101515611aad57fe5b9060005260206000209060050201600001546040518363ffffffff167c0100000000000000000000000000000000000000000000000000000000028152600401808373ffffffffffffffffffffffffffffffffffffffff1673ffffffffffffffffffffffffffffffffffffffff16815260200182815260200192505050602060405180830381600087803b158015611b4457600080fd5b505af1158015611b58573d6000803e3d6000fd5b505050506040513d6020811015611b6e57600080fd5b810190808051906020019092919050505050505b5b42600c60003373ffffffffffffffffffffffffffffffffffffffff1673ffffffffffffffffffffffffffffffffffffffff16815260200190815260200160002082815481101515611bd057fe5b906000526020600020906005020160030181905550611c57600c60003373ffffffffffffffffffffffffffffffffffffffff1673ffffffffffffffffffffffffffffffffffffffff16815260200190815260200160002082815481101515611c3457fe5b906000526020600020906005020160000154600e5461324690919063ffffffff16565b600e81905550611d0c600c60003373ffffffffffffffffffffffffffffffffffffffff1673ffffffffffffffffffffffffffffffffffffffff16815260200190815260200160002082815481101515611cac57fe5b906000526020600020906005020160000154600b60003373ffffffffffffffffffffffffffffffffffffffff1673ffffffffffffffffffffffffffffffffffffffff1681526020019081526020016000205461324690919063ffffffff16565b600b60003373ffffffffffffffffffffffffffffffffffffffff1673ffffffffffffffffffffffffffffffffffffffff1681526020019081526020016000208190555050565b6000611d68826001613bae90919063ffffffff16565b9050919050565b6000600c60008373ffffffffffffffffffffffffffffffffffffffff1673ffffffffffffffffffffffffffffffffffffffff168152602001908152602001600020805490509050919050565b611dcb611dc6613290565b613cd1565b565b600080600080600c60008773ffffffffffffffffffffffffffffffffffffffff1673ffffffffffffffffffffffffffffffffffffffff16815260200190815260200160002085815481101515611e1f57fe5b9060005260206000209060050201600001549350600c60008773ffffffffffffffffffffffffffffffffffffffff1673ffffffffffffffffffffffffffffffffffffffff16815260200190815260200160002085815481101515611e7f57fe5b9060005260206000209060050201600101549250600c60008773ffffffffffffffffffffffffffffffffffffffff1673ffffffffffffffffffffffffffffffffffffffff16815260200190815260200160002085815481101515611edf57fe5b9060005260206000209060050201600201549150600c60008773ffffffffffffffffffffffffffffffffffffffff1673ffffffffffffffffffffffffffffffffffffffff16815260200190815260200160002085815481101515611f3f57fe5b906000526020600020906005020160030154905092959194509250565b6000611f6e611f69613290565b611d52565b1515612008576040517f08c379a000000000000000000000000000000000000000000000000000000000815260040180806020018281038252603a8152602001807f57686974656c6973746564526f6c653a2063616c6c657220646f6573206e6f7481526020017f2068617665207468652057686974656c697374656420726f6c6500000000000081525060400191505060405180910390fd5b600a548211151515612082576040517f08c379a000000000000000000000000000000000000000000000000000000000815260040180806020018281038252601f8152602001807f796f752063616e6e6f74207769746864726177207468697320616d6f756e740081525060200191505060405180910390fd5b61209782600a5461324690919063ffffffff16565b600a81905550600760009054906101000a900473ffffffffffffffffffffffffffffffffffffffff1673ffffffffffffffffffffffffffffffffffffffff1663a9059cbb33846040518363ffffffff167c0100000000000000000000000000000000000000000000000000000000028152600401808373ffffffffffffffffffffffffffffffffffffffff1673ffffffffffffffffffffffffffffffffffffffff16815260200182815260200192505050602060405180830381600087803b15801561216257600080fd5b505af1158015612176573d6000803e3d6000fd5b505050506040513d602081101561218c57600080fd5b81019080805190602001909291905050505060019050919050565b600760009054906101000a900473ffffffffffffffffffffffffffffffffffffffff1681565b600c602052816000526040600020818154811015156121e857fe5b9060005260206000209060050201600091509150508060000154908060010154908060020154908060030154908060040160009054906101000a900461ffff16905085565b60006001600c60008573ffffffffffffffffffffffffffffffffffffffff1673ffffffffffffffffffffffffffffffffffffffff1681526020019081526020016000208381548110151561227d57fe5b906000526020600020906005020160040160009054906101000a900461ffff1661ffff16141515612362576040517f08c379a00000000000000000000000000000000000000000000000000000000081526004018080602001828103825260478152602001807f75736520636865636b5374616b6552657761726420666f72207374616b65732081526020017f616363756d756c6174696e672072657761726420696e20746865204e6174697681526020017f6520546f6b656e0000000000000000000000000000000000000000000000000081525060600191505060405180910390fd5b60004290506000600c60008673ffffffffffffffffffffffffffffffffffffffff1673ffffffffffffffffffffffffffffffffffffffff168152602001908152602001600020848154811015156123b557fe5b90600052602060002090600502016003015414151561242f57600c60008573ffffffffffffffffffffffffffffffffffffffff1673ffffffffffffffffffffffffffffffffffffffff1681526020019081526020016000208381548110151561241a57fe5b90600052602060002090600502016003015490505b61243a8484836137db565b91505092915050565b60056020528060005260406000206000915090508060000154908060010154908060020154908060030154905084565b61248361247e613290565b612a4c565b151561251d576040517f08c379a00000000000000000000000000000000000000000000000000000000081526004018080602001828103825260408152602001807f57686974656c69737441646d696e526f6c653a2063616c6c657220646f65732081526020017f6e6f742068617665207468652057686974656c69737441646d696e20726f6c6581525060400191505060405180910390fd5b3373ffffffffffffffffffffffffffffffffffffffff166108fc829081150290604051600060405180830381858888f19350505050158015612563573d6000803e3d6000fd5b5050565b612577612572613290565b612a4c565b1515612611576040517f08c379a00000000000000000000000000000000000000000000000000000000081526004018080602001828103825260408152602001807f57686974656c69737441646d696e526f6c653a2063616c6c657220646f65732081526020017f6e6f742068617665207468652057686974656c69737441646d696e20726f6c6581525060400191505060405180910390fd5b61261a81613d2b565b50565b60038181548110151561262c57fe5b906000526020600020016000915090505481565b600b6020528060005260406000206000915090505481565b600061266a612665613290565b611d52565b1515612704576040517f08c379a000000000000000000000000000000000000000000000000000000000815260040180806020018281038252603a8152602001807f57686974656c6973746564526f6c653a2063616c6c657220646f6573206e6f7481526020017f2068617665207468652057686974656c697374656420726f6c6500000000000081525060400191505060405180910390fd5b600760009054906101000a900473ffffffffffffffffffffffffffffffffffffffff1673ffffffffffffffffffffffffffffffffffffffff166323b872dd3330856040518463ffffffff167c0100000000000000000000000000000000000000000000000000000000028152600401808473ffffffffffffffffffffffffffffffffffffffff1673ffffffffffffffffffffffffffffffffffffffff1681526020018373ffffffffffffffffffffffffffffffffffffffff1673ffffffffffffffffffffffffffffffffffffffff1681526020018281526020019350505050602060405180830381600087803b1580156127fd57600080fd5b505af1158015612811573d6000803e3d6000fd5b505050506040513d602081101561282757600080fd5b81019080805190602001909291905050505061284e82600a5461375190919063ffffffff16565b600a8190555060019050919050565b600080600c60008573ffffffffffffffffffffffffffffffffffffffff1673ffffffffffffffffffffffffffffffffffffffff168152602001908152602001600020838154811015156128ac57fe5b906000526020600020906005020160040160009054906101000a900461ffff1661ffff1614151561296b576040517f08c379a000000000000000000000000000000000000000000000000000000000815260040180806020018281038252603f8152602001807f75736520636865636b5374616b65436c697152657761726420666f722073746181526020017f6b657320616363756d756c6174696e672072657761726420696e20434c49510081525060400191505060405180910390fd5b60004290506000600c60008673ffffffffffffffffffffffffffffffffffffffff1673ffffffffffffffffffffffffffffffffffffffff168152602001908152602001600020848154811015156129be57fe5b906000526020600020906005020160030154141515612a3857600c60008573ffffffffffffffffffffffffffffffffffffffff1673ffffffffffffffffffffffffffffffffffffffff16815260200190815260200160002083815481101515612a2357fe5b90600052602060002090600502016003015490505b612a4384848361334c565b91505092915050565b6000612a62826000613bae90919063ffffffff16565b9050919050565b600d6020528060005260406000206000915054906101000a900460ff1681565b600083111515612b27576040517f08c379a00000000000000000000000000000000000000000000000000000000081526004018080602001828103825260238152602001807f207374616b65206120706f736974697665206e756d626572206f6620746f6b6581526020017f6e7320000000000000000000000000000000000000000000000000000000000081525060400191505060405180910390fd5b60006005600084815260200190815260200160002060010154111515612c01576040517f08c379a000000000000000000000000000000000000000000000000000000000815260040180806020018281038252605d8152602001807f7468657265206973206e6f207374616b696e67207061636b616765207769746881526020017f20746865206465636c61726564206e616d652c206f7220746865207374616b6981526020017f6e67207061636b61676520697320706f6f726c7920666f726d6174656400000081525060600191505060405180910390fd5b60008161ffff161480612c18575060018161ffff16145b1515612cb2576040517f08c379a00000000000000000000000000000000000000000000000000000000081526004018080602001828103825260338152602001807f7265776172642074797065206e6f74206b6e6f776e3a2030206973206e61746981526020017f766520746f6b656e2c203120697320434c49510000000000000000000000000081525060400191505060405180910390fd5b600760009054906101000a900473ffffffffffffffffffffffffffffffffffffffff1673ffffffffffffffffffffffffffffffffffffffff166323b872dd3330866040518463ffffffff167c0100000000000000000000000000000000000000000000000000000000028152600401808473ffffffffffffffffffffffffffffffffffffffff1673ffffffffffffffffffffffffffffffffffffffff1681526020018373ffffffffffffffffffffffffffffffffffffffff1673ffffffffffffffffffffffffffffffffffffffff1681526020018281526020019350505050602060405180830381600087803b158015612dab57600080fd5b505af1158015612dbf573d6000803e3d6000fd5b505050506040513d6020811015612dd557600080fd5b810190808051906020019092919050505050612e3983600b60003373ffffffffffffffffffffffffffffffffffffffff1673ffffffffffffffffffffffffffffffffffffffff1681526020019081526020016000205461375190919063ffffffff16565b600b60003373ffffffffffffffffffffffffffffffffffffffff1673ffffffffffffffffffffffffffffffffffffffff16815260200190815260200160002081905550612e84614207565b83816000018181525050428160200181815250508281604001818152505081816080019061ffff16908161ffff1681525050600c60003373ffffffffffffffffffffffffffffffffffffffff1673ffffffffffffffffffffffffffffffffffffffff16815260200190815260200160002081908060018154018082558091505090600182039060005260206000209060050201600090919290919091506000820151816000015560208201518160010155604082015181600201556060820151816003015560808201518160040160006101000a81548161ffff021916908361ffff160217905550505050600d60003373ffffffffffffffffffffffffffffffffffffffff1673ffffffffffffffffffffffffffffffffffffffff16815260200190815260200160002060009054906101000a900460ff1615156130295760093390806001815401808255809150509060018203906000526020600020016000909192909190916101000a81548173ffffffffffffffffffffffffffffffffffffffff021916908373ffffffffffffffffffffffffffffffffffffffff160217905550505b6001600d60003373ffffffffffffffffffffffffffffffffffffffff1673ffffffffffffffffffffffffffffffffffffffff16815260200190815260200160002060006101000a81548160ff02191690831515021790555061309684600e5461375190919063ffffffff16565b600e8190555050505050565b6130b26130ad613290565b6132f2565b565b60006130c66130c1613290565b612a4c565b1515613160576040517f08c379a00000000000000000000000000000000000000000000000000000000081526004018080602001828103825260408152602001807f57686974656c69737441646d696e526f6c653a2063616c6c657220646f65732081526020017f6e6f742068617665207468652057686974656c69737441646d696e20726f6c6581525060400191505060405180910390fd5b8173ffffffffffffffffffffffffffffffffffffffff1663a9059cbb33856040518363ffffffff167c0100000000000000000000000000000000000000000000000000000000028152600401808373ffffffffffffffffffffffffffffffffffffffff1673ffffffffffffffffffffffffffffffffffffffff16815260200182815260200192505050602060405180830381600087803b15801561320357600080fd5b505af1158015613217573d6000803e3d6000fd5b505050506040513d602081101561322d57600080fd5b8101908080519060200190929190505050905092915050565b600061328883836040805190810160405280601e81526020017f536166654d6174683a207375627472616374696f6e206f766572666c6f770000815250613d85565b905092915050565b600033905090565b6132ac816001613e4790919063ffffffff16565b8073ffffffffffffffffffffffffffffffffffffffff167fee1504a83b6d4a361f4c1dc78ab59bfa30d6a3b6612c403e86bb01ef2984295f60405160405180910390a250565b613306816001613f2490919063ffffffff16565b8073ffffffffffffffffffffffffffffffffffffffff167f270d9b30cf5b0793bbfd54c9d5b94aeb49462b8148399000265144a8722da6b660405160405180910390a250565b600080600c60008673ffffffffffffffffffffffffffffffffffffffff1673ffffffffffffffffffffffffffffffffffffffff1681526020019081526020016000208481548110151561339b57fe5b906000526020600020906005020160000154111515613448576040517f08c379a000000000000000000000000000000000000000000000000000000000815260040180806020018281038252602e8152602001807f546865207374616b6520796f752061726520736561726368696e6720666f722081526020017f6973206e6f7420646566696e656400000000000000000000000000000000000081525060400191505060405180910390fd5b60008290506000600c60008773ffffffffffffffffffffffffffffffffffffffff1673ffffffffffffffffffffffffffffffffffffffff1681526020019081526020016000208581548110151561349b57fe5b9060005260206000209060050201600101549050600060056000600c60008a73ffffffffffffffffffffffffffffffffffffffff1673ffffffffffffffffffffffffffffffffffffffff1681526020019081526020016000208881548110151561350157fe5b9060005260206000209060050201600201548152602001908152602001600020600101549050600060056000600c60008b73ffffffffffffffffffffffffffffffffffffffff1673ffffffffffffffffffffffffffffffffffffffff1681526020019081526020016000208981548110151561357957fe5b906000526020600020906005020160020154815260200190815260200160002060020154905060006135b4848661324690919063ffffffff16565b9050600081111515613654576040517f08c379a000000000000000000000000000000000000000000000000000000000815260040180806020018281038252602e8152602001807f5374616b696e672074696d652063616e6e6f74206265206c617465722074686181526020017f6e2063757272656e742074696d6500000000000000000000000000000000000081525060400191505060405180910390fd5b6000613669848361402690919063ffffffff16565b905060008090506000600c60008d73ffffffffffffffffffffffffffffffffffffffff1673ffffffffffffffffffffffffffffffffffffffff1681526020019081526020016000208b8154811015156136be57fe5b90600052602060002090600502016000015490505b600083111561373f57600061370460646136f6888561407090919063ffffffff16565b61402690919063ffffffff16565b9050613719818361375190919063ffffffff16565b915061372e818461375190919063ffffffff16565b9250838060019003945050506136d3565b81985050505050505050509392505050565b60008082840190508381101515156137d1576040517f08c379a000000000000000000000000000000000000000000000000000000000815260040180806020018281038252601b8152602001807f536166654d6174683a206164646974696f6e206f766572666c6f77000000000081525060200191505060405180910390fd5b8091505092915050565b600080600c60008673ffffffffffffffffffffffffffffffffffffffff1673ffffffffffffffffffffffffffffffffffffffff1681526020019081526020016000208481548110151561382a57fe5b9060005260206000209060050201600001541115156138d7576040517f08c379a000000000000000000000000000000000000000000000000000000000815260040180806020018281038252602e8152602001807f546865207374616b6520796f752061726520736561726368696e6720666f722081526020017f6973206e6f7420646566696e656400000000000000000000000000000000000081525060400191505060405180910390fd5b60008290506000600c60008773ffffffffffffffffffffffffffffffffffffffff1673ffffffffffffffffffffffffffffffffffffffff1681526020019081526020016000208581548110151561392a57fe5b9060005260206000209060050201600101549050600060056000600c60008a73ffffffffffffffffffffffffffffffffffffffff1673ffffffffffffffffffffffffffffffffffffffff1681526020019081526020016000208881548110151561399057fe5b9060005260206000209060050201600201548152602001908152602001600020600101549050600060056000600c60008b73ffffffffffffffffffffffffffffffffffffffff1673ffffffffffffffffffffffffffffffffffffffff16815260200190815260200160002089815481101515613a0857fe5b90600052602060002090600502016002015481526020019081526020016000206003015490506000613a43848661324690919063ffffffff16565b9050600081111515613ae3576040517f08c379a000000000000000000000000000000000000000000000000000000000815260040180806020018281038252602e8152602001807f5374616b696e672074696d652063616e6e6f74206265206c617465722074686181526020017f6e2063757272656e742074696d6500000000000000000000000000000000000081525060400191505060405180910390fd5b6000613af8848361402690919063ffffffff16565b90506000613b6c84600c60008e73ffffffffffffffffffffffffffffffffffffffff1673ffffffffffffffffffffffffffffffffffffffff1681526020019081526020016000208c815481101515613b4c57fe5b90600052602060002090600502016000015461407090919063ffffffff16565b9050613b86600f54600a0a8261402690919063ffffffff16565b9050613b9b828261407090919063ffffffff16565b9050809750505050505050509392505050565b60008073ffffffffffffffffffffffffffffffffffffffff168273ffffffffffffffffffffffffffffffffffffffff1614151515613c7a576040517f08c379a00000000000000000000000000000000000000000000000000000000081526004018080602001828103825260228152602001807f526f6c65733a206163636f756e7420697320746865207a65726f20616464726581526020017f737300000000000000000000000000000000000000000000000000000000000081525060400191505060405180910390fd5b8260000160008373ffffffffffffffffffffffffffffffffffffffff1673ffffffffffffffffffffffffffffffffffffffff16815260200190815260200160002060009054906101000a900460ff16905092915050565b613ce5816000613f2490919063ffffffff16565b8073ffffffffffffffffffffffffffffffffffffffff167f0a8eb35e5ca14b3d6f28e4abf2f128dbab231a58b56e89beb5d636115001e16560405160405180910390a250565b613d3f816000613e4790919063ffffffff16565b8073ffffffffffffffffffffffffffffffffffffffff167f22380c05984257a1cb900161c713dd71d39e74820f1aea43bd3f1bdd2096129960405160405180910390a250565b60008383111582901515613e34576040517f08c379a00000000000000000000000000000000000000000000000000000000081526004018080602001828103825283818151815260200191508051906020019080838360005b83811015613df9578082015181840152602081019050613dde565b50505050905090810190601f168015613e265780820380516001836020036101000a031916815260200191505b509250505060405180910390fd5b5060008385039050809150509392505050565b613e518282613bae565b151515613ec6576040517f08c379a000000000000000000000000000000000000000000000000000000000815260040180806020018281038252601f8152602001807f526f6c65733a206163636f756e7420616c72656164792068617320726f6c650081525060200191505060405180910390fd5b60018260000160008373ffffffffffffffffffffffffffffffffffffffff1673ffffffffffffffffffffffffffffffffffffffff16815260200190815260200160002060006101000a81548160ff0219169083151502179055505050565b613f2e8282613bae565b1515613fc8576040517f08c379a00000000000000000000000000000000000000000000000000000000081526004018080602001828103825260218152602001807f526f6c65733a206163636f756e7420646f6573206e6f74206861766520726f6c81526020017f650000000000000000000000000000000000000000000000000000000000000081525060400191505060405180910390fd5b60008260000160008373ffffffffffffffffffffffffffffffffffffffff1673ffffffffffffffffffffffffffffffffffffffff16815260200190815260200160002060006101000a81548160ff0219169083151502179055505050565b600061406883836040805190810160405280601a81526020017f536166654d6174683a206469766973696f6e206279207a65726f00000000000081525061413d565b905092915050565b6000808314156140835760009050614137565b6000828402905082848281151561409657fe5b04141515614132576040517f08c379a00000000000000000000000000000000000000000000000000000000081526004018080602001828103825260218152602001807f536166654d6174683a206d756c7469706c69636174696f6e206f766572666c6f81526020017f770000000000000000000000000000000000000000000000000000000000000081525060400191505060405180910390fd5b809150505b92915050565b6000808311829015156141eb576040517f08c379a00000000000000000000000000000000000000000000000000000000081526004018080602001828103825283818151815260200191508051906020019080838360005b838110156141b0578082015181840152602081019050614195565b50505050905090810190601f1680156141dd5780820380516001836020036101000a031916815260200191505b509250505060405180910390fd5b50600083858115156141f957fe5b049050809150509392505050565b60a06040519081016040528060008152602001600081526020016000801916815260200160008152602001600061ffff168152509056fea165627a7a7230582026432e3a92c97963f17d831d9b122cc45f9cb4b9daff44b55374c65c9418ad8b0029",
  "source": "pragma solidity ^0.5.0;\n\nimport \"@openzeppelin/contracts/token/ERC20/IERC20.sol\";\nimport \"@openzeppelin/contracts/math/SafeMath.sol\";\nimport \"@openzeppelin/contracts/access/roles/WhitelistedRole.sol\";\n\ncontract CliqStaking is WhitelistedRole {\n    using SafeMath for uint256;\n\n    struct YieldType {\n        bytes32 _packageName;\n        uint256 _daysLocked;\n        uint256 _packageInterest;\n        uint256 _packageCliqReward; // the number of cliq token received for each native token staked\n    }\n\n    // we can improve this with a \"unstaked:false\" flag when the user force withdraws the funds\n    // so he can collect the reward later\n    struct Stake {\n        uint256 _amount;\n        uint256 _timestamp;\n        bytes32 _packageName;\n        uint256 _withdrawnTimestamp;\n        uint16 _stakeRewardType; // 0 for native coin reward, 1 for CLIQ stake reward\n    }\n\n    function toWei(uint256 num) private view returns (uint256) {\n        return num * 10**decimals;\n    }\n\n    function definePackage(\n        bytes32 _name,\n        uint256 _days,\n        uint256 _packageInterest,\n        uint256 _packageCliqReward\n    ) private {\n        YieldType memory package;\n        package._packageName = _name;\n        package._daysLocked = _days;\n        package._packageInterest = _packageInterest;\n        package._packageCliqReward = _packageCliqReward;\n\n        packages[_name] = package;\n        packageNames.push(_name);\n    }\n\n    string public name = \"Cliq Staking Contract\";\n\n    bytes32[] public packageNames;\n\n    uint256 decimals = 18;\n\n    mapping(bytes32 => YieldType) public packages;\n\n    address private owner;\n    IERC20 public tokenContract;\n    IERC20 public CLIQ;\n\n    address[] stakers;\n\n    uint256 whitelistRoleTokenAllowance = 0;\n\n    mapping(address => uint256) public totalStakedBalance;\n    mapping(address => Stake[]) public stakes;\n    mapping(address => bool) public hasStaked;\n    uint256 public totalStakedFunds = 0;\n\n    uint256 cliqRewardUnits = 1000000; // ciq reward for 1.000.000 tokens staked\n\n    constructor(address _stakedToken, address _CLIQ) public {\n        owner = msg.sender;\n        tokenContract = IERC20(_stakedToken);\n        CLIQ = IERC20(_CLIQ);\n        //define packages here\n        definePackage(\"Silver Package\", 30, 15, 1000000); // in 30 days you receive: 15% of staked token OR 1 cliq for 1 token staked\n        definePackage(\"Gold Package\", 60, 18, 1500000); // 1.5 cliq for 1 token staked\n        definePackage(\"Platinum Package\", 90, 24, 2000000); // 2 cliq for 1 token staked\n    }\n\n    function getAddrTokensBalance(address _address)\n        private\n        view\n        returns (uint256 balance)\n    {\n        return tokenContract.balanceOf(_address);\n    }\n\n    function getStakes(address _address, uint256 stakeIndex)\n        external\n        view\n        returns (\n            uint256 amount,\n            uint256 timestamp,\n            bytes32 packageName,\n            uint256 withdrawnTimestamp\n        )\n    {\n        amount = stakes[_address][stakeIndex]._amount;\n        timestamp = stakes[_address][stakeIndex]._timestamp;\n        packageName = stakes[_address][stakeIndex]._packageName;\n        withdrawnTimestamp = stakes[_address][stakeIndex]._withdrawnTimestamp;\n    }\n\n    function stakesLength(address _address) external view returns (uint256) {\n        return stakes[_address].length;\n    }\n\n    function packageLength() external view returns (uint256) {\n        return packageNames.length;\n    }\n\n    function stakeTokens(\n        uint256 _amount,\n        bytes32 _packageName,\n        uint16 _stakeRewardType\n    ) public {\n        require(_amount > 0, \" stake a positive number of tokens \");\n        require(\n            packages[_packageName]._daysLocked > 0,\n            \"there is no staking package with the declared name, or the staking package is poorly formated\"\n        );\n        require(\n            _stakeRewardType == 0 || _stakeRewardType == 1,\n            \"reward type not known: 0 is native token, 1 is CLIQ\"\n        );\n\n        //transfer from (need allowance)\n        tokenContract.transferFrom(msg.sender, address(this), _amount);\n\n        //add to stake sum of address\n        totalStakedBalance[msg.sender] = totalStakedBalance[msg.sender].add(\n            _amount\n        );\n\n        //add to stakes\n        Stake memory currentStake;\n        currentStake._amount = _amount;\n        currentStake._timestamp = block.timestamp;\n        currentStake._packageName = _packageName;\n        currentStake._stakeRewardType = _stakeRewardType;\n        stakes[msg.sender].push(currentStake);\n\n        //if user is not declared as a staker, push him into the staker array\n        if (!hasStaked[msg.sender]) {\n            stakers.push(msg.sender);\n        }\n\n        //update the bool mapping of past and current stakers\n        hasStaked[msg.sender] = true;\n        totalStakedFunds = totalStakedFunds.add(_amount);\n    }\n\n    function checkStakeReward(address _address, uint256 stakeIndex)\n        external\n        view\n        returns (uint256)\n    {\n        require(\n            stakes[_address][stakeIndex]._stakeRewardType == 0,\n            \"use checkStakeCliqReward for stakes accumulating reward in CLIQ\"\n        );\n\n        uint256 withdrawnTimestamp = block.timestamp;\n        if (stakes[_address][stakeIndex]._withdrawnTimestamp != 0) {\n            withdrawnTimestamp = stakes[_address][stakeIndex]\n                ._withdrawnTimestamp;\n        }\n\n        return _checkStakeReward(_address, stakeIndex, withdrawnTimestamp);\n    }\n\n    function checkStakeCliqReward(address _address, uint256 stakeIndex)\n        external\n        view\n        returns (uint256)\n    {\n        require(\n            stakes[_address][stakeIndex]._stakeRewardType == 1,\n            \"use checkStakeReward for stakes accumulating reward in the Native Token\"\n        );\n\n        uint256 withdrawnTimestamp = block.timestamp;\n        if (stakes[_address][stakeIndex]._withdrawnTimestamp != 0) {\n            withdrawnTimestamp = stakes[_address][stakeIndex]\n                ._withdrawnTimestamp;\n        }\n\n        return _checkStakeCliqReward(_address, stakeIndex, withdrawnTimestamp);\n    }\n\n    function _checkStakeCliqReward(\n        address _address,\n        uint256 stakeIndex,\n        uint256 untilTimestamp\n    ) private view returns (uint256) {\n        require(\n            stakes[_address][stakeIndex]._amount > 0,\n            \"The stake you are searching for is not defined\"\n        );\n        uint256 currentTime = untilTimestamp;\n        uint256 stakingTime = stakes[_address][stakeIndex]._timestamp;\n        uint256 daysLocked =\n            packages[stakes[_address][stakeIndex]._packageName]._daysLocked;\n        uint256 packageCliqInterest =\n            packages[stakes[_address][stakeIndex]._packageName]\n                ._packageCliqReward;\n\n        uint256 timeDiff = currentTime.sub(stakingTime);\n        require(timeDiff > 0, \"Staking time cannot be later than current time\");\n\n        uint256 yieldPeriods = timeDiff.div(daysLocked); // the _days is in seconds for now so can fucking test stuff\n\n        uint256 yieldReward =\n            stakes[_address][stakeIndex]._amount.mul(packageCliqInterest);\n\n        yieldReward = yieldReward.div(10**cliqRewardUnits);\n\n        yieldReward = yieldReward.mul(yieldPeriods);\n\n        return yieldReward;\n    }\n\n    function _checkStakeReward(\n        address _address,\n        uint256 stakeIndex,\n        uint256 untilTimestamp\n    ) private view returns (uint256) {\n        require(\n            stakes[_address][stakeIndex]._amount > 0,\n            \"The stake you are searching for is not defined\"\n        );\n        uint256 currentTime = untilTimestamp;\n        uint256 stakingTime = stakes[_address][stakeIndex]._timestamp;\n        uint256 daysLocked =\n            packages[stakes[_address][stakeIndex]._packageName]._daysLocked;\n        uint256 packageInterest =\n            packages[stakes[_address][stakeIndex]._packageName]\n                ._packageInterest;\n\n        uint256 timeDiff = currentTime.sub(stakingTime);\n        require(timeDiff > 0, \"Staking time cannot be later than current time\");\n\n        uint256 yieldPeriods = timeDiff.div(daysLocked); // the _days is in seconds for now so can fucking test stuff\n\n        uint256 yieldReward = 0;\n        uint256 totalStake = stakes[_address][stakeIndex]._amount;\n\n        // for each period of days defined in the package, compound the interest\n        while (yieldPeriods > 0) {\n            uint256 currentReward = totalStake.mul(packageInterest).div(100);\n\n            totalStake = totalStake.add(currentReward);\n\n            yieldReward = yieldReward.add(currentReward);\n\n            yieldPeriods--;\n        }\n\n        return yieldReward;\n    }\n\n    function unstake(uint256 stakeIndex) public {\n        require(\n            stakes[msg.sender][stakeIndex]._amount > 0,\n            \"The stake you are searching for is not defined\"\n        );\n        require(\n            stakes[msg.sender][stakeIndex]._withdrawnTimestamp == 0,\n            \"Stake already withdrawn\"\n        );\n\n        if (stakes[msg.sender][stakeIndex]._stakeRewardType == 0) {\n            uint256 reward =\n                _checkStakeReward(msg.sender, stakeIndex, block.timestamp);\n\n            require(\n                whitelistRoleTokenAllowance > reward,\n                \"Token creators did not place enough liquidity in the contract for your reward to be paid\"\n            );\n\n            whitelistRoleTokenAllowance = whitelistRoleTokenAllowance.sub(\n                reward\n            );\n\n            uint256 totalStake =\n                stakes[msg.sender][stakeIndex]._amount.add(reward);\n            tokenContract.transfer(msg.sender, totalStake);\n        } else if (stakes[msg.sender][stakeIndex]._stakeRewardType == 0) {\n            uint256 cliqReward =\n                _checkStakeCliqReward(msg.sender, stakeIndex, block.timestamp);\n\n            require(\n                CLIQ.balanceOf(address(this)) >= cliqReward,\n                \"the isn't enough CLIQ in this contract to pay your reward right now\"\n            );\n\n            CLIQ.transfer(msg.sender, cliqReward);\n            tokenContract.transfer(\n                msg.sender,\n                stakes[msg.sender][stakeIndex]._amount\n            );\n        }\n\n        stakes[msg.sender][stakeIndex]._withdrawnTimestamp = block.timestamp;\n        totalStakedFunds = totalStakedFunds.sub(\n            stakes[msg.sender][stakeIndex]._amount\n        );\n        totalStakedBalance[msg.sender] = totalStakedBalance[msg.sender].sub(\n            stakes[msg.sender][stakeIndex]._amount\n        );\n    }\n\n    function forceWithdraw(uint256 stakeIndex) public {\n        require(\n            stakes[msg.sender][stakeIndex]._amount > 0,\n            \"The stake you are searching for is not defined\"\n        );\n        require(\n            stakes[msg.sender][stakeIndex]._withdrawnTimestamp == 0,\n            \"Stake already withdrawn\"\n        );\n\n        tokenContract.transfer(\n            msg.sender,\n            stakes[msg.sender][stakeIndex]._amount\n        );\n        stakes[msg.sender][stakeIndex]._withdrawnTimestamp = block.timestamp;\n        totalStakedFunds = totalStakedFunds.sub(\n            stakes[msg.sender][stakeIndex]._amount\n        );\n        totalStakedBalance[msg.sender] = totalStakedBalance[msg.sender].sub(\n            stakes[msg.sender][stakeIndex]._amount\n        );\n    }\n\n    function parkFunds(uint256 _parkedAmount, address tokenAddr)\n        public\n        onlyWhitelistAdmin\n        returns (bool)\n    {\n        return IERC20(tokenAddr).transfer(msg.sender, _parkedAmount);\n    }\n\n    function parkETH(uint256 _parkedAmount)\n        public\n        onlyWhitelistAdmin\n    {\n        msg.sender.transfer(_parkedAmount);\n    }\n\n    function addStakedTokenReward(uint256 _amount)\n        public\n        onlyWhitelisted\n        returns (bool)\n    {\n        //transfer from (need allowance)\n        tokenContract.transferFrom(msg.sender, address(this), _amount);\n        whitelistRoleTokenAllowance = whitelistRoleTokenAllowance.add(_amount);\n        return true;\n    }\n\n    function removeStakedTokenReward(uint256 _amount)\n        public\n        onlyWhitelisted\n        returns (bool)\n    {\n        require(\n            _amount <= whitelistRoleTokenAllowance,\n            \"you cannot withdraw this amount\"\n        );\n        whitelistRoleTokenAllowance = whitelistRoleTokenAllowance.sub(_amount);\n        tokenContract.transfer(msg.sender, _amount);\n        return true;\n    }\n}\n",
  "sourcePath": "/Users/codrin/Projects/erc20-staking/deficliq-staking/contracts/cliqStaking.sol",
  "compiler": {
    "name": "solc",
    "version": "0.5.0+commit.1d4f565a.Emscripten.clang"
  },
  "schemaVersion": "3.3.3",
  "updatedAt": "2021-01-02T16:22:43.628Z",
  "networkType": "ethereum",
  "devdoc": {
    "methods": {}
  },
  "userdoc": {
    "methods": {}
  }
}