{
  "contractName": "CliqStaking",
  "abi": [
    {
      "inputs": [
        {
          "internalType": "address",
          "name": "_stakedToken",
          "type": "address"
        },
        {
          "internalType": "address",
          "name": "_CLIQ",
          "type": "address"
        }
      ],
      "stateMutability": "nonpayable",
      "type": "constructor"
    },
    {
      "anonymous": false,
      "inputs": [
        {
          "indexed": true,
          "internalType": "address",
          "name": "_usr",
          "type": "address"
        },
        {
          "indexed": false,
          "internalType": "uint256",
          "name": "stakeIndex",
          "type": "uint256"
        }
      ],
      "name": "ForcefullyWithdrawn",
      "type": "event"
    },
    {
      "anonymous": false,
      "inputs": [
        {
          "indexed": true,
          "internalType": "address",
          "name": "_from",
          "type": "address"
        },
        {
          "indexed": false,
          "internalType": "uint256",
          "name": "_val",
          "type": "uint256"
        }
      ],
      "name": "NativeTokenRewardAdded",
      "type": "event"
    },
    {
      "anonymous": false,
      "inputs": [
        {
          "indexed": true,
          "internalType": "address",
          "name": "_to",
          "type": "address"
        },
        {
          "indexed": false,
          "internalType": "uint256",
          "name": "_val",
          "type": "uint256"
        }
      ],
      "name": "NativeTokenRewardRemoved",
      "type": "event"
    },
    {
      "anonymous": false,
      "inputs": [],
      "name": "Paused",
      "type": "event"
    },
    {
      "anonymous": false,
      "inputs": [
        {
          "indexed": true,
          "internalType": "bytes32",
          "name": "role",
          "type": "bytes32"
        },
        {
          "indexed": true,
          "internalType": "bytes32",
          "name": "previousAdminRole",
          "type": "bytes32"
        },
        {
          "indexed": true,
          "internalType": "bytes32",
          "name": "newAdminRole",
          "type": "bytes32"
        }
      ],
      "name": "RoleAdminChanged",
      "type": "event"
    },
    {
      "anonymous": false,
      "inputs": [
        {
          "indexed": true,
          "internalType": "bytes32",
          "name": "role",
          "type": "bytes32"
        },
        {
          "indexed": true,
          "internalType": "address",
          "name": "account",
          "type": "address"
        },
        {
          "indexed": true,
          "internalType": "address",
          "name": "sender",
          "type": "address"
        }
      ],
      "name": "RoleGranted",
      "type": "event"
    },
    {
      "anonymous": false,
      "inputs": [
        {
          "indexed": true,
          "internalType": "bytes32",
          "name": "role",
          "type": "bytes32"
        },
        {
          "indexed": true,
          "internalType": "address",
          "name": "account",
          "type": "address"
        },
        {
          "indexed": true,
          "internalType": "address",
          "name": "sender",
          "type": "address"
        }
      ],
      "name": "RoleRevoked",
      "type": "event"
    },
    {
      "anonymous": false,
      "inputs": [
        {
          "indexed": true,
          "internalType": "address",
          "name": "_usr",
          "type": "address"
        },
        {
          "indexed": false,
          "internalType": "bytes32",
          "name": "_packageName",
          "type": "bytes32"
        },
        {
          "indexed": false,
          "internalType": "uint256",
          "name": "_amount",
          "type": "uint256"
        },
        {
          "indexed": false,
          "internalType": "uint16",
          "name": "_stakeRewardType",
          "type": "uint16"
        },
        {
          "indexed": false,
          "internalType": "uint256",
          "name": "_stakeIndex",
          "type": "uint256"
        }
      ],
      "name": "StakeAdded",
      "type": "event"
    },
    {
      "anonymous": false,
      "inputs": [],
      "name": "Unpaused",
      "type": "event"
    },
    {
      "anonymous": false,
      "inputs": [
        {
          "indexed": true,
          "internalType": "address",
          "name": "_usr",
          "type": "address"
        },
        {
          "indexed": false,
          "internalType": "uint256",
          "name": "stakeIndex",
          "type": "uint256"
        }
      ],
      "name": "Unstaked",
      "type": "event"
    },
    {
      "inputs": [],
      "name": "CLIQ",
      "outputs": [
        {
          "internalType": "contract IERC20",
          "name": "",
          "type": "address"
        }
      ],
      "stateMutability": "view",
      "type": "function"
    },
    {
      "inputs": [],
      "name": "DEFAULT_ADMIN_ROLE",
      "outputs": [
        {
          "internalType": "bytes32",
          "name": "",
          "type": "bytes32"
        }
      ],
      "stateMutability": "view",
      "type": "function"
    },
    {
      "inputs": [],
      "name": "NAME",
      "outputs": [
        {
          "internalType": "string",
          "name": "",
          "type": "string"
        }
      ],
      "stateMutability": "view",
      "type": "function"
    },
    {
      "inputs": [],
      "name": "REWARD_PROVIDER",
      "outputs": [
        {
          "internalType": "bytes32",
          "name": "",
          "type": "bytes32"
        }
      ],
      "stateMutability": "view",
      "type": "function"
    },
    {
      "inputs": [
        {
          "internalType": "bytes32",
          "name": "role",
          "type": "bytes32"
        }
      ],
      "name": "getRoleAdmin",
      "outputs": [
        {
          "internalType": "bytes32",
          "name": "",
          "type": "bytes32"
        }
      ],
      "stateMutability": "view",
      "type": "function"
    },
    {
      "inputs": [
        {
          "internalType": "bytes32",
          "name": "role",
          "type": "bytes32"
        },
        {
          "internalType": "uint256",
          "name": "index",
          "type": "uint256"
        }
      ],
      "name": "getRoleMember",
      "outputs": [
        {
          "internalType": "address",
          "name": "",
          "type": "address"
        }
      ],
      "stateMutability": "view",
      "type": "function"
    },
    {
      "inputs": [
        {
          "internalType": "bytes32",
          "name": "role",
          "type": "bytes32"
        }
      ],
      "name": "getRoleMemberCount",
      "outputs": [
        {
          "internalType": "uint256",
          "name": "",
          "type": "uint256"
        }
      ],
      "stateMutability": "view",
      "type": "function"
    },
    {
      "inputs": [
        {
          "internalType": "bytes32",
          "name": "role",
          "type": "bytes32"
        },
        {
          "internalType": "address",
          "name": "account",
          "type": "address"
        }
      ],
      "name": "grantRole",
      "outputs": [],
      "stateMutability": "nonpayable",
      "type": "function"
    },
    {
      "inputs": [
        {
          "internalType": "bytes32",
          "name": "role",
          "type": "bytes32"
        },
        {
          "internalType": "address",
          "name": "account",
          "type": "address"
        }
      ],
      "name": "hasRole",
      "outputs": [
        {
          "internalType": "bool",
          "name": "",
          "type": "bool"
        }
      ],
      "stateMutability": "view",
      "type": "function"
    },
    {
      "inputs": [
        {
          "internalType": "address",
          "name": "",
          "type": "address"
        }
      ],
      "name": "hasStaked",
      "outputs": [
        {
          "internalType": "bool",
          "name": "",
          "type": "bool"
        }
      ],
      "stateMutability": "view",
      "type": "function"
    },
    {
      "inputs": [
        {
          "internalType": "uint256",
          "name": "",
          "type": "uint256"
        }
      ],
      "name": "packageNames",
      "outputs": [
        {
          "internalType": "bytes32",
          "name": "",
          "type": "bytes32"
        }
      ],
      "stateMutability": "view",
      "type": "function"
    },
    {
      "inputs": [
        {
          "internalType": "bytes32",
          "name": "",
          "type": "bytes32"
        }
      ],
      "name": "packages",
      "outputs": [
        {
          "internalType": "bytes32",
          "name": "_packageName",
          "type": "bytes32"
        },
        {
          "internalType": "uint256",
          "name": "_daysLocked",
          "type": "uint256"
        },
        {
          "internalType": "uint256",
          "name": "_daysBlocked",
          "type": "uint256"
        },
        {
          "internalType": "uint256",
          "name": "_packageInterest",
          "type": "uint256"
        },
        {
          "internalType": "uint256",
          "name": "_packageCliqReward",
          "type": "uint256"
        }
      ],
      "stateMutability": "view",
      "type": "function"
    },
    {
      "inputs": [],
      "name": "paused",
      "outputs": [
        {
          "internalType": "bool",
          "name": "",
          "type": "bool"
        }
      ],
      "stateMutability": "view",
      "type": "function"
    },
    {
      "inputs": [
        {
          "internalType": "bytes32",
          "name": "role",
          "type": "bytes32"
        },
        {
          "internalType": "address",
          "name": "account",
          "type": "address"
        }
      ],
      "name": "renounceRole",
      "outputs": [],
      "stateMutability": "nonpayable",
      "type": "function"
    },
    {
      "inputs": [
        {
          "internalType": "bytes32",
          "name": "role",
          "type": "bytes32"
        },
        {
          "internalType": "address",
          "name": "account",
          "type": "address"
        }
      ],
      "name": "revokeRole",
      "outputs": [],
      "stateMutability": "nonpayable",
      "type": "function"
    },
    {
      "inputs": [
        {
          "internalType": "address",
          "name": "",
          "type": "address"
        },
        {
          "internalType": "uint256",
          "name": "",
          "type": "uint256"
        }
      ],
      "name": "stakes",
      "outputs": [
        {
          "internalType": "uint256",
          "name": "_amount",
          "type": "uint256"
        },
        {
          "internalType": "uint256",
          "name": "_timestamp",
          "type": "uint256"
        },
        {
          "internalType": "bytes32",
          "name": "_packageName",
          "type": "bytes32"
        },
        {
          "internalType": "uint256",
          "name": "_withdrawnTimestamp",
          "type": "uint256"
        },
        {
          "internalType": "uint16",
          "name": "_stakeRewardType",
          "type": "uint16"
        }
      ],
      "stateMutability": "view",
      "type": "function"
    },
    {
      "inputs": [],
      "name": "tokenContract",
      "outputs": [
        {
          "internalType": "contract IERC20",
          "name": "",
          "type": "address"
        }
      ],
      "stateMutability": "view",
      "type": "function"
    },
    {
      "inputs": [
        {
          "internalType": "address",
          "name": "",
          "type": "address"
        }
      ],
      "name": "totalStakedBalance",
      "outputs": [
        {
          "internalType": "uint256",
          "name": "",
          "type": "uint256"
        }
      ],
      "stateMutability": "view",
      "type": "function"
    },
    {
      "inputs": [],
      "name": "totalStakedFunds",
      "outputs": [
        {
          "internalType": "uint256",
          "name": "",
          "type": "uint256"
        }
      ],
      "stateMutability": "view",
      "type": "function"
    },
    {
      "inputs": [
        {
          "internalType": "address",
          "name": "_address",
          "type": "address"
        }
      ],
      "name": "stakesLength",
      "outputs": [
        {
          "internalType": "uint256",
          "name": "",
          "type": "uint256"
        }
      ],
      "stateMutability": "view",
      "type": "function"
    },
    {
      "inputs": [],
      "name": "packageLength",
      "outputs": [
        {
          "internalType": "uint256",
          "name": "",
          "type": "uint256"
        }
      ],
      "stateMutability": "view",
      "type": "function"
    },
    {
      "inputs": [
        {
          "internalType": "uint256",
          "name": "_amount",
          "type": "uint256"
        },
        {
          "internalType": "bytes32",
          "name": "_packageName",
          "type": "bytes32"
        },
        {
          "internalType": "uint16",
          "name": "_stakeRewardType",
          "type": "uint16"
        }
      ],
      "name": "stakeTokens",
      "outputs": [],
      "stateMutability": "nonpayable",
      "type": "function"
    },
    {
      "inputs": [
        {
          "internalType": "address",
          "name": "_address",
          "type": "address"
        },
        {
          "internalType": "uint256",
          "name": "stakeIndex",
          "type": "uint256"
        }
      ],
      "name": "checkStakeReward",
      "outputs": [
        {
          "internalType": "uint256",
          "name": "yieldReward",
          "type": "uint256"
        },
        {
          "internalType": "uint256",
          "name": "timeDiff",
          "type": "uint256"
        }
      ],
      "stateMutability": "view",
      "type": "function"
    },
    {
      "inputs": [
        {
          "internalType": "address",
          "name": "_address",
          "type": "address"
        },
        {
          "internalType": "uint256",
          "name": "stakeIndex",
          "type": "uint256"
        }
      ],
      "name": "checkStakeCliqReward",
      "outputs": [
        {
          "internalType": "uint256",
          "name": "yieldReward",
          "type": "uint256"
        },
        {
          "internalType": "uint256",
          "name": "timeDiff",
          "type": "uint256"
        }
      ],
      "stateMutability": "view",
      "type": "function"
    },
    {
      "inputs": [
        {
          "internalType": "uint256",
          "name": "stakeIndex",
          "type": "uint256"
        }
      ],
      "name": "unstake",
      "outputs": [],
      "stateMutability": "nonpayable",
      "type": "function"
    },
    {
      "inputs": [
        {
          "internalType": "uint256",
          "name": "stakeIndex",
          "type": "uint256"
        }
      ],
      "name": "forceWithdraw",
      "outputs": [],
      "stateMutability": "nonpayable",
      "type": "function"
    },
    {
      "inputs": [],
      "name": "pauseStaking",
      "outputs": [],
      "stateMutability": "nonpayable",
      "type": "function"
    },
    {
      "inputs": [],
      "name": "unpauseStaking",
      "outputs": [],
      "stateMutability": "nonpayable",
      "type": "function"
    },
    {
      "inputs": [
        {
          "internalType": "uint256",
          "name": "_amount",
          "type": "uint256"
        }
      ],
      "name": "addStakedTokenReward",
      "outputs": [
        {
          "internalType": "bool",
          "name": "",
          "type": "bool"
        }
      ],
      "stateMutability": "nonpayable",
      "type": "function"
    },
    {
      "inputs": [
        {
          "internalType": "uint256",
          "name": "_amount",
          "type": "uint256"
        }
      ],
      "name": "removeStakedTokenReward",
      "outputs": [
        {
          "internalType": "bool",
          "name": "",
          "type": "bool"
        }
      ],
      "stateMutability": "nonpayable",
      "type": "function"
    }
  ],
  "bytecode": "0x608060405260126004556000600b819055600c55620f4240600d55600e805460ff191690553480156200003157600080fd5b5060405162002c5c38038062002c5c833981810160405260408110156200005757600080fd5b508051602090910151620000886000620000796401000000006200017a810204565b6401000000006200017e810204565b60018054600160a060020a03808516600160a060020a0319928316179092556002805492841692909116919091179055620000f67f53696c766572205061636b616765000000000000000000000000000000000000601e600f6008620f424064010000000062000197810204565b620001347f476f6c64205061636b6167650000000000000000000000000000000000000000603c601e60126216e36064010000000062000197810204565b620001727f506c6174696e756d205061636b61676500000000000000000000000000000000605a602d601e621e848064010000000062000197810204565b505062000379565b3390565b62000193828264010000000062000229810204565b5050565b620001a162000347565b8581526020808201958652606082019384526080820192835260408083019586526000888152600590925281209151825594516001808301919091559351600282015591516003808401919091559051600490920191909155805491820181559091527fc2575a0e9e593c00f959f8c92f12db2869c3395a3b0502d05e2516446f71f85b0155565b600082815260208190526040902062000251908264010000000062002011620002ae82021704565b1562000193576200026a6401000000006200017a810204565b600160a060020a031681600160a060020a0316837f2f8788117e7eff1d82e926ec794901d17c78024a50270940304540a733656f0d60405160405180910390a45050565b6000620002ce83600160a060020a038416640100000000620002d7810204565b90505b92915050565b6000620002ee83836401000000006200032f810204565b6200032657508154600181810184556000848152602080822090930184905584548482528286019093526040902091909155620002d1565b506000620002d1565b60009081526001919091016020526040902054151590565b6040518060a0016040528060008019168152602001600081526020016000815260200160008152602001600081525090565b6128d380620003896000396000f3fe608060405234801561001057600080fd5b50600436106101de5760003560e060020a9004806377e62a3011610108578063a217fddf116100a6578063ca15c87311610075578063ca15c873146105bf578063cb2b0d61146105dc578063d547741f14610609578063f999c50614610635576101de565b8063a217fddf1461050c578063a3f4df7e14610514578063bc6a897e14610591578063c93c8f3414610599576101de565b8063864792b4116100e2578063864792b4146104895780639010d07c146104b557806391d14854146104d857806393f4bcde14610504576101de565b806377e62a30146104295780637c329830146104465780637e0391531461046c576101de565b806336568abe11610180578063584b62a11161014f578063584b62a1146103395780635925e37e146103945780635c975abb146103d957806371102819146103e1576101de565b806336568abe146102ae57806349fc9df7146102da5780634d85bd9f1461030057806355a373d614610331576101de565b80631faee868116101bc5780631faee86814610240578063248a9ca3146102485780632e17de78146102655780632f2ff15d14610282576101de565b80630fcc56f7146101e357806318ec2d5c146102025780631e1cb7321461021c575b600080fd5b610200600480360360208110156101f957600080fd5b503561063d565b005b61020a6109cd565b60408051918252519081900360200190f35b6102246109d3565b60408051600160a060020a039092168252519081900360200190f35b61020a6109e2565b61020a6004803603602081101561025e57600080fd5b50356109e8565b6102006004803603602081101561027b57600080fd5b50356109fd565b6102006004803603604081101561029857600080fd5b5080359060200135600160a060020a0316611087565b610200600480360360408110156102c457600080fd5b5080359060200135600160a060020a03166110f6565b61020a600480360360208110156102f057600080fd5b5035600160a060020a031661115a565b61031d6004803603602081101561031657600080fd5b5035611175565b604080519115158252519081900360200190f35b610224611322565b6103656004803603604081101561034f57600080fd5b50600160a060020a038135169060200135611331565b60408051958652602086019490945284840192909252606084015261ffff166080830152519081900360a00190f35b6103c0600480360360408110156103aa57600080fd5b50600160a060020a038135169060200135611383565b6040805192835260208301919091528051918290030190f35b61031d611612565b6103fe600480360360208110156103f757600080fd5b503561161b565b6040805195865260208601949094528484019290925260608401526080830152519081900360a00190f35b61020a6004803603602081101561043f57600080fd5b503561164a565b61020a6004803603602081101561045c57600080fd5b5035600160a060020a031661166b565b61031d6004803603602081101561048257600080fd5b503561167d565b6103c06004803603604081101561049f57600080fd5b50600160a060020a0381351690602001356117d6565b610224600480360360408110156104cb57600080fd5b5080359060200135611a72565b61031d600480360360408110156104ee57600080fd5b5080359060200135600160a060020a0316611a93565b610200611aab565b61020a611b2b565b61051c611b30565b6040805160208082528351818301528351919283929083019185019080838360005b8381101561055657818101518382015260200161053e565b50505050905090810190601f1680156105835780820380516001836020036101000a031916815260200191505b509250505060405180910390f35b61020a611b69565b61031d600480360360208110156105af57600080fd5b5035600160a060020a0316611b8d565b61020a600480360360208110156105d557600080fd5b5035611ba2565b610200600480360360608110156105f257600080fd5b508035906020810135906040013561ffff16611bb9565b6102006004803603604081101561061f57600080fd5b5080359060200135600160a060020a0316611f32565b610200611f8e565b33600090815260076020526040812080548390811061065857fe5b906000526020600020906005020160000154116106a95760405160e560020a62461bcd02815260040180806020018281038252602e815260200180612794602e913960400191505060405180910390fd5b3360009081526007602052604090208054829081106106c457fe5b90600052602060002090600502016003015460001461072d576040805160e560020a62461bcd02815260206004820152601760248201527f5374616b6520616c72656164792077697468647261776e000000000000000000604482015290519081900360640190fd5b33600090815260076020526040902080544291908390811061074b57fe5b9060005260206000209060050201600301819055506107ad6007600033600160a060020a0316600160a060020a03168152602001908152602001600020828154811061079357fe5b6000918252602090912060059091020154600c5490612026565b600c5533600090815260076020526040902080546107f79190839081106107d057fe5b60009182526020808320600590920290910154338352600690915260409091205490612026565b3360009081526006602090815260408083209390935560079052908120805461085591620151809161084f91908690811061082e57fe5b9060005260206000209060050201600101544261202690919063ffffffff16565b90612068565b33600090815260076020526040812080549293506005928590811061087657fe5b90600052602060002090600502016002015481526020019081526020016000206002015481116108da5760405160e560020a62461bcd0281526004018080602001828103825260308152602001806126116030913960400191505060405180910390fd5b6001543360008181526007602052604090208054600160a060020a039093169263a9059cbb9291908690811061090c57fe5b9060005260206000209060050201600001546040518363ffffffff1660e060020a0281526004018083600160a060020a0316815260200182815260200192505050602060405180830381600087803b15801561096757600080fd5b505af115801561097b573d6000803e3d6000fd5b505050506040513d602081101561099157600080fd5b505060408051838152905133917ff27a813adb5fa3a82c2cb4437f5e7ee7576c37b8c7e386a735b6864bc3fcee43919081900360200190a25050565b600c5481565b600254600160a060020a031681565b60035490565b60009081526020819052604090206002015490565b336000908152600760205260409020548110610a4d5760405160e560020a62461bcd02815260040180806020018281038252602e815260200180612794602e913960400191505060405180910390fd5b336000908152600760205260409020805482908110610a6857fe5b906000526020600020906005020160030154600014610ad1576040805160e560020a62461bcd02815260206004820152601760248201527f5374616b6520616c72656164792077697468647261776e000000000000000000604482015290519081900360640190fd5b3360009081526007602052604090208054610af191908390811061079357fe5b600c553360009081526007602052604090208054610b149190839081106107d057fe5b336000908152600660209081526040808320939093556007905220805442919083908110610b3e57fe5b6000918252602080832060036005909302019190910192909255338152600790915260409020805482908110610b7057fe5b600091825260209091206004600590920201015461ffff16610d5157600080610b9933846117d6565b9150915081600b5411610be05760405160e560020a62461bcd0281526004018080602001828103825260588152602001806127ea6058913960600191505060405180910390fd5b3360009081526007602052604081208054600592919086908110610c0057fe5b9060005260206000209060050201600201548152602001908152602001600020600201548111610c645760405160e560020a62461bcd0281526004018080602001828103825260308152602001806126116030913960400191505060405180910390fd5b600b54610c719083612026565b600b553360009081526007602052604081208054610cac91859187908110610c9557fe5b6000918252602090912060059091020154906120aa565b600154604080517fa9059cbb000000000000000000000000000000000000000000000000000000008152336004820152602481018490529051929350600160a060020a039091169163a9059cbb916044808201926020929091908290030181600087803b158015610d1c57600080fd5b505af1158015610d30573d6000803e3d6000fd5b505050506040513d6020811015610d4657600080fd5b5061104e9350505050565b336000908152600760205260409020805482908110610d6c57fe5b600091825260209091206004600590920201015461ffff16600114156101de57600080610d993384611383565b600254604080517f70a0823100000000000000000000000000000000000000000000000000000000815230600482015290519395509193508492600160a060020a03909116916370a08231916024808301926020929190829003018186803b158015610e0457600080fd5b505afa158015610e18573d6000803e3d6000fd5b505050506040513d6020811015610e2e57600080fd5b50511015610e705760405160e560020a62461bcd0281526004018080602001828103825260438152602001806127516043913960600191505060405180910390fd5b3360009081526007602052604081208054600592919086908110610e9057fe5b9060005260206000209060050201600201548152602001908152602001600020600201548111610ef45760405160e560020a62461bcd0281526004018080602001828103825260308152602001806126116030913960400191505060405180910390fd5b600254604080517fa9059cbb000000000000000000000000000000000000000000000000000000008152336004820152602481018590529051600160a060020a039092169163a9059cbb916044808201926020929091908290030181600087803b158015610f6157600080fd5b505af1158015610f75573d6000803e3d6000fd5b505050506040513d6020811015610f8b57600080fd5b50506001543360008181526007602052604090208054600160a060020a039093169263a9059cbb92919087908110610fbf57fe5b9060005260206000209060050201600001546040518363ffffffff1660e060020a0281526004018083600160a060020a0316815260200182815260200192505050602060405180830381600087803b15801561101a57600080fd5b505af115801561102e573d6000803e3d6000fd5b505050506040513d602081101561104457600080fd5b5061104e92505050565b60408051828152905133917f0f5bb82176feb1b5e747e28471aa92156a04d9f3ab9f45f28e2d704232b93f75919081900360200190a250565b6000828152602081905260409020600201546110aa906110a5612107565b611a93565b6110e85760405160e560020a62461bcd02815260040180806020018281038252602f815260200180612568602f913960400191505060405180910390fd5b6110f2828261210b565b5050565b6110fe612107565b600160a060020a031681600160a060020a0316146111505760405160e560020a62461bcd02815260040180806020018281038252602f81526020018061286f602f913960400191505060405180910390fd5b6110f28282612174565b600160a060020a031660009081526007602052604090205490565b60006111a37fe56e19a7d558c827e5fe3dd17249e3d1e70e83b18ea8e11167d41e0a83cdd1686110a5612107565b6111e15760405160e560020a62461bcd02815260040180806020018281038252602d815260200180612842602d913960400191505060405180910390fd5b600b5482111561123b576040805160e560020a62461bcd02815260206004820152601f60248201527f796f752063616e6e6f74207769746864726177207468697320616d6f756e7400604482015290519081900360640190fd5b600b546112489083612026565b600b55600154604080517fa9059cbb000000000000000000000000000000000000000000000000000000008152336004820152602481018590529051600160a060020a039092169163a9059cbb916044808201926020929091908290030181600087803b1580156112b857600080fd5b505af11580156112cc573d6000803e3d6000fd5b505050506040513d60208110156112e257600080fd5b505060408051838152905133917fa3778e112275f3f7c5cfcc393b49b87cf6cd7aeaac223796b6f00dbf85457d69919081900360200190a2506001919050565b600154600160a060020a031681565b6007602052816000526040600020818154811061134d57600080fd5b600091825260209091206005909102018054600182015460028301546003840154600490940154929550909350919061ffff1685565b600160a060020a03821660009081526007602052604081208054829190849081106113aa57fe5b600091825260209091206004600590920201015461ffff166001146114035760405160e560020a62461bcd0281526004018080602001828103825260478152602001806125976047913960600191505060405180910390fd5b600160a060020a038416600090815260076020526040902080544291908590811061142a57fe5b90600052602060002090600502016003015460001461147c57600160a060020a038516600090815260076020526040902080548590811061146757fe5b90600052602060002090600502016003015490505b600160a060020a03851660009081526007602052604081208054869081106114a057fe5b9060005260206000209060050201600101549050600060056000600760008a600160a060020a0316600160a060020a0316815260200190815260200160002088815481106114ea57fe5b9060005260206000209060050201600201548152602001908152602001600020600101549050600060056000600760008b600160a060020a0316600160a060020a03168152602001908152602001600020898154811061154657fe5b90600052602060002090600502016002015481526020019081526020016000206004015490506115866201518061084f858761202690919063ffffffff16565b945060006115948684612068565b90506115e182600760008c600160a060020a0316600160a060020a031681526020019081526020016000208a815481106115ca57fe5b6000918252602090912060059091020154906121dd565b96506115f8600d548861206890919063ffffffff16565b965061160487826121dd565b965050505050509250929050565b600e5460ff1681565b600560205260009081526040902080546001820154600283015460038401546004909401549293919290919085565b6003818154811061165a57600080fd5b600091825260209091200154905081565b60066020526000908152604090205481565b60006116ab7fe56e19a7d558c827e5fe3dd17249e3d1e70e83b18ea8e11167d41e0a83cdd1686110a5612107565b6116e95760405160e560020a62461bcd02815260040180806020018281038252602d815260200180612842602d913960400191505060405180910390fd5b600b546116f690836120aa565b600b55600154604080517f23b872dd000000000000000000000000000000000000000000000000000000008152336004820152306024820152604481018590529051600160a060020a03909216916323b872dd916064808201926020929091908290030181600087803b15801561176c57600080fd5b505af1158015611780573d6000803e3d6000fd5b505050506040513d602081101561179657600080fd5b505060408051838152905133917fa85a1296a1d1807b2a16e05fdd913aa7729945e7c59b8f3526fbc7f84eb8c048919081900360200190a2506001919050565b600160a060020a03821660009081526007602052604081208054829190849081106117fd57fe5b600091825260209091206004600590920201015461ffff16156118545760405160e560020a62461bcd02815260040180806020018281038252603f815260200180612694603f913960400191505060405180910390fd5b600160a060020a038416600090815260076020526040902080544291908590811061187b57fe5b9060005260206000209060050201600301546000146118cd57600160a060020a03851660009081526007602052604090208054859081106118b857fe5b90600052602060002090600502016003015490505b600160a060020a03851660009081526007602052604081208054869081106118f157fe5b9060005260206000209060050201600101549050600060056000600760008a600160a060020a0316600160a060020a03168152602001908152602001600020888154811061193b57fe5b9060005260206000209060050201600201548152602001908152602001600020600101549050600060056000600760008b600160a060020a0316600160a060020a03168152602001908152602001600020898154811061199757fe5b90600052602060002090600502016002015481526020019081526020016000206003015490506119d76201518061084f858761202690919063ffffffff16565b945060006119e58684612068565b600160a060020a038a16600090815260076020526040812080549199509192508891908a908110611a1257fe5b90600052602060002090600502016000015490505b8115611a65576000611a3e606461084f84876121dd565b9050611a4a82826120aa565b9150611a5689826120aa565b98505060001990910190611a27565b5050505050509250929050565b6000828152602081905260408120611a8a9083612239565b90505b92915050565b6000828152602081905260408120611a8a9083612245565b611ab860006110a5612107565b611af65760405160e560020a62461bcd0281526004018080602001828103825260288152602001806127c26028913960400191505060405180910390fd5b600e805460ff191690556040517fa45f47fdea8a1efdd9029a5691c7f759c32b7c698632b563573e155625d1693390600090a1565b600081565b6040518060400160405280601581526020017f436c6971205374616b696e6720436f6e7472616374000000000000000000000081525081565b7fe56e19a7d558c827e5fe3dd17249e3d1e70e83b18ea8e11167d41e0a83cdd16881565b60086020526000908152604090205460ff1681565b6000818152602081905260408120611a8d9061225a565b600e5460ff1615611c14576040805160e560020a62461bcd02815260206004820152601260248201527f5374616b696e6720697320207061757365640000000000000000000000000000604482015290519081900360640190fd5b60008311611c565760405160e560020a62461bcd0281526004018080602001828103825260238152602001806126416023913960400191505060405180910390fd5b600082815260056020526040902060010154611ca65760405160e560020a62461bcd02815260040180806020018281038252605d8152602001806126d3605d913960600191505060405180910390fd5b61ffff81161580611cbb57508061ffff166001145b611cf95760405160e560020a62461bcd0281526004018080602001828103825260338152602001806125de6033913960400191505060405180910390fd5b33600090815260066020526040902054611d1390846120aa565b33600090815260066020526040902055611d2b61250f565b838152426020808301918252604080840186815261ffff8681166080870190815260006060880181815233808352600788528683208054600180820183559185528985208c516005909202019081559951908a01559451600289015551600388015590516004909601805461ffff1916969092169590951790558352600890915290205460ff16611e0657600a80546001810182556000919091527fc65a7bb8d6351c1cf70c95a316cc6a92839c986682d98bc35f958f4883f9d2a801805473ffffffffffffffffffffffffffffffffffffffff1916331790555b336000908152600860205260409020805460ff19166001179055600c54611e2d90856120aa565b600c55600154604080517f23b872dd000000000000000000000000000000000000000000000000000000008152336004820152306024820152604481018790529051600160a060020a03909216916323b872dd916064808201926020929091908290030181600087803b158015611ea357600080fd5b505af1158015611eb7573d6000803e3d6000fd5b505050506040513d6020811015611ecd57600080fd5b50503360008181526007602090815260409182902054825187815291820188905261ffff86168284015260001901606082015290517f1a48069d0547cc392ac119894ca10b48ec87b6f2e68b12c1abc2c7e641c45d429181900360800190a250505050565b600082815260208190526040902060020154611f50906110a5612107565b6111505760405160e560020a62461bcd0281526004018080602001828103825260308152602001806126646030913960400191505060405180910390fd5b611f9b60006110a5612107565b611fd95760405160e560020a62461bcd0281526004018080602001828103825260288152602001806127c26028913960400191505060405180910390fd5b600e805460ff191660011790556040517f9e87fac88ff661f02d44f95383c817fece4bce600a3dab7a54406878b965e75290600090a1565b6000611a8a83600160a060020a038416612265565b6000611a8a83836040518060400160405280601e81526020017f536166654d6174683a207375627472616374696f6e206f766572666c6f7700008152506122af565b6000611a8a83836040518060400160405280601a81526020017f536166654d6174683a206469766973696f6e206279207a65726f000000000000815250612349565b600082820183811015611a8a576040805160e560020a62461bcd02815260206004820152601b60248201527f536166654d6174683a206164646974696f6e206f766572666c6f770000000000604482015290519081900360640190fd5b3390565b60008281526020819052604090206121239082612011565b156110f257612130612107565b600160a060020a031681600160a060020a0316837f2f8788117e7eff1d82e926ec794901d17c78024a50270940304540a733656f0d60405160405180910390a45050565b600082815260208190526040902061218c90826123b1565b156110f257612199612107565b600160a060020a031681600160a060020a0316837ff6391f5c32d9c69d2a47ea670b442974b53935d1edc7fd64eb21e047a839171b60405160405180910390a45050565b6000826121ec57506000611a8d565b828202828482816121f957fe5b0414611a8a5760405160e560020a62461bcd0281526004018080602001828103825260218152602001806127306021913960400191505060405180910390fd5b6000611a8a83836123c6565b6000611a8a83600160a060020a03841661242d565b6000611a8d82612445565b6000612271838361242d565b6122a757508154600181810184556000848152602080822090930184905584548482528286019093526040902091909155611a8d565b506000611a8d565b600081848411156123415760405160e560020a62461bcd0281526004018080602001828103825283818151815260200191508051906020019080838360005b838110156123065781810151838201526020016122ee565b50505050905090810190601f1680156123335780820380516001836020036101000a031916815260200191505b509250505060405180910390fd5b505050900390565b6000818361239b5760405160e560020a62461bcd0281526020600482018181528351602484015283519092839260449091019190850190808383600083156123065781810151838201526020016122ee565b5060008385816123a757fe5b0495945050505050565b6000611a8a83600160a060020a038416612449565b8154600090821061240b5760405160e560020a62461bcd0281526004018080602001828103825260228152602001806125466022913960400191505060405180910390fd5b82600001828154811061241a57fe5b9060005260206000200154905092915050565b60009081526001919091016020526040902054151590565b5490565b60008181526001830160205260408120548015612505578354600019808301919081019060009087908390811061247c57fe5b906000526020600020015490508087600001848154811061249957fe5b6000918252602080832090910192909255828152600189810190925260409020908401905586548790806124c957fe5b60019003818190600052602060002001600090559055866001016000878152602001908152602001600020600090556001945050505050611a8d565b6000915050611a8d565b6040518060a0016040528060008152602001600081526020016000801916815260200160008152602001600061ffff168152509056fe456e756d657261626c655365743a20696e646578206f7574206f6620626f756e6473416363657373436f6e74726f6c3a2073656e646572206d75737420626520616e2061646d696e20746f206772616e7475736520636865636b5374616b6552657761726420666f72207374616b657320616363756d756c6174696e672072657761726420696e20746865204e617469766520546f6b656e7265776172642074797065206e6f74206b6e6f776e3a2030206973206e617469766520746f6b656e2c203120697320434c495163616e6e6f7420756e7374616b6520736f6f6e6572207468616e2074686520626c6f636b65642074696d652074696d65207374616b65206120706f736974697665206e756d626572206f6620746f6b656e7320416363657373436f6e74726f6c3a2073656e646572206d75737420626520616e2061646d696e20746f207265766f6b6575736520636865636b5374616b65436c697152657761726420666f72207374616b657320616363756d756c6174696e672072657761726420696e20434c49517468657265206973206e6f207374616b696e67207061636b616765207769746820746865206465636c61726564206e616d652c206f7220746865207374616b696e67207061636b61676520697320706f6f726c7920666f726d61746564536166654d6174683a206d756c7469706c69636174696f6e206f766572666c6f777468652069736e277420656e6f75676820434c495120696e207468697320636f6e747261637420746f2070617920796f757220726577617264207269676874206e6f77546865207374616b6520796f752061726520736561726368696e6720666f72206973206e6f7420646566696e656463616c6c657220646f6573206e6f74206861766520746865204d61696e7461696e657220726f6c65546f6b656e2063726561746f727320646964206e6f7420706c61636520656e6f756768206c697175696469747920696e2074686520636f6e747261637420666f7220796f75722072657761726420746f206265207061696463616c6c657220646f6573206e6f74206861766520746865205245574152445f50524f564944455220726f6c65416363657373436f6e74726f6c3a2063616e206f6e6c792072656e6f756e636520726f6c657320666f722073656c66a2646970667358221220e2c045eed5b2c283f95d1f67d2105268d196198188f81e8cac25a2e5452b91a164736f6c63430007060033",
  "immutableReferences": {},
  "source": "// SPDX-License-Identifier: GPL-3.0\npragma solidity ^0.7.4;\n\nimport \"@openzeppelin/contracts/access/AccessControl.sol\";\nimport \"@openzeppelin/contracts/token/ERC20/IERC20.sol\";\nimport \"@openzeppelin/contracts/math/SafeMath.sol\";\n\ncontract CliqStaking is AccessControl {\n    using SafeMath for uint256;\n\n    string public constant NAME = \"Cliq Staking Contract\";\n    bytes32 public constant REWARD_PROVIDER = keccak256(\"REWARD_PROVIDER\"); // i upgraded solc and used REWARD_PROVIDER instead of whitelist role and DEFAULT_ADMIN_ROLE instead of whiteloist admin\n    uint256 private constant TIME_UNIT = 86400;\n    // we can improve this with a \"unstaked:false\" flag when the user force withdraws the funds\n    // so he can collect the reward later\n    struct Stake {\n        uint256 _amount;\n        uint256 _timestamp;\n        bytes32 _packageName;\n        uint256 _withdrawnTimestamp;\n        uint16 _stakeRewardType; // 0 for native coin reward, 1 for CLIQ stake reward\n    }\n\n    struct YieldType {\n        bytes32 _packageName;\n        uint256 _daysLocked;\n        uint256 _daysBlocked;\n        uint256 _packageInterest;\n        uint256 _packageCliqReward; // the number of cliq token received for each native token staked\n    }\n\n    IERC20 public tokenContract;\n    IERC20 public CLIQ;\n\n    bytes32[] public packageNames;\n    uint256 decimals = 18;\n    mapping(bytes32 => YieldType) public packages;\n    mapping(address => uint256) public totalStakedBalance;\n    mapping(address => Stake[]) public stakes;\n    mapping(address => bool) public hasStaked;\n    address private owner;\n    address[] stakers;\n    uint256 rewardProviderTokenAllowance = 0;\n    uint256 public totalStakedFunds = 0;\n    uint256 cliqRewardUnits = 1000000; // ciq reward for 1.000.000 tokens staked\n    bool public paused = false;\n\n    event NativeTokenRewardAdded(address indexed _from, uint256 _val);\n    event NativeTokenRewardRemoved(address indexed _to, uint256 _val);\n    event StakeAdded(\n        address indexed _usr,\n        bytes32 _packageName,\n        uint256 _amount,\n        uint16 _stakeRewardType,\n        uint256 _stakeIndex\n    );\n    event Unstaked(address indexed _usr, uint256 stakeIndex);\n    event ForcefullyWithdrawn(address indexed _usr, uint256 stakeIndex);\n    event Paused();\n    event Unpaused();\n\n    modifier onlyRewardProvider() {\n        require(\n            hasRole(REWARD_PROVIDER, _msgSender()),\n            \"caller does not have the REWARD_PROVIDER role\"\n        );\n        _;\n    }\n\n    modifier onlyMaintainer() {\n        require(\n            hasRole(DEFAULT_ADMIN_ROLE, _msgSender()),\n            \"caller does not have the Maintainer role\"\n        );\n        _;\n    }\n\n    constructor(address _stakedToken, address _CLIQ) {\n        _setupRole(DEFAULT_ADMIN_ROLE, _msgSender());\n        tokenContract = IERC20(_stakedToken);\n        CLIQ = IERC20(_CLIQ);\n        //define packages here\n        _definePackage(\"Silver Package\", 30, 15, 8, 1000000); // in 30 days you receive: 15% of staked token OR 1 cliq for 1 token staked\n        _definePackage(\"Gold Package\", 60, 30, 18, 1500000); // 1.5 cliq for 1 token staked\n        _definePackage(\"Platinum Package\", 90, 45, 30, 2000000); // 2 cliq for 1 token staked\n    }\n\n    function stakesLength(address _address) external view returns (uint256) {\n        return stakes[_address].length;\n    }\n\n    function packageLength() external view returns (uint256) {\n        return packageNames.length;\n    }\n\n    function stakeTokens(\n        uint256 _amount,\n        bytes32 _packageName,\n        uint16 _stakeRewardType\n    ) public {\n        require(paused == false, \"Staking is  paused\");\n        require(_amount > 0, \" stake a positive number of tokens \");\n        require(\n            packages[_packageName]._daysLocked > 0,\n            \"there is no staking package with the declared name, or the staking package is poorly formated\"\n        );\n        require(\n            _stakeRewardType == 0 || _stakeRewardType == 1,\n            \"reward type not known: 0 is native token, 1 is CLIQ\"\n        );\n\n        //add to stake sum of address\n        totalStakedBalance[msg.sender] = totalStakedBalance[msg.sender].add(\n            _amount\n        );\n\n        //add to stakes\n        Stake memory currentStake;\n        currentStake._amount = _amount;\n        currentStake._timestamp = block.timestamp;\n        currentStake._packageName = _packageName;\n        currentStake._stakeRewardType = _stakeRewardType;\n        currentStake._withdrawnTimestamp = 0;\n        stakes[msg.sender].push(currentStake);\n\n        //if user is not declared as a staker, push him into the staker array\n        if (!hasStaked[msg.sender]) {\n            stakers.push(msg.sender);\n        }\n\n        //update the bool mapping of past and current stakers\n        hasStaked[msg.sender] = true;\n        totalStakedFunds = totalStakedFunds.add(_amount);\n\n        //transfer from (need allowance)\n        tokenContract.transferFrom(msg.sender, address(this), _amount);\n\n        StakeAdded(\n            msg.sender,\n            _packageName,\n            _amount,\n            _stakeRewardType,\n            stakes[msg.sender].length - 1\n        );\n    }\n\n    function checkStakeReward(address _address, uint256 stakeIndex)\n        public\n        view\n        returns (uint256 yieldReward, uint256 timeDiff)\n    {\n        require(\n            stakes[_address][stakeIndex]._stakeRewardType == 0,\n            \"use checkStakeCliqReward for stakes accumulating reward in CLIQ\"\n        );\n\n        uint256 currentTime = block.timestamp;\n        if (stakes[_address][stakeIndex]._withdrawnTimestamp != 0) {\n            currentTime = stakes[_address][stakeIndex]._withdrawnTimestamp;\n        }\n\n        uint256 stakingTime = stakes[_address][stakeIndex]._timestamp;\n        uint256 daysLocked =\n            packages[stakes[_address][stakeIndex]._packageName]._daysLocked;\n        uint256 packageInterest =\n            packages[stakes[_address][stakeIndex]._packageName]\n                ._packageInterest;\n\n        timeDiff = currentTime.sub(stakingTime).div(TIME_UNIT);\n\n        uint256 yieldPeriods = timeDiff.div(daysLocked); // the _days is in seconds for now so can fucking test stuff\n\n        yieldReward = 0;\n        uint256 totalStake = stakes[_address][stakeIndex]._amount;\n\n        // for each period of days defined in the package, compound the interest\n        while (yieldPeriods > 0) {\n            uint256 currentReward = totalStake.mul(packageInterest).div(100);\n\n            totalStake = totalStake.add(currentReward);\n\n            yieldReward = yieldReward.add(currentReward);\n\n            yieldPeriods--;\n        }\n    }\n\n    function checkStakeCliqReward(address _address, uint256 stakeIndex)\n        public\n        view\n        returns (uint256 yieldReward, uint256 timeDiff)\n    {\n        require(\n            stakes[_address][stakeIndex]._stakeRewardType == 1,\n            \"use checkStakeReward for stakes accumulating reward in the Native Token\"\n        );\n\n        uint256 currentTime = block.timestamp;\n        if (stakes[_address][stakeIndex]._withdrawnTimestamp != 0) {\n            currentTime = stakes[_address][stakeIndex]._withdrawnTimestamp;\n        }\n\n        uint256 stakingTime = stakes[_address][stakeIndex]._timestamp;\n        uint256 daysLocked =\n            packages[stakes[_address][stakeIndex]._packageName]._daysLocked;\n        uint256 packageCliqInterest =\n            packages[stakes[_address][stakeIndex]._packageName]\n                ._packageCliqReward;\n\n        timeDiff = currentTime.sub(stakingTime).div(TIME_UNIT);\n\n        uint256 yieldPeriods = timeDiff.div(daysLocked); // the _days is in seconds for now so i can fucking test stuff\n\n        yieldReward = stakes[_address][stakeIndex]._amount.mul(\n            packageCliqInterest\n        );\n\n        yieldReward = yieldReward.div(cliqRewardUnits);\n\n        yieldReward = yieldReward.mul(yieldPeriods);\n    }\n\n    function unstake(uint256 stakeIndex) public {\n        require(\n            stakeIndex < stakes[msg.sender].length,\n            \"The stake you are searching for is not defined\"\n        );\n        require(\n            stakes[msg.sender][stakeIndex]._withdrawnTimestamp == 0,\n            \"Stake already withdrawn\"\n        );\n\n        // decrease total balance\n        totalStakedFunds = totalStakedFunds.sub(\n            stakes[msg.sender][stakeIndex]._amount\n        );\n\n        //decrease user total staked balance\n        totalStakedBalance[msg.sender] = totalStakedBalance[msg.sender].sub(\n            stakes[msg.sender][stakeIndex]._amount\n        );\n\n        //close the staking package (fix the withdrawn timestamp)\n        stakes[msg.sender][stakeIndex]._withdrawnTimestamp = block.timestamp;\n\n        if (stakes[msg.sender][stakeIndex]._stakeRewardType == 0) {\n            (uint256 reward, uint256 daysSpent) =\n                checkStakeReward(msg.sender, stakeIndex);\n\n            require(\n                rewardProviderTokenAllowance > reward,\n                \"Token creators did not place enough liquidity in the contract for your reward to be paid\"\n            );\n\n            require(\n                daysSpent >\n                    packages[stakes[msg.sender][stakeIndex]._packageName]\n                        ._daysBlocked,\n                \"cannot unstake sooner than the blocked time time\"\n            );\n\n            rewardProviderTokenAllowance = rewardProviderTokenAllowance.sub(\n                reward\n            );\n\n            uint256 totalStake =\n                stakes[msg.sender][stakeIndex]._amount.add(reward);\n\n            tokenContract.transfer(msg.sender, totalStake);\n        } else if (stakes[msg.sender][stakeIndex]._stakeRewardType == 1) {\n            (uint256 cliqReward, uint256 daysSpent) =\n                checkStakeCliqReward(msg.sender, stakeIndex);\n\n            require(\n                CLIQ.balanceOf(address(this)) >= cliqReward,\n                \"the isn't enough CLIQ in this contract to pay your reward right now\"\n            );\n\n            require(\n                daysSpent >\n                    packages[stakes[msg.sender][stakeIndex]._packageName]\n                        ._daysBlocked,\n                \"cannot unstake sooner than the blocked time time\"\n            );\n\n            CLIQ.transfer(msg.sender, cliqReward);\n            tokenContract.transfer(\n                msg.sender,\n                stakes[msg.sender][stakeIndex]._amount\n            );\n        } else {\n            revert();\n        }\n\n        emit Unstaked(msg.sender, stakeIndex);\n    }\n\n    function forceWithdraw(uint256 stakeIndex) public {\n        require(\n            stakes[msg.sender][stakeIndex]._amount > 0,\n            \"The stake you are searching for is not defined\"\n        );\n        require(\n            stakes[msg.sender][stakeIndex]._withdrawnTimestamp == 0,\n            \"Stake already withdrawn\"\n        );\n\n        stakes[msg.sender][stakeIndex]._withdrawnTimestamp = block.timestamp;\n        totalStakedFunds = totalStakedFunds.sub(\n            stakes[msg.sender][stakeIndex]._amount\n        );\n        totalStakedBalance[msg.sender] = totalStakedBalance[msg.sender].sub(\n            stakes[msg.sender][stakeIndex]._amount\n        );\n\n        uint256 daysSpent =\n            block.timestamp.sub(stakes[msg.sender][stakeIndex]._timestamp).div(\n                TIME_UNIT\n            ); //86400\n\n        require(\n            daysSpent >\n                packages[stakes[msg.sender][stakeIndex]._packageName]\n                    ._daysBlocked,\n            \"cannot unstake sooner than the blocked time time\"\n        );\n\n        tokenContract.transfer(\n            msg.sender,\n            stakes[msg.sender][stakeIndex]._amount\n        );\n\n        emit ForcefullyWithdrawn(msg.sender, stakeIndex);\n    }\n\n    function pauseStaking() public onlyMaintainer {\n        paused = true;\n        emit Paused();\n    }\n\n    function unpauseStaking() public onlyMaintainer {\n        paused = false;\n        emit Unpaused();\n    }\n\n    function addStakedTokenReward(uint256 _amount)\n        public\n        onlyRewardProvider\n        returns (bool)\n    {\n        //transfer from (need allowance)\n        rewardProviderTokenAllowance = rewardProviderTokenAllowance.add(\n            _amount\n        );\n        tokenContract.transferFrom(msg.sender, address(this), _amount);\n\n        emit NativeTokenRewardAdded(msg.sender, _amount);\n        return true;\n    }\n\n    function removeStakedTokenReward(uint256 _amount)\n        public\n        onlyRewardProvider\n        returns (bool)\n    {\n        require(\n            _amount <= rewardProviderTokenAllowance,\n            \"you cannot withdraw this amount\"\n        );\n        rewardProviderTokenAllowance = rewardProviderTokenAllowance.sub(\n            _amount\n        );\n        tokenContract.transfer(msg.sender, _amount);\n        emit NativeTokenRewardRemoved(msg.sender, _amount);\n        return true;\n    }\n\n    function _definePackage(\n        bytes32 _name,\n        uint256 _days,\n        uint256 _daysBlocked,\n        uint256 _packageInterest,\n        uint256 _packageCliqReward\n    ) private {\n        YieldType memory package;\n        package._packageName = _name;\n        package._daysLocked = _days;\n        package._packageInterest = _packageInterest;\n        package._packageCliqReward = _packageCliqReward;\n        package._daysBlocked = _daysBlocked;\n        packages[_name] = package;\n        packageNames.push(_name);\n    }\n}",
  "sourcePath": "/home/romario/Work/Audit/Cliq/last_commit/deficliq-staking/contracts/cliqStaking.sol",
  "compiler": {
    "name": "solc",
    "version": "0.7.6+commit.7338295f.Emscripten.clang"
  },
  "schemaVersion": "3.3.3",
  "updatedAt": "2021-02-10T14:56:21.869Z",
  "devdoc": {
    "kind": "dev",
    "methods": {
      "getRoleAdmin(bytes32)": {
        "details": "Returns the admin role that controls `role`. See {grantRole} and {revokeRole}. To change a role's admin, use {_setRoleAdmin}."
      },
      "getRoleMember(bytes32,uint256)": {
        "details": "Returns one of the accounts that have `role`. `index` must be a value between 0 and {getRoleMemberCount}, non-inclusive. Role bearers are not sorted in any particular way, and their ordering may change at any point. WARNING: When using {getRoleMember} and {getRoleMemberCount}, make sure you perform all queries on the same block. See the following https://forum.openzeppelin.com/t/iterating-over-elements-on-enumerableset-in-openzeppelin-contracts/2296[forum post] for more information."
      },
      "getRoleMemberCount(bytes32)": {
        "details": "Returns the number of accounts that have `role`. Can be used together with {getRoleMember} to enumerate all bearers of a role."
      },
      "grantRole(bytes32,address)": {
        "details": "Grants `role` to `account`. If `account` had not been already granted `role`, emits a {RoleGranted} event. Requirements: - the caller must have ``role``'s admin role."
      },
      "hasRole(bytes32,address)": {
        "details": "Returns `true` if `account` has been granted `role`."
      },
      "renounceRole(bytes32,address)": {
        "details": "Revokes `role` from the calling account. Roles are often managed via {grantRole} and {revokeRole}: this function's purpose is to provide a mechanism for accounts to lose their privileges if they are compromised (such as when a trusted device is misplaced). If the calling account had been granted `role`, emits a {RoleRevoked} event. Requirements: - the caller must be `account`."
      },
      "revokeRole(bytes32,address)": {
        "details": "Revokes `role` from `account`. If `account` had been granted `role`, emits a {RoleRevoked} event. Requirements: - the caller must have ``role``'s admin role."
      }
    },
    "version": 1
  },
  "userdoc": {
    "kind": "user",
    "methods": {},
    "version": 1
  }
}