{
  "contractName": "CliqStaking",
  "abi": [
    {
      "inputs": [
        {
          "internalType": "address",
          "name": "_stakedToken",
          "type": "address"
        },
        {
          "internalType": "address",
          "name": "_CLIQ",
          "type": "address"
        }
      ],
      "stateMutability": "nonpayable",
      "type": "constructor"
    },
    {
      "anonymous": false,
      "inputs": [
        {
          "indexed": true,
          "internalType": "address",
          "name": "_usr",
          "type": "address"
        },
        {
          "indexed": false,
          "internalType": "uint256",
          "name": "stakeIndex",
          "type": "uint256"
        }
      ],
      "name": "ForcefullyWithdrawn",
      "type": "event"
    },
    {
      "anonymous": false,
      "inputs": [
        {
          "indexed": true,
          "internalType": "address",
          "name": "_from",
          "type": "address"
        },
        {
          "indexed": false,
          "internalType": "uint256",
          "name": "_val",
          "type": "uint256"
        }
      ],
      "name": "NativeTokenRewardAdded",
      "type": "event"
    },
    {
      "anonymous": false,
      "inputs": [
        {
          "indexed": true,
          "internalType": "address",
          "name": "_to",
          "type": "address"
        },
        {
          "indexed": false,
          "internalType": "uint256",
          "name": "_val",
          "type": "uint256"
        }
      ],
      "name": "NativeTokenRewardRemoved",
      "type": "event"
    },
    {
      "anonymous": false,
      "inputs": [],
      "name": "Paused",
      "type": "event"
    },
    {
      "anonymous": false,
      "inputs": [
        {
          "indexed": true,
          "internalType": "bytes32",
          "name": "role",
          "type": "bytes32"
        },
        {
          "indexed": true,
          "internalType": "bytes32",
          "name": "previousAdminRole",
          "type": "bytes32"
        },
        {
          "indexed": true,
          "internalType": "bytes32",
          "name": "newAdminRole",
          "type": "bytes32"
        }
      ],
      "name": "RoleAdminChanged",
      "type": "event"
    },
    {
      "anonymous": false,
      "inputs": [
        {
          "indexed": true,
          "internalType": "bytes32",
          "name": "role",
          "type": "bytes32"
        },
        {
          "indexed": true,
          "internalType": "address",
          "name": "account",
          "type": "address"
        },
        {
          "indexed": true,
          "internalType": "address",
          "name": "sender",
          "type": "address"
        }
      ],
      "name": "RoleGranted",
      "type": "event"
    },
    {
      "anonymous": false,
      "inputs": [
        {
          "indexed": true,
          "internalType": "bytes32",
          "name": "role",
          "type": "bytes32"
        },
        {
          "indexed": true,
          "internalType": "address",
          "name": "account",
          "type": "address"
        },
        {
          "indexed": true,
          "internalType": "address",
          "name": "sender",
          "type": "address"
        }
      ],
      "name": "RoleRevoked",
      "type": "event"
    },
    {
      "anonymous": false,
      "inputs": [
        {
          "indexed": true,
          "internalType": "address",
          "name": "_usr",
          "type": "address"
        },
        {
          "indexed": false,
          "internalType": "bytes32",
          "name": "_packageName",
          "type": "bytes32"
        },
        {
          "indexed": false,
          "internalType": "uint256",
          "name": "_amount",
          "type": "uint256"
        },
        {
          "indexed": false,
          "internalType": "uint16",
          "name": "_stakeRewardType",
          "type": "uint16"
        },
        {
          "indexed": false,
          "internalType": "uint256",
          "name": "_stakeIndex",
          "type": "uint256"
        }
      ],
      "name": "StakeAdded",
      "type": "event"
    },
    {
      "anonymous": false,
      "inputs": [],
      "name": "Unpaused",
      "type": "event"
    },
    {
      "anonymous": false,
      "inputs": [
        {
          "indexed": true,
          "internalType": "address",
          "name": "_usr",
          "type": "address"
        },
        {
          "indexed": false,
          "internalType": "uint256",
          "name": "stakeIndex",
          "type": "uint256"
        }
      ],
      "name": "Unstaked",
      "type": "event"
    },
    {
      "inputs": [],
      "name": "CLIQ",
      "outputs": [
        {
          "internalType": "contract IERC20",
          "name": "",
          "type": "address"
        }
      ],
      "stateMutability": "view",
      "type": "function",
      "constant": true
    },
    {
      "inputs": [],
      "name": "DEFAULT_ADMIN_ROLE",
      "outputs": [
        {
          "internalType": "bytes32",
          "name": "",
          "type": "bytes32"
        }
      ],
      "stateMutability": "view",
      "type": "function",
      "constant": true
    },
    {
      "inputs": [],
      "name": "NAME",
      "outputs": [
        {
          "internalType": "string",
          "name": "",
          "type": "string"
        }
      ],
      "stateMutability": "view",
      "type": "function",
      "constant": true
    },
    {
      "inputs": [],
      "name": "REWARD_PROVIDER",
      "outputs": [
        {
          "internalType": "bytes32",
          "name": "",
          "type": "bytes32"
        }
      ],
      "stateMutability": "view",
      "type": "function",
      "constant": true
    },
    {
      "inputs": [
        {
          "internalType": "bytes32",
          "name": "role",
          "type": "bytes32"
        }
      ],
      "name": "getRoleAdmin",
      "outputs": [
        {
          "internalType": "bytes32",
          "name": "",
          "type": "bytes32"
        }
      ],
      "stateMutability": "view",
      "type": "function",
      "constant": true
    },
    {
      "inputs": [
        {
          "internalType": "bytes32",
          "name": "role",
          "type": "bytes32"
        },
        {
          "internalType": "uint256",
          "name": "index",
          "type": "uint256"
        }
      ],
      "name": "getRoleMember",
      "outputs": [
        {
          "internalType": "address",
          "name": "",
          "type": "address"
        }
      ],
      "stateMutability": "view",
      "type": "function",
      "constant": true
    },
    {
      "inputs": [
        {
          "internalType": "bytes32",
          "name": "role",
          "type": "bytes32"
        }
      ],
      "name": "getRoleMemberCount",
      "outputs": [
        {
          "internalType": "uint256",
          "name": "",
          "type": "uint256"
        }
      ],
      "stateMutability": "view",
      "type": "function",
      "constant": true
    },
    {
      "inputs": [
        {
          "internalType": "bytes32",
          "name": "role",
          "type": "bytes32"
        },
        {
          "internalType": "address",
          "name": "account",
          "type": "address"
        }
      ],
      "name": "grantRole",
      "outputs": [],
      "stateMutability": "nonpayable",
      "type": "function"
    },
    {
      "inputs": [
        {
          "internalType": "bytes32",
          "name": "role",
          "type": "bytes32"
        },
        {
          "internalType": "address",
          "name": "account",
          "type": "address"
        }
      ],
      "name": "hasRole",
      "outputs": [
        {
          "internalType": "bool",
          "name": "",
          "type": "bool"
        }
      ],
      "stateMutability": "view",
      "type": "function",
      "constant": true
    },
    {
      "inputs": [
        {
          "internalType": "address",
          "name": "",
          "type": "address"
        }
      ],
      "name": "hasStaked",
      "outputs": [
        {
          "internalType": "bool",
          "name": "",
          "type": "bool"
        }
      ],
      "stateMutability": "view",
      "type": "function",
      "constant": true
    },
    {
      "inputs": [
        {
          "internalType": "uint256",
          "name": "",
          "type": "uint256"
        }
      ],
      "name": "packageNames",
      "outputs": [
        {
          "internalType": "bytes32",
          "name": "",
          "type": "bytes32"
        }
      ],
      "stateMutability": "view",
      "type": "function",
      "constant": true
    },
    {
      "inputs": [
        {
          "internalType": "bytes32",
          "name": "",
          "type": "bytes32"
        }
      ],
      "name": "packages",
      "outputs": [
        {
          "internalType": "bytes32",
          "name": "_packageName",
          "type": "bytes32"
        },
        {
          "internalType": "uint256",
          "name": "_daysLocked",
          "type": "uint256"
        },
        {
          "internalType": "uint256",
          "name": "_daysBlocked",
          "type": "uint256"
        },
        {
          "internalType": "uint256",
          "name": "_packageInterest",
          "type": "uint256"
        },
        {
          "internalType": "uint256",
          "name": "_packageCliqReward",
          "type": "uint256"
        }
      ],
      "stateMutability": "view",
      "type": "function",
      "constant": true
    },
    {
      "inputs": [],
      "name": "paused",
      "outputs": [
        {
          "internalType": "bool",
          "name": "",
          "type": "bool"
        }
      ],
      "stateMutability": "view",
      "type": "function",
      "constant": true
    },
    {
      "inputs": [
        {
          "internalType": "bytes32",
          "name": "role",
          "type": "bytes32"
        },
        {
          "internalType": "address",
          "name": "account",
          "type": "address"
        }
      ],
      "name": "renounceRole",
      "outputs": [],
      "stateMutability": "nonpayable",
      "type": "function"
    },
    {
      "inputs": [
        {
          "internalType": "bytes32",
          "name": "role",
          "type": "bytes32"
        },
        {
          "internalType": "address",
          "name": "account",
          "type": "address"
        }
      ],
      "name": "revokeRole",
      "outputs": [],
      "stateMutability": "nonpayable",
      "type": "function"
    },
    {
      "inputs": [
        {
          "internalType": "address",
          "name": "",
          "type": "address"
        },
        {
          "internalType": "uint256",
          "name": "",
          "type": "uint256"
        }
      ],
      "name": "stakes",
      "outputs": [
        {
          "internalType": "uint256",
          "name": "_amount",
          "type": "uint256"
        },
        {
          "internalType": "uint256",
          "name": "_timestamp",
          "type": "uint256"
        },
        {
          "internalType": "bytes32",
          "name": "_packageName",
          "type": "bytes32"
        },
        {
          "internalType": "uint256",
          "name": "_withdrawnTimestamp",
          "type": "uint256"
        },
        {
          "internalType": "uint16",
          "name": "_stakeRewardType",
          "type": "uint16"
        }
      ],
      "stateMutability": "view",
      "type": "function",
      "constant": true
    },
    {
      "inputs": [],
      "name": "tokenContract",
      "outputs": [
        {
          "internalType": "contract IERC20",
          "name": "",
          "type": "address"
        }
      ],
      "stateMutability": "view",
      "type": "function",
      "constant": true
    },
    {
      "inputs": [
        {
          "internalType": "address",
          "name": "",
          "type": "address"
        }
      ],
      "name": "totalStakedBalance",
      "outputs": [
        {
          "internalType": "uint256",
          "name": "",
          "type": "uint256"
        }
      ],
      "stateMutability": "view",
      "type": "function",
      "constant": true
    },
    {
      "inputs": [],
      "name": "totalStakedFunds",
      "outputs": [
        {
          "internalType": "uint256",
          "name": "",
          "type": "uint256"
        }
      ],
      "stateMutability": "view",
      "type": "function",
      "constant": true
    },
    {
      "inputs": [
        {
          "internalType": "address",
          "name": "_address",
          "type": "address"
        }
      ],
      "name": "stakesLength",
      "outputs": [
        {
          "internalType": "uint256",
          "name": "",
          "type": "uint256"
        }
      ],
      "stateMutability": "view",
      "type": "function",
      "constant": true
    },
    {
      "inputs": [],
      "name": "packageLength",
      "outputs": [
        {
          "internalType": "uint256",
          "name": "",
          "type": "uint256"
        }
      ],
      "stateMutability": "view",
      "type": "function",
      "constant": true
    },
    {
      "inputs": [
        {
          "internalType": "uint256",
          "name": "_amount",
          "type": "uint256"
        },
        {
          "internalType": "bytes32",
          "name": "_packageName",
          "type": "bytes32"
        },
        {
          "internalType": "uint16",
          "name": "_stakeRewardType",
          "type": "uint16"
        }
      ],
      "name": "stakeTokens",
      "outputs": [],
      "stateMutability": "nonpayable",
      "type": "function"
    },
    {
      "inputs": [
        {
          "internalType": "address",
          "name": "_address",
          "type": "address"
        },
        {
          "internalType": "uint256",
          "name": "stakeIndex",
          "type": "uint256"
        }
      ],
      "name": "checkStakeReward",
      "outputs": [
        {
          "internalType": "uint256",
          "name": "yieldReward",
          "type": "uint256"
        },
        {
          "internalType": "uint256",
          "name": "timeDiff",
          "type": "uint256"
        }
      ],
      "stateMutability": "view",
      "type": "function",
      "constant": true
    },
    {
      "inputs": [
        {
          "internalType": "address",
          "name": "_address",
          "type": "address"
        },
        {
          "internalType": "uint256",
          "name": "stakeIndex",
          "type": "uint256"
        }
      ],
      "name": "checkStakeCliqReward",
      "outputs": [
        {
          "internalType": "uint256",
          "name": "yieldReward",
          "type": "uint256"
        },
        {
          "internalType": "uint256",
          "name": "timeDiff",
          "type": "uint256"
        }
      ],
      "stateMutability": "view",
      "type": "function",
      "constant": true
    },
    {
      "inputs": [
        {
          "internalType": "uint256",
          "name": "stakeIndex",
          "type": "uint256"
        }
      ],
      "name": "unstake",
      "outputs": [],
      "stateMutability": "nonpayable",
      "type": "function"
    },
    {
      "inputs": [
        {
          "internalType": "uint256",
          "name": "stakeIndex",
          "type": "uint256"
        }
      ],
      "name": "forceWithdraw",
      "outputs": [],
      "stateMutability": "nonpayable",
      "type": "function"
    },
    {
      "inputs": [],
      "name": "pauseStaking",
      "outputs": [],
      "stateMutability": "nonpayable",
      "type": "function"
    },
    {
      "inputs": [],
      "name": "unpauseStaking",
      "outputs": [],
      "stateMutability": "nonpayable",
      "type": "function"
    },
    {
      "inputs": [
        {
          "internalType": "uint256",
          "name": "_amount",
          "type": "uint256"
        }
      ],
      "name": "addStakedTokenReward",
      "outputs": [
        {
          "internalType": "bool",
          "name": "",
          "type": "bool"
        }
      ],
      "stateMutability": "nonpayable",
      "type": "function"
    },
    {
      "inputs": [
        {
          "internalType": "uint256",
          "name": "_amount",
          "type": "uint256"
        }
      ],
      "name": "removeStakedTokenReward",
      "outputs": [
        {
          "internalType": "bool",
          "name": "",
          "type": "bool"
        }
      ],
      "stateMutability": "nonpayable",
      "type": "function"
    }
  ],
  "bytecode": "0x608060405260126004556000600b556000600c55620f4240600d556000600e60006101000a81548160ff0219169083151502179055503480156200004257600080fd5b506040516200421038038062004210833981810160405260408110156200006857600080fd5b810190808051906020019092919080519060200190929190505050620000a76000801b6200009b620001e860201b60201c565b620001f060201b60201c565b81600160006101000a81548173ffffffffffffffffffffffffffffffffffffffff021916908373ffffffffffffffffffffffffffffffffffffffff16021790555080600260006101000a81548173ffffffffffffffffffffffffffffffffffffffff021916908373ffffffffffffffffffffffffffffffffffffffff160217905550620001667f53696c766572205061636b616765000000000000000000000000000000000000601e600f621a8d34620f42406200020660201b60201c565b620001a37f476f6c64205061636b6167650000000000000000000000000000000000000000603c601e624843b06216e3606200020660201b60201c565b620001e07f506c6174696e756d205061636b61676500000000000000000000000000000000605a602d62ab2a16621e84806200020660201b60201c565b505062000466565b600033905090565b620002028282620002bc60201b60201c565b5050565b6200021062000434565b8581600001818152505084816020018181525050828160600181815250508181608001818152505083816040018181525050806005600088815260200190815260200160002060008201518160000155602082015181600101556040820151816002015560608201518160030155608082015181600401559050506003869080600181540180825580915050600190039060005260206000200160009091909190915055505050505050565b620002ea816000808581526020019081526020016000206000016200035f60201b620032b21790919060201c565b156200035b5762000300620001e860201b60201c565b73ffffffffffffffffffffffffffffffffffffffff168173ffffffffffffffffffffffffffffffffffffffff16837f2f8788117e7eff1d82e926ec794901d17c78024a50270940304540a733656f0d60405160405180910390a45b5050565b60006200038f836000018373ffffffffffffffffffffffffffffffffffffffff1660001b6200039760201b60201c565b905092915050565b6000620003ab83836200041160201b60201c565b620004065782600001829080600181540180825580915050600190039060005260206000200160009091909190915055826000018054905083600101600084815260200190815260200160002081905550600190506200040b565b600090505b92915050565b600080836001016000848152602001908152602001600020541415905092915050565b6040518060a0016040528060008019168152602001600081526020016000815260200160008152602001600081525090565b613d9a80620004766000396000f3fe608060405234801561001057600080fd5b50600436106101da5760003560e01c806377e62a3011610104578063a217fddf116100a2578063ca15c87311610071578063ca15c873146108f2578063cb2b0d6114610934578063d547741f1461097a578063f999c506146109c8576101da565b8063a217fddf146107d9578063a3f4df7e146107f7578063bc6a897e1461087a578063c93c8f3414610898576101da565b8063864792b4116100de578063864792b4146106a05780639010d07c1461070957806391d148541461076b57806393f4bcde146107cf576101da565b806377e62a30146105c25780637c329830146106045780637e0391531461065c576101da565b806336568abe1161017c578063584b62a11161014b578063584b62a1146104595780635925e37e146104db5780635c975abb146105445780637110281914610564576101da565b806336568abe1461033b57806349fc9df7146103895780634d85bd9f146103e157806355a373d614610425576101da565b80631faee868116101b85780631faee8681461025f578063248a9ca31461027d5780632e17de78146102bf5780632f2ff15d146102ed576101da565b80630fcc56f7146101df57806318ec2d5c1461020d5780631e1cb7321461022b575b600080fd5b61020b600480360360208110156101f557600080fd5b81019080803590602001909291905050506109d2565b005b610215610fe7565b6040518082815260200191505060405180910390f35b610233610fed565b604051808273ffffffffffffffffffffffffffffffffffffffff16815260200191505060405180910390f35b610267611013565b6040518082815260200191505060405180910390f35b6102a96004803603602081101561029357600080fd5b8101908080359060200190929190505050611020565b6040518082815260200191505060405180910390f35b6102eb600480360360208110156102d557600080fd5b810190808035906020019092919050505061103f565b005b6103396004803603604081101561030357600080fd5b8101908080359060200190929190803573ffffffffffffffffffffffffffffffffffffffff169060200190929190505050611b41565b005b6103876004803603604081101561035157600080fd5b8101908080359060200190929190803573ffffffffffffffffffffffffffffffffffffffff169060200190929190505050611bca565b005b6103cb6004803603602081101561039f57600080fd5b81019080803573ffffffffffffffffffffffffffffffffffffffff169060200190929190505050611c63565b6040518082815260200191505060405180910390f35b61040d600480360360208110156103f757600080fd5b8101908080359060200190929190505050611caf565b60405180821515815260200191505060405180910390f35b61042d611ef0565b604051808273ffffffffffffffffffffffffffffffffffffffff16815260200191505060405180910390f35b6104a56004803603604081101561046f57600080fd5b81019080803573ffffffffffffffffffffffffffffffffffffffff16906020019092919080359060200190929190505050611f16565b604051808681526020018581526020018481526020018381526020018261ffff1681526020019550505050505060405180910390f35b610527600480360360408110156104f157600080fd5b81019080803573ffffffffffffffffffffffffffffffffffffffff16906020019092919080359060200190929190505050611f77565b604051808381526020018281526020019250505060405180910390f35b61054c61233a565b60405180821515815260200191505060405180910390f35b6105906004803603602081101561057a57600080fd5b810190808035906020019092919050505061234d565b604051808681526020018581526020018481526020018381526020018281526020019550505050505060405180910390f35b6105ee600480360360208110156105d857600080fd5b8101908080359060200190929190505050612383565b6040518082815260200191505060405180910390f35b6106466004803603602081101561061a57600080fd5b81019080803573ffffffffffffffffffffffffffffffffffffffff1690602001909291905050506123a7565b6040518082815260200191505060405180910390f35b6106886004803603602081101561067257600080fd5b81019080803590602001909291905050506123bf565b60405180821515815260200191505060405180910390f35b6106ec600480360360408110156106b657600080fd5b81019080803573ffffffffffffffffffffffffffffffffffffffff169060200190929190803590602001909291905050506125a6565b604051808381526020018281526020019250505060405180910390f35b61073f6004803603604081101561071f57600080fd5b8101908080359060200190929190803590602001909291905050506129a2565b604051808273ffffffffffffffffffffffffffffffffffffffff16815260200191505060405180910390f35b6107b76004803603604081101561078157600080fd5b8101908080359060200190929190803573ffffffffffffffffffffffffffffffffffffffff1690602001909291905050506129d3565b60405180821515815260200191505060405180910390f35b6107d7612a04565b005b6107e1612ab6565b6040518082815260200191505060405180910390f35b6107ff612abd565b6040518080602001828103825283818151815260200191508051906020019080838360005b8381101561083f578082015181840152602081019050610824565b50505050905090810190601f16801561086c5780820380516001836020036101000a031916815260200191505b509250505060405180910390f35b610882612af6565b6040518082815260200191505060405180910390f35b6108da600480360360208110156108ae57600080fd5b81019080803573ffffffffffffffffffffffffffffffffffffffff169060200190929190505050612b1a565b60405180821515815260200191505060405180910390f35b61091e6004803603602081101561090857600080fd5b8101908080359060200190929190505050612b3a565b6040518082815260200191505060405180910390f35b6109786004803603606081101561094a57600080fd5b810190808035906020019092919080359060200190929190803561ffff169060200190929190505050612b60565b005b6109c66004803603604081101561099057600080fd5b8101908080359060200190929190803573ffffffffffffffffffffffffffffffffffffffff169060200190929190505050613177565b005b6109d0613200565b005b6000600760003373ffffffffffffffffffffffffffffffffffffffff1673ffffffffffffffffffffffffffffffffffffffff1681526020019081526020016000208281548110610a1e57fe5b90600052602060002090600502016000015411610a86576040517f08c379a000000000000000000000000000000000000000000000000000000000815260040180806020018281038252602e815260200180613c5b602e913960400191505060405180910390fd5b6000600760003373ffffffffffffffffffffffffffffffffffffffff1673ffffffffffffffffffffffffffffffffffffffff1681526020019081526020016000208281548110610ad257fe5b90600052602060002090600502016003015414610b57576040517f08c379a00000000000000000000000000000000000000000000000000000000081526004018080602001828103825260178152602001807f5374616b6520616c72656164792077697468647261776e00000000000000000081525060200191505060405180910390fd5b42600760003373ffffffffffffffffffffffffffffffffffffffff1673ffffffffffffffffffffffffffffffffffffffff1681526020019081526020016000208281548110610ba257fe5b906000526020600020906005020160030181905550610c27600760003373ffffffffffffffffffffffffffffffffffffffff1673ffffffffffffffffffffffffffffffffffffffff1681526020019081526020016000208281548110610c0457fe5b906000526020600020906005020160000154600c546132e290919063ffffffff16565b600c81905550610cda600760003373ffffffffffffffffffffffffffffffffffffffff1673ffffffffffffffffffffffffffffffffffffffff1681526020019081526020016000208281548110610c7a57fe5b906000526020600020906005020160000154600660003373ffffffffffffffffffffffffffffffffffffffff1673ffffffffffffffffffffffffffffffffffffffff168152602001908152602001600020546132e290919063ffffffff16565b600660003373ffffffffffffffffffffffffffffffffffffffff1673ffffffffffffffffffffffffffffffffffffffff168152602001908152602001600020819055506000610da06001610d92600760003373ffffffffffffffffffffffffffffffffffffffff1673ffffffffffffffffffffffffffffffffffffffff1681526020019081526020016000208581548110610d7157fe5b906000526020600020906005020160010154426132e290919063ffffffff16565b61332c90919063ffffffff16565b905060056000600760003373ffffffffffffffffffffffffffffffffffffffff1673ffffffffffffffffffffffffffffffffffffffff1681526020019081526020016000208481548110610df057fe5b9060005260206000209060050201600201548152602001908152602001600020600201548111610e6b576040517f08c379a0000000000000000000000000000000000000000000000000000000008152600401808060200182810382526030815260200180613ad86030913960400191505060405180910390fd5b600160009054906101000a900473ffffffffffffffffffffffffffffffffffffffff1673ffffffffffffffffffffffffffffffffffffffff1663a9059cbb33600760003373ffffffffffffffffffffffffffffffffffffffff1673ffffffffffffffffffffffffffffffffffffffff1681526020019081526020016000208581548110610ef457fe5b9060005260206000209060050201600001546040518363ffffffff1660e01b8152600401808373ffffffffffffffffffffffffffffffffffffffff16815260200182815260200192505050602060405180830381600087803b158015610f5957600080fd5b505af1158015610f6d573d6000803e3d6000fd5b505050506040513d6020811015610f8357600080fd5b8101908080519060200190929190505050503373ffffffffffffffffffffffffffffffffffffffff167ff27a813adb5fa3a82c2cb4437f5e7ee7576c37b8c7e386a735b6864bc3fcee43836040518082815260200191505060405180910390a25050565b600c5481565b600260009054906101000a900473ffffffffffffffffffffffffffffffffffffffff1681565b6000600380549050905090565b6000806000838152602001908152602001600020600201549050919050565b600760003373ffffffffffffffffffffffffffffffffffffffff1673ffffffffffffffffffffffffffffffffffffffff1681526020019081526020016000208054905081106110d9576040517f08c379a000000000000000000000000000000000000000000000000000000000815260040180806020018281038252602e815260200180613c5b602e913960400191505060405180910390fd5b6000600760003373ffffffffffffffffffffffffffffffffffffffff1673ffffffffffffffffffffffffffffffffffffffff168152602001908152602001600020828154811061112557fe5b906000526020600020906005020160030154146111aa576040517f08c379a00000000000000000000000000000000000000000000000000000000081526004018080602001828103825260178152602001807f5374616b6520616c72656164792077697468647261776e00000000000000000081525060200191505060405180910390fd5b61121a600760003373ffffffffffffffffffffffffffffffffffffffff1673ffffffffffffffffffffffffffffffffffffffff16815260200190815260200160002082815481106111f757fe5b906000526020600020906005020160000154600c546132e290919063ffffffff16565b600c819055506112cd600760003373ffffffffffffffffffffffffffffffffffffffff1673ffffffffffffffffffffffffffffffffffffffff168152602001908152602001600020828154811061126d57fe5b906000526020600020906005020160000154600660003373ffffffffffffffffffffffffffffffffffffffff1673ffffffffffffffffffffffffffffffffffffffff168152602001908152602001600020546132e290919063ffffffff16565b600660003373ffffffffffffffffffffffffffffffffffffffff1673ffffffffffffffffffffffffffffffffffffffff1681526020019081526020016000208190555042600760003373ffffffffffffffffffffffffffffffffffffffff1673ffffffffffffffffffffffffffffffffffffffff168152602001908152602001600020828154811061135b57fe5b9060005260206000209060050201600301819055506000600760003373ffffffffffffffffffffffffffffffffffffffff1673ffffffffffffffffffffffffffffffffffffffff16815260200190815260200160002082815481106113bc57fe5b906000526020600020906005020160040160009054906101000a900461ffff1661ffff16141561167e576000806113f333846125a6565b9150915081600b5411611451576040517f08c379a0000000000000000000000000000000000000000000000000000000008152600401808060200182810382526058815260200180613cb16058913960600191505060405180910390fd5b60056000600760003373ffffffffffffffffffffffffffffffffffffffff1673ffffffffffffffffffffffffffffffffffffffff168152602001908152602001600020858154811061149f57fe5b906000526020600020906005020160020154815260200190815260200160002060020154811161151a576040517f08c379a0000000000000000000000000000000000000000000000000000000008152600401808060200182810382526030815260200180613ad86030913960400191505060405180910390fd5b61152f82600b546132e290919063ffffffff16565b600b8190555060006115a583600760003373ffffffffffffffffffffffffffffffffffffffff1673ffffffffffffffffffffffffffffffffffffffff168152602001908152602001600020868154811061158557fe5b90600052602060002090600502016000015461337690919063ffffffff16565b9050600160009054906101000a900473ffffffffffffffffffffffffffffffffffffffff1673ffffffffffffffffffffffffffffffffffffffff1663a9059cbb33836040518363ffffffff1660e01b8152600401808373ffffffffffffffffffffffffffffffffffffffff16815260200182815260200192505050602060405180830381600087803b15801561163a57600080fd5b505af115801561164e573d6000803e3d6000fd5b505050506040513d602081101561166457600080fd5b810190808051906020019092919050505050505050611af0565b6001600760003373ffffffffffffffffffffffffffffffffffffffff1673ffffffffffffffffffffffffffffffffffffffff16815260200190815260200160002082815481106116ca57fe5b906000526020600020906005020160040160009054906101000a900461ffff1661ffff161415611aea576000806117013384611f77565b9150915081600260009054906101000a900473ffffffffffffffffffffffffffffffffffffffff1673ffffffffffffffffffffffffffffffffffffffff166370a08231306040518263ffffffff1660e01b8152600401808273ffffffffffffffffffffffffffffffffffffffff16815260200191505060206040518083038186803b15801561178f57600080fd5b505afa1580156117a3573d6000803e3d6000fd5b505050506040513d60208110156117b957600080fd5b81019080805190602001909291905050501015611821576040517f08c379a0000000000000000000000000000000000000000000000000000000008152600401808060200182810382526043815260200180613c186043913960600191505060405180910390fd5b60056000600760003373ffffffffffffffffffffffffffffffffffffffff1673ffffffffffffffffffffffffffffffffffffffff168152602001908152602001600020858154811061186f57fe5b90600052602060002090600502016002015481526020019081526020016000206002015481116118ea576040517f08c379a0000000000000000000000000000000000000000000000000000000008152600401808060200182810382526030815260200180613ad86030913960400191505060405180910390fd5b600260009054906101000a900473ffffffffffffffffffffffffffffffffffffffff1673ffffffffffffffffffffffffffffffffffffffff1663a9059cbb33846040518363ffffffff1660e01b8152600401808373ffffffffffffffffffffffffffffffffffffffff16815260200182815260200192505050602060405180830381600087803b15801561197d57600080fd5b505af1158015611991573d6000803e3d6000fd5b505050506040513d60208110156119a757600080fd5b810190808051906020019092919050505050600160009054906101000a900473ffffffffffffffffffffffffffffffffffffffff1673ffffffffffffffffffffffffffffffffffffffff1663a9059cbb33600760003373ffffffffffffffffffffffffffffffffffffffff1673ffffffffffffffffffffffffffffffffffffffff1681526020019081526020016000208681548110611a4257fe5b9060005260206000209060050201600001546040518363ffffffff1660e01b8152600401808373ffffffffffffffffffffffffffffffffffffffff16815260200182815260200192505050602060405180830381600087803b158015611aa757600080fd5b505af1158015611abb573d6000803e3d6000fd5b505050506040513d6020811015611ad157600080fd5b8101908080519060200190929190505050505050611aef565b600080fd5b5b3373ffffffffffffffffffffffffffffffffffffffff167f0f5bb82176feb1b5e747e28471aa92156a04d9f3ab9f45f28e2d704232b93f75826040518082815260200191505060405180910390a250565b611b6760008084815260200190815260200160002060020154611b626133fe565b6129d3565b611bbc576040517f08c379a000000000000000000000000000000000000000000000000000000000815260040180806020018281038252602f815260200180613a2f602f913960400191505060405180910390fd5b611bc68282613406565b5050565b611bd26133fe565b73ffffffffffffffffffffffffffffffffffffffff168173ffffffffffffffffffffffffffffffffffffffff1614611c55576040517f08c379a000000000000000000000000000000000000000000000000000000000815260040180806020018281038252602f815260200180613d36602f913960400191505060405180910390fd5b611c5f8282613499565b5050565b6000600760008373ffffffffffffffffffffffffffffffffffffffff1673ffffffffffffffffffffffffffffffffffffffff168152602001908152602001600020805490509050919050565b6000611ce27fe56e19a7d558c827e5fe3dd17249e3d1e70e83b18ea8e11167d41e0a83cdd168611cdd6133fe565b6129d3565b611d37576040517f08c379a000000000000000000000000000000000000000000000000000000000815260040180806020018281038252602d815260200180613d09602d913960400191505060405180910390fd5b600b54821115611daf576040517f08c379a000000000000000000000000000000000000000000000000000000000815260040180806020018281038252601f8152602001807f796f752063616e6e6f74207769746864726177207468697320616d6f756e740081525060200191505060405180910390fd5b611dc482600b546132e290919063ffffffff16565b600b81905550600160009054906101000a900473ffffffffffffffffffffffffffffffffffffffff1673ffffffffffffffffffffffffffffffffffffffff1663a9059cbb33846040518363ffffffff1660e01b8152600401808373ffffffffffffffffffffffffffffffffffffffff16815260200182815260200192505050602060405180830381600087803b158015611e5d57600080fd5b505af1158015611e71573d6000803e3d6000fd5b505050506040513d6020811015611e8757600080fd5b8101908080519060200190929190505050503373ffffffffffffffffffffffffffffffffffffffff167fa3778e112275f3f7c5cfcc393b49b87cf6cd7aeaac223796b6f00dbf85457d69836040518082815260200191505060405180910390a260019050919050565b600160009054906101000a900473ffffffffffffffffffffffffffffffffffffffff1681565b60076020528160005260406000208181548110611f3257600080fd5b9060005260206000209060050201600091509150508060000154908060010154908060020154908060030154908060040160009054906101000a900461ffff16905085565b6000806001600760008673ffffffffffffffffffffffffffffffffffffffff1673ffffffffffffffffffffffffffffffffffffffff1681526020019081526020016000208481548110611fc657fe5b906000526020600020906005020160040160009054906101000a900461ffff1661ffff1614612040576040517f08c379a0000000000000000000000000000000000000000000000000000000008152600401808060200182810382526047815260200180613a5e6047913960600191505060405180910390fd5b60004290506000600760008773ffffffffffffffffffffffffffffffffffffffff1673ffffffffffffffffffffffffffffffffffffffff168152602001908152602001600020858154811061209157fe5b9060005260206000209060050201600301541461210757600760008673ffffffffffffffffffffffffffffffffffffffff1673ffffffffffffffffffffffffffffffffffffffff16815260200190815260200160002084815481106120f257fe5b90600052602060002090600502016003015490505b6000600760008773ffffffffffffffffffffffffffffffffffffffff1673ffffffffffffffffffffffffffffffffffffffff168152602001908152602001600020858154811061215357fe5b9060005260206000209060050201600101549050600060056000600760008a73ffffffffffffffffffffffffffffffffffffffff1673ffffffffffffffffffffffffffffffffffffffff16815260200190815260200160002088815481106121b757fe5b9060005260206000209060050201600201548152602001908152602001600020600101549050600060056000600760008b73ffffffffffffffffffffffffffffffffffffffff1673ffffffffffffffffffffffffffffffffffffffff168152602001908152602001600020898154811061222d57fe5b9060005260206000209060050201600201548152602001908152602001600020600401549050612279600161226b85876132e290919063ffffffff16565b61332c90919063ffffffff16565b94506000612290838761332c90919063ffffffff16565b905061230082600760008c73ffffffffffffffffffffffffffffffffffffffff1673ffffffffffffffffffffffffffffffffffffffff1681526020019081526020016000208a815481106122e057fe5b90600052602060002090600502016000015461352c90919063ffffffff16565b9650612317600d548861332c90919063ffffffff16565b965061232c818861352c90919063ffffffff16565b965050505050509250929050565b600e60009054906101000a900460ff1681565b60056020528060005260406000206000915090508060000154908060010154908060020154908060030154908060040154905085565b6003818154811061239357600080fd5b906000526020600020016000915090505481565b60066020528060005260406000206000915090505481565b60006123f27fe56e19a7d558c827e5fe3dd17249e3d1e70e83b18ea8e11167d41e0a83cdd1686123ed6133fe565b6129d3565b612447576040517f08c379a000000000000000000000000000000000000000000000000000000000815260040180806020018281038252602d815260200180613d09602d913960400191505060405180910390fd5b61245c82600b5461337690919063ffffffff16565b600b81905550600160009054906101000a900473ffffffffffffffffffffffffffffffffffffffff1673ffffffffffffffffffffffffffffffffffffffff166323b872dd3330856040518463ffffffff1660e01b8152600401808473ffffffffffffffffffffffffffffffffffffffff1681526020018373ffffffffffffffffffffffffffffffffffffffff1681526020018281526020019350505050602060405180830381600087803b15801561251357600080fd5b505af1158015612527573d6000803e3d6000fd5b505050506040513d602081101561253d57600080fd5b8101908080519060200190929190505050503373ffffffffffffffffffffffffffffffffffffffff167fa85a1296a1d1807b2a16e05fdd913aa7729945e7c59b8f3526fbc7f84eb8c048836040518082815260200191505060405180910390a260019050919050565b6000806000600760008673ffffffffffffffffffffffffffffffffffffffff1673ffffffffffffffffffffffffffffffffffffffff16815260200190815260200160002084815481106125f557fe5b906000526020600020906005020160040160009054906101000a900461ffff1661ffff161461266f576040517f08c379a000000000000000000000000000000000000000000000000000000000815260040180806020018281038252603f815260200180613b5b603f913960400191505060405180910390fd5b60004290506000600760008773ffffffffffffffffffffffffffffffffffffffff1673ffffffffffffffffffffffffffffffffffffffff16815260200190815260200160002085815481106126c057fe5b9060005260206000209060050201600301541461273657600760008673ffffffffffffffffffffffffffffffffffffffff1673ffffffffffffffffffffffffffffffffffffffff168152602001908152602001600020848154811061272157fe5b90600052602060002090600502016003015490505b6000600760008773ffffffffffffffffffffffffffffffffffffffff1673ffffffffffffffffffffffffffffffffffffffff168152602001908152602001600020858154811061278257fe5b9060005260206000209060050201600101549050600060056000600760008a73ffffffffffffffffffffffffffffffffffffffff1673ffffffffffffffffffffffffffffffffffffffff16815260200190815260200160002088815481106127e657fe5b9060005260206000209060050201600201548152602001908152602001600020600101549050600060056000600760008b73ffffffffffffffffffffffffffffffffffffffff1673ffffffffffffffffffffffffffffffffffffffff168152602001908152602001600020898154811061285c57fe5b90600052602060002090600502016002015481526020019081526020016000206003015490506128a8600161289a85876132e290919063ffffffff16565b61332c90919063ffffffff16565b945060006128bf838761332c90919063ffffffff16565b9050600096506000600760008b73ffffffffffffffffffffffffffffffffffffffff1673ffffffffffffffffffffffffffffffffffffffff168152602001908152602001600020898154811061291157fe5b90600052602060002090600502016000015490505b600082111561299557600061295a6305f5e10061294c868561352c90919063ffffffff16565b61332c90919063ffffffff16565b905061296f818361337690919063ffffffff16565b9150612984818a61337690919063ffffffff16565b985082806001900393505050612926565b5050505050509250929050565b60006129cb826000808681526020019081526020016000206000016135b290919063ffffffff16565b905092915050565b60006129fc826000808681526020019081526020016000206000016135cc90919063ffffffff16565b905092915050565b612a186000801b612a136133fe565b6129d3565b612a6d576040517f08c379a0000000000000000000000000000000000000000000000000000000008152600401808060200182810382526028815260200180613c896028913960400191505060405180910390fd5b6000600e60006101000a81548160ff0219169083151502179055507fa45f47fdea8a1efdd9029a5691c7f759c32b7c698632b563573e155625d1693360405160405180910390a1565b6000801b81565b6040518060400160405280601581526020017f436c6971205374616b696e6720436f6e7472616374000000000000000000000081525081565b7fe56e19a7d558c827e5fe3dd17249e3d1e70e83b18ea8e11167d41e0a83cdd16881565b60086020528060005260406000206000915054906101000a900460ff1681565b6000612b596000808481526020019081526020016000206000016135fc565b9050919050565b60001515600e60009054906101000a900460ff16151514612be9576040517f08c379a00000000000000000000000000000000000000000000000000000000081526004018080602001828103825260128152602001807f5374616b696e672069732020706175736564000000000000000000000000000081525060200191505060405180910390fd5b60008311612c42576040517f08c379a0000000000000000000000000000000000000000000000000000000008152600401808060200182810382526023815260200180613b086023913960400191505060405180910390fd5b6000600560008481526020019081526020016000206001015411612cb1576040517f08c379a000000000000000000000000000000000000000000000000000000000815260040180806020018281038252605d815260200180613b9a605d913960600191505060405180910390fd5b60008161ffff161480612cc8575060018161ffff16145b612d1d576040517f08c379a0000000000000000000000000000000000000000000000000000000008152600401808060200182810382526033815260200180613aa56033913960400191505060405180910390fd5b612d6f83600660003373ffffffffffffffffffffffffffffffffffffffff1673ffffffffffffffffffffffffffffffffffffffff1681526020019081526020016000205461337690919063ffffffff16565b600660003373ffffffffffffffffffffffffffffffffffffffff1673ffffffffffffffffffffffffffffffffffffffff16815260200190815260200160002081905550612dba6139d6565b83816000018181525050428160200181815250508281604001818152505081816080019061ffff16908161ffff16815250506000816060018181525050600760003373ffffffffffffffffffffffffffffffffffffffff1673ffffffffffffffffffffffffffffffffffffffff1681526020019081526020016000208190806001815401808255809150506001900390600052602060002090600502016000909190919091506000820151816000015560208201518160010155604082015181600201556060820151816003015560808201518160040160006101000a81548161ffff021916908361ffff1602179055505050600860003373ffffffffffffffffffffffffffffffffffffffff1673ffffffffffffffffffffffffffffffffffffffff16815260200190815260200160002060009054906101000a900460ff16612f6257600a339080600181540180825580915050600190039060005260206000200160009091909190916101000a81548173ffffffffffffffffffffffffffffffffffffffff021916908373ffffffffffffffffffffffffffffffffffffffff1602179055505b6001600860003373ffffffffffffffffffffffffffffffffffffffff1673ffffffffffffffffffffffffffffffffffffffff16815260200190815260200160002060006101000a81548160ff021916908315150217905550612fcf84600c5461337690919063ffffffff16565b600c81905550600160009054906101000a900473ffffffffffffffffffffffffffffffffffffffff1673ffffffffffffffffffffffffffffffffffffffff166323b872dd3330876040518463ffffffff1660e01b8152600401808473ffffffffffffffffffffffffffffffffffffffff1681526020018373ffffffffffffffffffffffffffffffffffffffff1681526020018281526020019350505050602060405180830381600087803b15801561308657600080fd5b505af115801561309a573d6000803e3d6000fd5b505050506040513d60208110156130b057600080fd5b8101908080519060200190929190505050503373ffffffffffffffffffffffffffffffffffffffff167f1a48069d0547cc392ac119894ca10b48ec87b6f2e68b12c1abc2c7e641c45d428486856001600760003373ffffffffffffffffffffffffffffffffffffffff1673ffffffffffffffffffffffffffffffffffffffff1681526020019081526020016000208054905003604051808581526020018481526020018361ffff16815260200182815260200194505050505060405180910390a250505050565b61319d600080848152602001908152602001600020600201546131986133fe565b6129d3565b6131f2576040517f08c379a0000000000000000000000000000000000000000000000000000000008152600401808060200182810382526030815260200180613b2b6030913960400191505060405180910390fd5b6131fc8282613499565b5050565b6132146000801b61320f6133fe565b6129d3565b613269576040517f08c379a0000000000000000000000000000000000000000000000000000000008152600401808060200182810382526028815260200180613c896028913960400191505060405180910390fd5b6001600e60006101000a81548160ff0219169083151502179055507f9e87fac88ff661f02d44f95383c817fece4bce600a3dab7a54406878b965e75260405160405180910390a1565b60006132da836000018373ffffffffffffffffffffffffffffffffffffffff1660001b613611565b905092915050565b600061332483836040518060400160405280601e81526020017f536166654d6174683a207375627472616374696f6e206f766572666c6f770000815250613681565b905092915050565b600061336e83836040518060400160405280601a81526020017f536166654d6174683a206469766973696f6e206279207a65726f000000000000815250613741565b905092915050565b6000808284019050838110156133f4576040517f08c379a000000000000000000000000000000000000000000000000000000000815260040180806020018281038252601b8152602001807f536166654d6174683a206164646974696f6e206f766572666c6f77000000000081525060200191505060405180910390fd5b8091505092915050565b600033905090565b61342d816000808581526020019081526020016000206000016132b290919063ffffffff16565b156134955761343a6133fe565b73ffffffffffffffffffffffffffffffffffffffff168173ffffffffffffffffffffffffffffffffffffffff16837f2f8788117e7eff1d82e926ec794901d17c78024a50270940304540a733656f0d60405160405180910390a45b5050565b6134c08160008085815260200190815260200160002060000161380790919063ffffffff16565b15613528576134cd6133fe565b73ffffffffffffffffffffffffffffffffffffffff168173ffffffffffffffffffffffffffffffffffffffff16837ff6391f5c32d9c69d2a47ea670b442974b53935d1edc7fd64eb21e047a839171b60405160405180910390a45b5050565b60008083141561353f57600090506135ac565b600082840290508284828161355057fe5b04146135a7576040517f08c379a0000000000000000000000000000000000000000000000000000000008152600401808060200182810382526021815260200180613bf76021913960400191505060405180910390fd5b809150505b92915050565b60006135c18360000183613837565b60001c905092915050565b60006135f4836000018373ffffffffffffffffffffffffffffffffffffffff1660001b6138ba565b905092915050565b600061360a826000016138dd565b9050919050565b600061361d83836138ba565b61367657826000018290806001815401808255809150506001900390600052602060002001600090919091909150558260000180549050836001016000848152602001908152602001600020819055506001905061367b565b600090505b92915050565b600083831115829061372e576040517f08c379a00000000000000000000000000000000000000000000000000000000081526004018080602001828103825283818151815260200191508051906020019080838360005b838110156136f35780820151818401526020810190506136d8565b50505050905090810190601f1680156137205780820380516001836020036101000a031916815260200191505b509250505060405180910390fd5b5060008385039050809150509392505050565b600080831182906137ed576040517f08c379a00000000000000000000000000000000000000000000000000000000081526004018080602001828103825283818151815260200191508051906020019080838360005b838110156137b2578082015181840152602081019050613797565b50505050905090810190601f1680156137df5780820380516001836020036101000a031916815260200191505b509250505060405180910390fd5b5060008385816137f957fe5b049050809150509392505050565b600061382f836000018373ffffffffffffffffffffffffffffffffffffffff1660001b6138ee565b905092915050565b600081836000018054905011613898576040517f08c379a0000000000000000000000000000000000000000000000000000000008152600401808060200182810382526022815260200180613a0d6022913960400191505060405180910390fd5b8260000182815481106138a757fe5b9060005260206000200154905092915050565b600080836001016000848152602001908152602001600020541415905092915050565b600081600001805490509050919050565b600080836001016000848152602001908152602001600020549050600081146139ca576000600182039050600060018660000180549050039050600086600001828154811061393957fe5b906000526020600020015490508087600001848154811061395657fe5b906000526020600020018190555060018301876001016000838152602001908152602001600020819055508660000180548061398e57fe5b600190038181906000526020600020016000905590558660010160008781526020019081526020016000206000905560019450505050506139d0565b60009150505b92915050565b6040518060a0016040528060008152602001600081526020016000801916815260200160008152602001600061ffff168152509056fe456e756d657261626c655365743a20696e646578206f7574206f6620626f756e6473416363657373436f6e74726f6c3a2073656e646572206d75737420626520616e2061646d696e20746f206772616e7475736520636865636b5374616b6552657761726420666f72207374616b657320616363756d756c6174696e672072657761726420696e20746865204e617469766520546f6b656e7265776172642074797065206e6f74206b6e6f776e3a2030206973206e617469766520746f6b656e2c203120697320434c495163616e6e6f7420756e7374616b6520736f6f6e6572207468616e2074686520626c6f636b65642074696d652074696d65207374616b65206120706f736974697665206e756d626572206f6620746f6b656e7320416363657373436f6e74726f6c3a2073656e646572206d75737420626520616e2061646d696e20746f207265766f6b6575736520636865636b5374616b65436c697152657761726420666f72207374616b657320616363756d756c6174696e672072657761726420696e20434c49517468657265206973206e6f207374616b696e67207061636b616765207769746820746865206465636c61726564206e616d652c206f7220746865207374616b696e67207061636b61676520697320706f6f726c7920666f726d61746564536166654d6174683a206d756c7469706c69636174696f6e206f766572666c6f777468652069736e277420656e6f75676820434c495120696e207468697320636f6e747261637420746f2070617920796f757220726577617264207269676874206e6f77546865207374616b6520796f752061726520736561726368696e6720666f72206973206e6f7420646566696e656463616c6c657220646f6573206e6f74206861766520746865204d61696e7461696e657220726f6c65546f6b656e2063726561746f727320646964206e6f7420706c61636520656e6f756768206c697175696469747920696e2074686520636f6e747261637420666f7220796f75722072657761726420746f206265207061696463616c6c657220646f6573206e6f74206861766520746865205245574152445f50524f564944455220726f6c65416363657373436f6e74726f6c3a2063616e206f6e6c792072656e6f756e636520726f6c657320666f722073656c66a2646970667358221220ac6781dc6f36b73aaa377cdcb73e50c30d615c09fd655210fcc49ed8bf43fb9964736f6c63430007040033",
  "immutableReferences": {},
  "source": "// SPDX-License-Identifier: GPL-3.0\npragma solidity ^0.7.4;\n\nimport \"@openzeppelin/contracts/access/AccessControl.sol\";\nimport \"@openzeppelin/contracts/token/ERC20/IERC20.sol\";\nimport \"@openzeppelin/contracts/math/SafeMath.sol\";\n\ncontract CliqStaking is AccessControl {\n    using SafeMath for uint256;\n\n    string public constant NAME = \"Cliq Staking Contract\";\n    bytes32 public constant REWARD_PROVIDER = keccak256(\"REWARD_PROVIDER\"); // i upgraded solc and used REWARD_PROVIDER instead of whitelist role and DEFAULT_ADMIN_ROLE instead of whiteloist admin\n    uint256 private constant TIME_UNIT = 1;\n    // we can improve this with a \"unstaked:false\" flag when the user force withdraws the funds\n    // so he can collect the reward later\n    struct Stake {\n        uint256 _amount;\n        uint256 _timestamp;\n        bytes32 _packageName;\n        uint256 _withdrawnTimestamp;\n        uint16 _stakeRewardType; // 0 for native coin reward, 1 for CLIQ stake reward\n    }\n\n    struct YieldType {\n        bytes32 _packageName;\n        uint256 _daysLocked;\n        uint256 _daysBlocked;\n        uint256 _packageInterest;\n        uint256 _packageCliqReward; // the number of cliq token received for each native token staked\n    }\n\n    IERC20 public tokenContract;\n    IERC20 public CLIQ;\n\n    bytes32[] public packageNames;\n    uint256 decimals = 18;\n    mapping(bytes32 => YieldType) public packages;\n    mapping(address => uint256) public totalStakedBalance;\n    mapping(address => Stake[]) public stakes;\n    mapping(address => bool) public hasStaked;\n    address private owner;\n    address[] stakers;\n    uint256 rewardProviderTokenAllowance = 0;\n    uint256 public totalStakedFunds = 0;\n    uint256 cliqRewardUnits = 1000000; // ciq reward for 1.000.000 tokens staked\n    bool public paused = false;\n\n    event NativeTokenRewardAdded(address indexed _from, uint256 _val);\n    event NativeTokenRewardRemoved(address indexed _to, uint256 _val);\n    event StakeAdded(\n        address indexed _usr,\n        bytes32 _packageName,\n        uint256 _amount,\n        uint16 _stakeRewardType,\n        uint256 _stakeIndex\n    );\n    event Unstaked(address indexed _usr, uint256 stakeIndex);\n    event ForcefullyWithdrawn(address indexed _usr, uint256 stakeIndex);\n    event Paused();\n    event Unpaused();\n\n    modifier onlyRewardProvider() {\n        require(\n            hasRole(REWARD_PROVIDER, _msgSender()),\n            \"caller does not have the REWARD_PROVIDER role\"\n        );\n        _;\n    }\n\n    modifier onlyMaintainer() {\n        require(\n            hasRole(DEFAULT_ADMIN_ROLE, _msgSender()),\n            \"caller does not have the Maintainer role\"\n        );\n        _;\n    }\n\n    constructor(address _stakedToken, address _CLIQ) {\n        _setupRole(DEFAULT_ADMIN_ROLE, _msgSender());\n        tokenContract = IERC20(_stakedToken);\n        CLIQ = IERC20(_CLIQ);\n        //define packages here\n        _definePackage(\"Silver Package\", 30, 15, 1740084, 1000000); // in 30 days you receive: 1.740084% of staked token OR 1 cliq for 1 token staked || 6 decimals\n        _definePackage(\"Gold Package\", 60, 30, 4735920, 1500000); // 1.5 cliq for 1 token staked\n        _definePackage(\"Platinum Package\", 90, 45, 11217430, 2000000); // 2 cliq for 1 token staked\n    }\n\n    function stakesLength(address _address) external view returns (uint256) {\n        return stakes[_address].length;\n    }\n\n    function packageLength() external view returns (uint256) {\n        return packageNames.length;\n    }\n\n    function stakeTokens(\n        uint256 _amount,\n        bytes32 _packageName,\n        uint16 _stakeRewardType\n    ) public {\n        require(paused == false, \"Staking is  paused\");\n        require(_amount > 0, \" stake a positive number of tokens \");\n        require(\n            packages[_packageName]._daysLocked > 0,\n            \"there is no staking package with the declared name, or the staking package is poorly formated\"\n        );\n        require(\n            _stakeRewardType == 0 || _stakeRewardType == 1,\n            \"reward type not known: 0 is native token, 1 is CLIQ\"\n        );\n\n        //add to stake sum of address\n        totalStakedBalance[msg.sender] = totalStakedBalance[msg.sender].add(\n            _amount\n        );\n\n        //add to stakes\n        Stake memory currentStake;\n        currentStake._amount = _amount;\n        currentStake._timestamp = block.timestamp;\n        currentStake._packageName = _packageName;\n        currentStake._stakeRewardType = _stakeRewardType;\n        currentStake._withdrawnTimestamp = 0;\n        stakes[msg.sender].push(currentStake);\n\n        //if user is not declared as a staker, push him into the staker array\n        if (!hasStaked[msg.sender]) {\n            stakers.push(msg.sender);\n        }\n\n        //update the bool mapping of past and current stakers\n        hasStaked[msg.sender] = true;\n        totalStakedFunds = totalStakedFunds.add(_amount);\n\n        //transfer from (need allowance)\n        tokenContract.transferFrom(msg.sender, address(this), _amount);\n\n        StakeAdded(\n            msg.sender,\n            _packageName,\n            _amount,\n            _stakeRewardType,\n            stakes[msg.sender].length - 1\n        );\n    }\n\n    function checkStakeReward(address _address, uint256 stakeIndex)\n        public\n        view\n        returns (uint256 yieldReward, uint256 timeDiff)\n    {\n        require(\n            stakes[_address][stakeIndex]._stakeRewardType == 0,\n            \"use checkStakeCliqReward for stakes accumulating reward in CLIQ\"\n        );\n\n        uint256 currentTime = block.timestamp;\n        if (stakes[_address][stakeIndex]._withdrawnTimestamp != 0) {\n            currentTime = stakes[_address][stakeIndex]._withdrawnTimestamp;\n        }\n\n        uint256 stakingTime = stakes[_address][stakeIndex]._timestamp;\n        uint256 daysLocked =\n            packages[stakes[_address][stakeIndex]._packageName]._daysLocked;\n        uint256 packageInterest =\n            packages[stakes[_address][stakeIndex]._packageName]\n                ._packageInterest;\n\n        timeDiff = currentTime.sub(stakingTime).div(TIME_UNIT);\n\n        uint256 yieldPeriods = timeDiff.div(daysLocked); // the _days is in seconds for now so can fucking test stuff\n\n        yieldReward = 0;\n        uint256 totalStake = stakes[_address][stakeIndex]._amount;\n\n        // for each period of days defined in the package, compound the interest\n        while (yieldPeriods > 0) {\n            uint256 currentReward =\n                totalStake.mul(packageInterest).div(100000000); //6 decimals to package interest percentage\n\n            totalStake = totalStake.add(currentReward);\n\n            yieldReward = yieldReward.add(currentReward);\n\n            yieldPeriods--;\n        }\n    }\n\n    function checkStakeCliqReward(address _address, uint256 stakeIndex)\n        public\n        view\n        returns (uint256 yieldReward, uint256 timeDiff)\n    {\n        require(\n            stakes[_address][stakeIndex]._stakeRewardType == 1,\n            \"use checkStakeReward for stakes accumulating reward in the Native Token\"\n        );\n\n        uint256 currentTime = block.timestamp;\n        if (stakes[_address][stakeIndex]._withdrawnTimestamp != 0) {\n            currentTime = stakes[_address][stakeIndex]._withdrawnTimestamp;\n        }\n\n        uint256 stakingTime = stakes[_address][stakeIndex]._timestamp;\n        uint256 daysLocked =\n            packages[stakes[_address][stakeIndex]._packageName]._daysLocked;\n        uint256 packageCliqInterest =\n            packages[stakes[_address][stakeIndex]._packageName]\n                ._packageCliqReward;\n\n        timeDiff = currentTime.sub(stakingTime).div(TIME_UNIT);\n\n        uint256 yieldPeriods = timeDiff.div(daysLocked); // the _days is in seconds for now so i can fucking test stuff\n\n        yieldReward = stakes[_address][stakeIndex]._amount.mul(\n            packageCliqInterest\n        );\n\n        yieldReward = yieldReward.div(cliqRewardUnits);\n\n        yieldReward = yieldReward.mul(yieldPeriods);\n    }\n\n    function unstake(uint256 stakeIndex) public {\n        require(\n            stakeIndex < stakes[msg.sender].length,\n            \"The stake you are searching for is not defined\"\n        );\n        require(\n            stakes[msg.sender][stakeIndex]._withdrawnTimestamp == 0,\n            \"Stake already withdrawn\"\n        );\n\n        // decrease total balance\n        totalStakedFunds = totalStakedFunds.sub(\n            stakes[msg.sender][stakeIndex]._amount\n        );\n\n        //decrease user total staked balance\n        totalStakedBalance[msg.sender] = totalStakedBalance[msg.sender].sub(\n            stakes[msg.sender][stakeIndex]._amount\n        );\n\n        //close the staking package (fix the withdrawn timestamp)\n        stakes[msg.sender][stakeIndex]._withdrawnTimestamp = block.timestamp;\n\n        if (stakes[msg.sender][stakeIndex]._stakeRewardType == 0) {\n            (uint256 reward, uint256 daysSpent) =\n                checkStakeReward(msg.sender, stakeIndex);\n\n            require(\n                rewardProviderTokenAllowance > reward,\n                \"Token creators did not place enough liquidity in the contract for your reward to be paid\"\n            );\n\n            require(\n                daysSpent >\n                    packages[stakes[msg.sender][stakeIndex]._packageName]\n                        ._daysBlocked,\n                \"cannot unstake sooner than the blocked time time\"\n            );\n\n            rewardProviderTokenAllowance = rewardProviderTokenAllowance.sub(\n                reward\n            );\n\n            uint256 totalStake =\n                stakes[msg.sender][stakeIndex]._amount.add(reward);\n\n            tokenContract.transfer(msg.sender, totalStake);\n        } else if (stakes[msg.sender][stakeIndex]._stakeRewardType == 1) {\n            (uint256 cliqReward, uint256 daysSpent) =\n                checkStakeCliqReward(msg.sender, stakeIndex);\n\n            require(\n                CLIQ.balanceOf(address(this)) >= cliqReward,\n                \"the isn't enough CLIQ in this contract to pay your reward right now\"\n            );\n\n            require(\n                daysSpent >\n                    packages[stakes[msg.sender][stakeIndex]._packageName]\n                        ._daysBlocked,\n                \"cannot unstake sooner than the blocked time time\"\n            );\n\n            CLIQ.transfer(msg.sender, cliqReward);\n            tokenContract.transfer(\n                msg.sender,\n                stakes[msg.sender][stakeIndex]._amount\n            );\n        } else {\n            revert();\n        }\n\n        emit Unstaked(msg.sender, stakeIndex);\n    }\n\n    function forceWithdraw(uint256 stakeIndex) public {\n        require(\n            stakes[msg.sender][stakeIndex]._amount > 0,\n            \"The stake you are searching for is not defined\"\n        );\n        require(\n            stakes[msg.sender][stakeIndex]._withdrawnTimestamp == 0,\n            \"Stake already withdrawn\"\n        );\n\n        stakes[msg.sender][stakeIndex]._withdrawnTimestamp = block.timestamp;\n        totalStakedFunds = totalStakedFunds.sub(\n            stakes[msg.sender][stakeIndex]._amount\n        );\n        totalStakedBalance[msg.sender] = totalStakedBalance[msg.sender].sub(\n            stakes[msg.sender][stakeIndex]._amount\n        );\n\n        uint256 daysSpent =\n            block.timestamp.sub(stakes[msg.sender][stakeIndex]._timestamp).div(\n                TIME_UNIT\n            ); //86400\n\n        require(\n            daysSpent >\n                packages[stakes[msg.sender][stakeIndex]._packageName]\n                    ._daysBlocked,\n            \"cannot unstake sooner than the blocked time time\"\n        );\n\n        tokenContract.transfer(\n            msg.sender,\n            stakes[msg.sender][stakeIndex]._amount\n        );\n\n        emit ForcefullyWithdrawn(msg.sender, stakeIndex);\n    }\n\n    function pauseStaking() public onlyMaintainer {\n        paused = true;\n        emit Paused();\n    }\n\n    function unpauseStaking() public onlyMaintainer {\n        paused = false;\n        emit Unpaused();\n    }\n\n    function addStakedTokenReward(uint256 _amount)\n        public\n        onlyRewardProvider\n        returns (bool)\n    {\n        //transfer from (need allowance)\n        rewardProviderTokenAllowance = rewardProviderTokenAllowance.add(\n            _amount\n        );\n        tokenContract.transferFrom(msg.sender, address(this), _amount);\n\n        emit NativeTokenRewardAdded(msg.sender, _amount);\n        return true;\n    }\n\n    function removeStakedTokenReward(uint256 _amount)\n        public\n        onlyRewardProvider\n        returns (bool)\n    {\n        require(\n            _amount <= rewardProviderTokenAllowance,\n            \"you cannot withdraw this amount\"\n        );\n        rewardProviderTokenAllowance = rewardProviderTokenAllowance.sub(\n            _amount\n        );\n        tokenContract.transfer(msg.sender, _amount);\n        emit NativeTokenRewardRemoved(msg.sender, _amount);\n        return true;\n    }\n\n    function _definePackage(\n        bytes32 _name,\n        uint256 _days,\n        uint256 _daysBlocked,\n        uint256 _packageInterest,\n        uint256 _packageCliqReward\n    ) private {\n        YieldType memory package;\n        package._packageName = _name;\n        package._daysLocked = _days;\n        package._packageInterest = _packageInterest;\n        package._packageCliqReward = _packageCliqReward;\n        package._daysBlocked = _daysBlocked;\n        packages[_name] = package;\n        packageNames.push(_name);\n    }\n}\n",
  "sourcePath": "/Users/codrin/Projects/erc20-staking/deficliq-staking/contracts/cliqStaking.sol",
  "compiler": {
    "name": "solc",
    "version": "0.7.4+commit.3f05b770.Emscripten.clang"
  },
  "schemaVersion": "3.3.3",
  "updatedAt": "2021-01-31T14:54:53.459Z",
  "networkType": "ethereum",
  "devdoc": {
    "kind": "dev",
    "methods": {
      "getRoleAdmin(bytes32)": {
        "details": "Returns the admin role that controls `role`. See {grantRole} and {revokeRole}. To change a role's admin, use {_setRoleAdmin}."
      },
      "getRoleMember(bytes32,uint256)": {
        "details": "Returns one of the accounts that have `role`. `index` must be a value between 0 and {getRoleMemberCount}, non-inclusive. Role bearers are not sorted in any particular way, and their ordering may change at any point. WARNING: When using {getRoleMember} and {getRoleMemberCount}, make sure you perform all queries on the same block. See the following https://forum.openzeppelin.com/t/iterating-over-elements-on-enumerableset-in-openzeppelin-contracts/2296[forum post] for more information."
      },
      "getRoleMemberCount(bytes32)": {
        "details": "Returns the number of accounts that have `role`. Can be used together with {getRoleMember} to enumerate all bearers of a role."
      },
      "grantRole(bytes32,address)": {
        "details": "Grants `role` to `account`. If `account` had not been already granted `role`, emits a {RoleGranted} event. Requirements: - the caller must have ``role``'s admin role."
      },
      "hasRole(bytes32,address)": {
        "details": "Returns `true` if `account` has been granted `role`."
      },
      "renounceRole(bytes32,address)": {
        "details": "Revokes `role` from the calling account. Roles are often managed via {grantRole} and {revokeRole}: this function's purpose is to provide a mechanism for accounts to lose their privileges if they are compromised (such as when a trusted device is misplaced). If the calling account had been granted `role`, emits a {RoleRevoked} event. Requirements: - the caller must be `account`."
      },
      "revokeRole(bytes32,address)": {
        "details": "Revokes `role` from `account`. If `account` had been granted `role`, emits a {RoleRevoked} event. Requirements: - the caller must have ``role``'s admin role."
      }
    },
    "version": 1
  },
  "userdoc": {
    "kind": "user",
    "methods": {},
    "version": 1
  }
}