{
  "contractName": "CliqStaking",
  "abi": [
    {
      "inputs": [
        {
          "internalType": "address",
          "name": "_stakedToken",
          "type": "address"
        },
        {
          "internalType": "address",
          "name": "_CLIQ",
          "type": "address"
        }
      ],
      "stateMutability": "nonpayable",
      "type": "constructor"
    },
    {
      "anonymous": false,
      "inputs": [
        {
          "indexed": true,
          "internalType": "address",
          "name": "_usr",
          "type": "address"
        },
        {
          "indexed": false,
          "internalType": "uint256",
          "name": "_amount",
          "type": "uint256"
        }
      ],
      "name": "ETHParked",
      "type": "event"
    },
    {
      "anonymous": false,
      "inputs": [
        {
          "indexed": true,
          "internalType": "address",
          "name": "_usr",
          "type": "address"
        },
        {
          "indexed": false,
          "internalType": "uint256",
          "name": "stakeIndex",
          "type": "uint256"
        }
      ],
      "name": "ForcefullyWithdrawn",
      "type": "event"
    },
    {
      "anonymous": false,
      "inputs": [
        {
          "indexed": true,
          "internalType": "address",
          "name": "_usr",
          "type": "address"
        },
        {
          "indexed": true,
          "internalType": "address",
          "name": "_token",
          "type": "address"
        },
        {
          "indexed": false,
          "internalType": "uint256",
          "name": "_amount",
          "type": "uint256"
        }
      ],
      "name": "FundsParked",
      "type": "event"
    },
    {
      "anonymous": false,
      "inputs": [
        {
          "indexed": true,
          "internalType": "address",
          "name": "_from",
          "type": "address"
        },
        {
          "indexed": false,
          "internalType": "uint256",
          "name": "_val",
          "type": "uint256"
        }
      ],
      "name": "NativeTokenRewardAdded",
      "type": "event"
    },
    {
      "anonymous": false,
      "inputs": [
        {
          "indexed": true,
          "internalType": "address",
          "name": "_to",
          "type": "address"
        },
        {
          "indexed": false,
          "internalType": "uint256",
          "name": "_val",
          "type": "uint256"
        }
      ],
      "name": "NativeTokenRewardRemoved",
      "type": "event"
    },
    {
      "anonymous": false,
      "inputs": [
        {
          "indexed": true,
          "internalType": "bytes32",
          "name": "role",
          "type": "bytes32"
        },
        {
          "indexed": true,
          "internalType": "bytes32",
          "name": "previousAdminRole",
          "type": "bytes32"
        },
        {
          "indexed": true,
          "internalType": "bytes32",
          "name": "newAdminRole",
          "type": "bytes32"
        }
      ],
      "name": "RoleAdminChanged",
      "type": "event"
    },
    {
      "anonymous": false,
      "inputs": [
        {
          "indexed": true,
          "internalType": "bytes32",
          "name": "role",
          "type": "bytes32"
        },
        {
          "indexed": true,
          "internalType": "address",
          "name": "account",
          "type": "address"
        },
        {
          "indexed": true,
          "internalType": "address",
          "name": "sender",
          "type": "address"
        }
      ],
      "name": "RoleGranted",
      "type": "event"
    },
    {
      "anonymous": false,
      "inputs": [
        {
          "indexed": true,
          "internalType": "bytes32",
          "name": "role",
          "type": "bytes32"
        },
        {
          "indexed": true,
          "internalType": "address",
          "name": "account",
          "type": "address"
        },
        {
          "indexed": true,
          "internalType": "address",
          "name": "sender",
          "type": "address"
        }
      ],
      "name": "RoleRevoked",
      "type": "event"
    },
    {
      "anonymous": false,
      "inputs": [
        {
          "indexed": true,
          "internalType": "address",
          "name": "_usr",
          "type": "address"
        },
        {
          "indexed": false,
          "internalType": "bytes32",
          "name": "_packageName",
          "type": "bytes32"
        },
        {
          "indexed": false,
          "internalType": "uint256",
          "name": "_amount",
          "type": "uint256"
        },
        {
          "indexed": false,
          "internalType": "uint16",
          "name": "_stakeRewardType",
          "type": "uint16"
        },
        {
          "indexed": false,
          "internalType": "uint256",
          "name": "_stakeIndex",
          "type": "uint256"
        }
      ],
      "name": "StakeAdded",
      "type": "event"
    },
    {
      "anonymous": false,
      "inputs": [
        {
          "indexed": true,
          "internalType": "address",
          "name": "_usr",
          "type": "address"
        },
        {
          "indexed": false,
          "internalType": "uint256",
          "name": "stakeIndex",
          "type": "uint256"
        }
      ],
      "name": "Unstaked",
      "type": "event"
    },
    {
      "inputs": [],
      "name": "CLIQ",
      "outputs": [
        {
          "internalType": "contract IERC20",
          "name": "",
          "type": "address"
        }
      ],
      "stateMutability": "view",
      "type": "function",
      "constant": true
    },
    {
      "inputs": [],
      "name": "DEFAULT_ADMIN_ROLE",
      "outputs": [
        {
          "internalType": "bytes32",
          "name": "",
          "type": "bytes32"
        }
      ],
      "stateMutability": "view",
      "type": "function",
      "constant": true
    },
    {
      "inputs": [],
      "name": "REWARD_PROVIDER",
      "outputs": [
        {
          "internalType": "bytes32",
          "name": "",
          "type": "bytes32"
        }
      ],
      "stateMutability": "view",
      "type": "function",
      "constant": true
    },
    {
      "inputs": [
        {
          "internalType": "bytes32",
          "name": "role",
          "type": "bytes32"
        }
      ],
      "name": "getRoleAdmin",
      "outputs": [
        {
          "internalType": "bytes32",
          "name": "",
          "type": "bytes32"
        }
      ],
      "stateMutability": "view",
      "type": "function",
      "constant": true
    },
    {
      "inputs": [
        {
          "internalType": "bytes32",
          "name": "role",
          "type": "bytes32"
        },
        {
          "internalType": "uint256",
          "name": "index",
          "type": "uint256"
        }
      ],
      "name": "getRoleMember",
      "outputs": [
        {
          "internalType": "address",
          "name": "",
          "type": "address"
        }
      ],
      "stateMutability": "view",
      "type": "function",
      "constant": true
    },
    {
      "inputs": [
        {
          "internalType": "bytes32",
          "name": "role",
          "type": "bytes32"
        }
      ],
      "name": "getRoleMemberCount",
      "outputs": [
        {
          "internalType": "uint256",
          "name": "",
          "type": "uint256"
        }
      ],
      "stateMutability": "view",
      "type": "function",
      "constant": true
    },
    {
      "inputs": [
        {
          "internalType": "bytes32",
          "name": "role",
          "type": "bytes32"
        },
        {
          "internalType": "address",
          "name": "account",
          "type": "address"
        }
      ],
      "name": "grantRole",
      "outputs": [],
      "stateMutability": "nonpayable",
      "type": "function"
    },
    {
      "inputs": [
        {
          "internalType": "bytes32",
          "name": "role",
          "type": "bytes32"
        },
        {
          "internalType": "address",
          "name": "account",
          "type": "address"
        }
      ],
      "name": "hasRole",
      "outputs": [
        {
          "internalType": "bool",
          "name": "",
          "type": "bool"
        }
      ],
      "stateMutability": "view",
      "type": "function",
      "constant": true
    },
    {
      "inputs": [
        {
          "internalType": "address",
          "name": "",
          "type": "address"
        }
      ],
      "name": "hasStaked",
      "outputs": [
        {
          "internalType": "bool",
          "name": "",
          "type": "bool"
        }
      ],
      "stateMutability": "view",
      "type": "function",
      "constant": true
    },
    {
      "inputs": [],
      "name": "name",
      "outputs": [
        {
          "internalType": "string",
          "name": "",
          "type": "string"
        }
      ],
      "stateMutability": "view",
      "type": "function",
      "constant": true
    },
    {
      "inputs": [
        {
          "internalType": "uint256",
          "name": "",
          "type": "uint256"
        }
      ],
      "name": "packageNames",
      "outputs": [
        {
          "internalType": "bytes32",
          "name": "",
          "type": "bytes32"
        }
      ],
      "stateMutability": "view",
      "type": "function",
      "constant": true
    },
    {
      "inputs": [
        {
          "internalType": "bytes32",
          "name": "",
          "type": "bytes32"
        }
      ],
      "name": "packages",
      "outputs": [
        {
          "internalType": "bytes32",
          "name": "_packageName",
          "type": "bytes32"
        },
        {
          "internalType": "uint256",
          "name": "_daysLocked",
          "type": "uint256"
        },
        {
          "internalType": "uint256",
          "name": "_packageInterest",
          "type": "uint256"
        },
        {
          "internalType": "uint256",
          "name": "_packageCliqReward",
          "type": "uint256"
        }
      ],
      "stateMutability": "view",
      "type": "function",
      "constant": true
    },
    {
      "inputs": [
        {
          "internalType": "bytes32",
          "name": "role",
          "type": "bytes32"
        },
        {
          "internalType": "address",
          "name": "account",
          "type": "address"
        }
      ],
      "name": "renounceRole",
      "outputs": [],
      "stateMutability": "nonpayable",
      "type": "function"
    },
    {
      "inputs": [
        {
          "internalType": "bytes32",
          "name": "role",
          "type": "bytes32"
        },
        {
          "internalType": "address",
          "name": "account",
          "type": "address"
        }
      ],
      "name": "revokeRole",
      "outputs": [],
      "stateMutability": "nonpayable",
      "type": "function"
    },
    {
      "inputs": [
        {
          "internalType": "address",
          "name": "",
          "type": "address"
        },
        {
          "internalType": "uint256",
          "name": "",
          "type": "uint256"
        }
      ],
      "name": "stakes",
      "outputs": [
        {
          "internalType": "uint256",
          "name": "_amount",
          "type": "uint256"
        },
        {
          "internalType": "uint256",
          "name": "_timestamp",
          "type": "uint256"
        },
        {
          "internalType": "bytes32",
          "name": "_packageName",
          "type": "bytes32"
        },
        {
          "internalType": "uint256",
          "name": "_withdrawnTimestamp",
          "type": "uint256"
        },
        {
          "internalType": "uint16",
          "name": "_stakeRewardType",
          "type": "uint16"
        }
      ],
      "stateMutability": "view",
      "type": "function",
      "constant": true
    },
    {
      "inputs": [],
      "name": "tokenContract",
      "outputs": [
        {
          "internalType": "contract IERC20",
          "name": "",
          "type": "address"
        }
      ],
      "stateMutability": "view",
      "type": "function",
      "constant": true
    },
    {
      "inputs": [
        {
          "internalType": "address",
          "name": "",
          "type": "address"
        }
      ],
      "name": "totalStakedBalance",
      "outputs": [
        {
          "internalType": "uint256",
          "name": "",
          "type": "uint256"
        }
      ],
      "stateMutability": "view",
      "type": "function",
      "constant": true
    },
    {
      "inputs": [],
      "name": "totalStakedFunds",
      "outputs": [
        {
          "internalType": "uint256",
          "name": "",
          "type": "uint256"
        }
      ],
      "stateMutability": "view",
      "type": "function",
      "constant": true
    },
    {
      "inputs": [
        {
          "internalType": "address",
          "name": "_address",
          "type": "address"
        }
      ],
      "name": "stakesLength",
      "outputs": [
        {
          "internalType": "uint256",
          "name": "",
          "type": "uint256"
        }
      ],
      "stateMutability": "view",
      "type": "function",
      "constant": true
    },
    {
      "inputs": [],
      "name": "packageLength",
      "outputs": [
        {
          "internalType": "uint256",
          "name": "",
          "type": "uint256"
        }
      ],
      "stateMutability": "view",
      "type": "function",
      "constant": true
    },
    {
      "inputs": [
        {
          "internalType": "uint256",
          "name": "_amount",
          "type": "uint256"
        },
        {
          "internalType": "bytes32",
          "name": "_packageName",
          "type": "bytes32"
        },
        {
          "internalType": "uint16",
          "name": "_stakeRewardType",
          "type": "uint16"
        }
      ],
      "name": "stakeTokens",
      "outputs": [],
      "stateMutability": "nonpayable",
      "type": "function"
    },
    {
      "inputs": [
        {
          "internalType": "address",
          "name": "_address",
          "type": "address"
        },
        {
          "internalType": "uint256",
          "name": "stakeIndex",
          "type": "uint256"
        }
      ],
      "name": "checkStakeReward",
      "outputs": [
        {
          "internalType": "uint256",
          "name": "",
          "type": "uint256"
        }
      ],
      "stateMutability": "view",
      "type": "function",
      "constant": true
    },
    {
      "inputs": [
        {
          "internalType": "address",
          "name": "_address",
          "type": "address"
        },
        {
          "internalType": "uint256",
          "name": "stakeIndex",
          "type": "uint256"
        }
      ],
      "name": "checkStakeCliqReward",
      "outputs": [
        {
          "internalType": "uint256",
          "name": "",
          "type": "uint256"
        }
      ],
      "stateMutability": "view",
      "type": "function",
      "constant": true
    },
    {
      "inputs": [
        {
          "internalType": "uint256",
          "name": "stakeIndex",
          "type": "uint256"
        }
      ],
      "name": "unstake",
      "outputs": [],
      "stateMutability": "nonpayable",
      "type": "function"
    },
    {
      "inputs": [
        {
          "internalType": "uint256",
          "name": "stakeIndex",
          "type": "uint256"
        }
      ],
      "name": "forceWithdraw",
      "outputs": [],
      "stateMutability": "nonpayable",
      "type": "function"
    },
    {
      "inputs": [
        {
          "internalType": "uint256",
          "name": "_parkedAmount",
          "type": "uint256"
        },
        {
          "internalType": "address",
          "name": "tokenAddr",
          "type": "address"
        }
      ],
      "name": "parkFunds",
      "outputs": [
        {
          "internalType": "bool",
          "name": "",
          "type": "bool"
        }
      ],
      "stateMutability": "nonpayable",
      "type": "function"
    },
    {
      "inputs": [
        {
          "internalType": "uint256",
          "name": "_parkedAmount",
          "type": "uint256"
        }
      ],
      "name": "parkETH",
      "outputs": [],
      "stateMutability": "nonpayable",
      "type": "function"
    },
    {
      "inputs": [
        {
          "internalType": "uint256",
          "name": "_amount",
          "type": "uint256"
        }
      ],
      "name": "addStakedTokenReward",
      "outputs": [
        {
          "internalType": "bool",
          "name": "",
          "type": "bool"
        }
      ],
      "stateMutability": "nonpayable",
      "type": "function"
    },
    {
      "inputs": [
        {
          "internalType": "uint256",
          "name": "_amount",
          "type": "uint256"
        }
      ],
      "name": "removeStakedTokenReward",
      "outputs": [
        {
          "internalType": "bool",
          "name": "",
          "type": "bool"
        }
      ],
      "stateMutability": "nonpayable",
      "type": "function"
    }
  ],
  "bytecode": "0x608060405260126004556000600b556000600c55620f4240600d553480156200002757600080fd5b50604051620040a1380380620040a1833981810160405260408110156200004d57600080fd5b8101908080519060200190929190805190602001909291905050506200008c6000801b62000080620001c160201b60201c565b620001c960201b60201c565b81600160006101000a81548173ffffffffffffffffffffffffffffffffffffffff021916908373ffffffffffffffffffffffffffffffffffffffff16021790555080600260006101000a81548173ffffffffffffffffffffffffffffffffffffffff021916908373ffffffffffffffffffffffffffffffffffffffff160217905550620001477f53696c766572205061636b616765000000000000000000000000000000000000601e6008620f4240620001df60201b60201c565b620001807f476f6c64205061636b6167650000000000000000000000000000000000000000603c60126216e360620001df60201b60201c565b620001b97f506c6174696e756d205061636b61676500000000000000000000000000000000605a601e621e8480620001df60201b60201c565b505062000423565b600033905090565b620001db82826200028060201b60201c565b5050565b620001e9620003f8565b8481600001818152505083816020018181525050828160400181815250508181606001818152505080600560008781526020019081526020016000206000820151816000015560208201518160010155604082015181600201556060820151816003015590505060038590806001815401808255809150506001900390600052602060002001600090919091909150555050505050565b620002ae816000808581526020019081526020016000206000016200032360201b620031881790919060201c565b156200031f57620002c4620001c160201b60201c565b73ffffffffffffffffffffffffffffffffffffffff168173ffffffffffffffffffffffffffffffffffffffff16837f2f8788117e7eff1d82e926ec794901d17c78024a50270940304540a733656f0d60405160405180910390a45b5050565b600062000353836000018373ffffffffffffffffffffffffffffffffffffffff1660001b6200035b60201b60201c565b905092915050565b60006200036f8383620003d560201b60201c565b620003ca578260000182908060018154018082558091505060019003906000526020600020016000909190919091505582600001805490508360010160008481526020019081526020016000208190555060019050620003cf565b600090505b92915050565b600080836001016000848152602001908152602001600020541415905092915050565b6040518060800160405280600080191681526020016000815260200160008152602001600081525090565b613c6e80620004336000396000f3fe608060405234801561001057600080fd5b50600436106101cf5760003560e01c8063711028191161010457806391d14854116100a2578063ca15c87311610071578063ca15c873146108d6578063cb2b0d6114610918578063d547741f1461095e578063df465e15146109ac576101cf565b806391d14854146107dc578063a217fddf14610840578063bc6a897e1461085e578063c93c8f341461087c576101cf565b80637c329830116100de5780637c3298301461067c5780637e039153146106d4578063864792b4146107185780639010d07c1461077a576101cf565b806371102819146105b55780637156145c1461060c57806377e62a301461063a576101cf565b80632f2ff15d116101715780634d85bd9f1161014b5780634d85bd9f1461045957806355a373d61461049d578063584b62a1146104d15780635925e37e14610553576101cf565b80632f2ff15d1461036557806336568abe146103b357806349fc9df714610401576101cf565b80631e1cb732116101ad5780631e1cb732146102a35780631faee868146102d7578063248a9ca3146102f55780632e17de7814610337576101cf565b806306fdde03146101d45780630fcc56f71461025757806318ec2d5c14610285575b600080fd5b6101dc610a10565b6040518080602001828103825283818151815260200191508051906020019080838360005b8381101561021c578082015181840152602081019050610201565b50505050905090810190601f1680156102495780820380516001836020036101000a031916815260200191505b509250505060405180910390f35b6102836004803603602081101561026d57600080fd5b8101908080359060200190929190505050610a49565b005b61028d610f0f565b6040518082815260200191505060405180910390f35b6102ab610f15565b604051808273ffffffffffffffffffffffffffffffffffffffff16815260200191505060405180910390f35b6102df610f3b565b6040518082815260200191505060405180910390f35b6103216004803603602081101561030b57600080fd5b8101908080359060200190929190505050610f48565b6040518082815260200191505060405180910390f35b6103636004803603602081101561034d57600080fd5b8101908080359060200190929190505050610f67565b005b6103b16004803603604081101561037b57600080fd5b8101908080359060200190929190803573ffffffffffffffffffffffffffffffffffffffff169060200190929190505050611949565b005b6103ff600480360360408110156103c957600080fd5b8101908080359060200190929190803573ffffffffffffffffffffffffffffffffffffffff1690602001909291905050506119d2565b005b6104436004803603602081101561041757600080fd5b81019080803573ffffffffffffffffffffffffffffffffffffffff169060200190929190505050611a6b565b6040518082815260200191505060405180910390f35b6104856004803603602081101561046f57600080fd5b8101908080359060200190929190505050611ab7565b60405180821515815260200191505060405180910390f35b6104a5611cf8565b604051808273ffffffffffffffffffffffffffffffffffffffff16815260200191505060405180910390f35b61051d600480360360408110156104e757600080fd5b81019080803573ffffffffffffffffffffffffffffffffffffffff16906020019092919080359060200190929190505050611d1e565b604051808681526020018581526020018481526020018381526020018261ffff1681526020019550505050505060405180910390f35b61059f6004803603604081101561056957600080fd5b81019080803573ffffffffffffffffffffffffffffffffffffffff16906020019092919080359060200190929190505050611d7f565b6040518082815260200191505060405180910390f35b6105e1600480360360208110156105cb57600080fd5b8101908080359060200190929190505050612190565b6040518085815260200184815260200183815260200182815260200194505050505060405180910390f35b6106386004803603602081101561062257600080fd5b81019080803590602001909291905050506121c0565b005b6106666004803603602081101561065057600080fd5b81019080803590602001909291905050506122c1565b6040518082815260200191505060405180910390f35b6106be6004803603602081101561069257600080fd5b81019080803573ffffffffffffffffffffffffffffffffffffffff1690602001909291905050506122e5565b6040518082815260200191505060405180910390f35b610700600480360360208110156106ea57600080fd5b81019080803590602001909291905050506122fd565b60405180821515815260200191505060405180910390f35b6107646004803603604081101561072e57600080fd5b81019080803573ffffffffffffffffffffffffffffffffffffffff169060200190929190803590602001909291905050506124e4565b6040518082815260200191505060405180910390f35b6107b06004803603604081101561079057600080fd5b810190808035906020019092919080359060200190929190505050612925565b604051808273ffffffffffffffffffffffffffffffffffffffff16815260200191505060405180910390f35b610828600480360360408110156107f257600080fd5b8101908080359060200190929190803573ffffffffffffffffffffffffffffffffffffffff169060200190929190505050612956565b60405180821515815260200191505060405180910390f35b610848612987565b6040518082815260200191505060405180910390f35b61086661298e565b6040518082815260200191505060405180910390f35b6108be6004803603602081101561089257600080fd5b81019080803573ffffffffffffffffffffffffffffffffffffffff1690602001909291905050506129b2565b60405180821515815260200191505060405180910390f35b610902600480360360208110156108ec57600080fd5b81019080803590602001909291905050506129d2565b6040518082815260200191505060405180910390f35b61095c6004803603606081101561092e57600080fd5b810190808035906020019092919080359060200190929190803561ffff1690602001909291905050506129f8565b005b6109aa6004803603604081101561097457600080fd5b8101908080359060200190929190803573ffffffffffffffffffffffffffffffffffffffff169060200190929190505050612f7b565b005b6109f8600480360360408110156109c257600080fd5b8101908080359060200190929190803573ffffffffffffffffffffffffffffffffffffffff169060200190929190505050613004565b60405180821515815260200191505060405180910390f35b6040518060400160405280601581526020017f436c6971205374616b696e6720436f6e7472616374000000000000000000000081525081565b6000600760003373ffffffffffffffffffffffffffffffffffffffff1673ffffffffffffffffffffffffffffffffffffffff1681526020019081526020016000208281548110610a9557fe5b90600052602060002090600502016000015411610afd576040517f08c379a000000000000000000000000000000000000000000000000000000000815260040180806020018281038252602e815260200180613b2f602e913960400191505060405180910390fd5b6000600760003373ffffffffffffffffffffffffffffffffffffffff1673ffffffffffffffffffffffffffffffffffffffff1681526020019081526020016000208281548110610b4957fe5b90600052602060002090600502016003015414610bce576040517f08c379a00000000000000000000000000000000000000000000000000000000081526004018080602001828103825260178152602001807f5374616b6520616c72656164792077697468647261776e00000000000000000081525060200191505060405180910390fd5b42600760003373ffffffffffffffffffffffffffffffffffffffff1673ffffffffffffffffffffffffffffffffffffffff1681526020019081526020016000208281548110610c1957fe5b906000526020600020906005020160030181905550610c9e600760003373ffffffffffffffffffffffffffffffffffffffff1673ffffffffffffffffffffffffffffffffffffffff1681526020019081526020016000208281548110610c7b57fe5b906000526020600020906005020160000154600c546131b890919063ffffffff16565b600c81905550610d51600760003373ffffffffffffffffffffffffffffffffffffffff1673ffffffffffffffffffffffffffffffffffffffff1681526020019081526020016000208281548110610cf157fe5b906000526020600020906005020160000154600660003373ffffffffffffffffffffffffffffffffffffffff1673ffffffffffffffffffffffffffffffffffffffff168152602001908152602001600020546131b890919063ffffffff16565b600660003373ffffffffffffffffffffffffffffffffffffffff1673ffffffffffffffffffffffffffffffffffffffff16815260200190815260200160002081905550600160009054906101000a900473ffffffffffffffffffffffffffffffffffffffff1673ffffffffffffffffffffffffffffffffffffffff1663a9059cbb33600760003373ffffffffffffffffffffffffffffffffffffffff1673ffffffffffffffffffffffffffffffffffffffff1681526020019081526020016000208481548110610e1d57fe5b9060005260206000209060050201600001546040518363ffffffff1660e01b8152600401808373ffffffffffffffffffffffffffffffffffffffff16815260200182815260200192505050602060405180830381600087803b158015610e8257600080fd5b505af1158015610e96573d6000803e3d6000fd5b505050506040513d6020811015610eac57600080fd5b8101908080519060200190929190505050503373ffffffffffffffffffffffffffffffffffffffff167ff27a813adb5fa3a82c2cb4437f5e7ee7576c37b8c7e386a735b6864bc3fcee43826040518082815260200191505060405180910390a250565b600c5481565b600260009054906101000a900473ffffffffffffffffffffffffffffffffffffffff1681565b6000600380549050905090565b6000806000838152602001908152602001600020600201549050919050565b6000600760003373ffffffffffffffffffffffffffffffffffffffff1673ffffffffffffffffffffffffffffffffffffffff1681526020019081526020016000208281548110610fb357fe5b9060005260206000209060050201600001541161101b576040517f08c379a000000000000000000000000000000000000000000000000000000000815260040180806020018281038252602e815260200180613b2f602e913960400191505060405180910390fd5b6000600760003373ffffffffffffffffffffffffffffffffffffffff1673ffffffffffffffffffffffffffffffffffffffff168152602001908152602001600020828154811061106757fe5b906000526020600020906005020160030154146110ec576040517f08c379a00000000000000000000000000000000000000000000000000000000081526004018080602001828103825260178152602001807f5374616b6520616c72656164792077697468647261776e00000000000000000081525060200191505060405180910390fd5b6000600760003373ffffffffffffffffffffffffffffffffffffffff1673ffffffffffffffffffffffffffffffffffffffff168152602001908152602001600020828154811061113857fe5b906000526020600020906005020160040160009054906101000a900461ffff1661ffff16141561138d57600061116e33836124e4565b905080600b54116111ca576040517f08c379a0000000000000000000000000000000000000000000000000000000008152600401808060200182810382526058815260200180613b856058913960600191505060405180910390fd5b6111df81600b546131b890919063ffffffff16565b600b81905550600061125582600760003373ffffffffffffffffffffffffffffffffffffffff1673ffffffffffffffffffffffffffffffffffffffff168152602001908152602001600020858154811061123557fe5b90600052602060002090600502016000015461320290919063ffffffff16565b905042600760003373ffffffffffffffffffffffffffffffffffffffff1673ffffffffffffffffffffffffffffffffffffffff16815260200190815260200160002084815481106112a257fe5b906000526020600020906005020160030181905550600160009054906101000a900473ffffffffffffffffffffffffffffffffffffffff1673ffffffffffffffffffffffffffffffffffffffff1663a9059cbb33836040518363ffffffff1660e01b8152600401808373ffffffffffffffffffffffffffffffffffffffff16815260200182815260200192505050602060405180830381600087803b15801561134a57600080fd5b505af115801561135e573d6000803e3d6000fd5b505050506040513d602081101561137457600080fd5b81019080805190602001909291905050505050506118f8565b6001600760003373ffffffffffffffffffffffffffffffffffffffff1673ffffffffffffffffffffffffffffffffffffffff16815260200190815260200160002082815481106113d957fe5b906000526020600020906005020160040160009054906101000a900461ffff1661ffff1614156118f257600061140f3383611d7f565b905080600260009054906101000a900473ffffffffffffffffffffffffffffffffffffffff1673ffffffffffffffffffffffffffffffffffffffff166370a08231306040518263ffffffff1660e01b8152600401808273ffffffffffffffffffffffffffffffffffffffff16815260200191505060206040518083038186803b15801561149b57600080fd5b505afa1580156114af573d6000803e3d6000fd5b505050506040513d60208110156114c557600080fd5b8101908080519060200190929190505050101561152d576040517f08c379a0000000000000000000000000000000000000000000000000000000008152600401808060200182810382526043815260200180613aec6043913960600191505060405180910390fd5b61159d600760003373ffffffffffffffffffffffffffffffffffffffff1673ffffffffffffffffffffffffffffffffffffffff168152602001908152602001600020838154811061157a57fe5b906000526020600020906005020160000154600c546131b890919063ffffffff16565b600c81905550611650600760003373ffffffffffffffffffffffffffffffffffffffff1673ffffffffffffffffffffffffffffffffffffffff16815260200190815260200160002083815481106115f057fe5b906000526020600020906005020160000154600660003373ffffffffffffffffffffffffffffffffffffffff1673ffffffffffffffffffffffffffffffffffffffff168152602001908152602001600020546131b890919063ffffffff16565b600660003373ffffffffffffffffffffffffffffffffffffffff1673ffffffffffffffffffffffffffffffffffffffff1681526020019081526020016000208190555042600760003373ffffffffffffffffffffffffffffffffffffffff1673ffffffffffffffffffffffffffffffffffffffff16815260200190815260200160002083815481106116de57fe5b906000526020600020906005020160030181905550600260009054906101000a900473ffffffffffffffffffffffffffffffffffffffff1673ffffffffffffffffffffffffffffffffffffffff1663a9059cbb33836040518363ffffffff1660e01b8152600401808373ffffffffffffffffffffffffffffffffffffffff16815260200182815260200192505050602060405180830381600087803b15801561178657600080fd5b505af115801561179a573d6000803e3d6000fd5b505050506040513d60208110156117b057600080fd5b810190808051906020019092919050505050600160009054906101000a900473ffffffffffffffffffffffffffffffffffffffff1673ffffffffffffffffffffffffffffffffffffffff1663a9059cbb33600760003373ffffffffffffffffffffffffffffffffffffffff1673ffffffffffffffffffffffffffffffffffffffff168152602001908152602001600020858154811061184b57fe5b9060005260206000209060050201600001546040518363ffffffff1660e01b8152600401808373ffffffffffffffffffffffffffffffffffffffff16815260200182815260200192505050602060405180830381600087803b1580156118b057600080fd5b505af11580156118c4573d6000803e3d6000fd5b505050506040513d60208110156118da57600080fd5b810190808051906020019092919050505050506118f7565b600080fd5b5b3373ffffffffffffffffffffffffffffffffffffffff167f0f5bb82176feb1b5e747e28471aa92156a04d9f3ab9f45f28e2d704232b93f75826040518082815260200191505060405180910390a250565b61196f6000808481526020019081526020016000206002015461196a61328a565b612956565b6119c4576040517f08c379a000000000000000000000000000000000000000000000000000000000815260040180806020018281038252602f815260200180613905602f913960400191505060405180910390fd5b6119ce8282613292565b5050565b6119da61328a565b73ffffffffffffffffffffffffffffffffffffffff168173ffffffffffffffffffffffffffffffffffffffff1614611a5d576040517f08c379a000000000000000000000000000000000000000000000000000000000815260040180806020018281038252602f815260200180613c0a602f913960400191505060405180910390fd5b611a678282613325565b5050565b6000600760008373ffffffffffffffffffffffffffffffffffffffff1673ffffffffffffffffffffffffffffffffffffffff168152602001908152602001600020805490509050919050565b6000611aea7fe56e19a7d558c827e5fe3dd17249e3d1e70e83b18ea8e11167d41e0a83cdd168611ae561328a565b612956565b611b3f576040517f08c379a000000000000000000000000000000000000000000000000000000000815260040180806020018281038252602d815260200180613bdd602d913960400191505060405180910390fd5b600b54821115611bb7576040517f08c379a000000000000000000000000000000000000000000000000000000000815260040180806020018281038252601f8152602001807f796f752063616e6e6f74207769746864726177207468697320616d6f756e740081525060200191505060405180910390fd5b611bcc82600b546131b890919063ffffffff16565b600b81905550600160009054906101000a900473ffffffffffffffffffffffffffffffffffffffff1673ffffffffffffffffffffffffffffffffffffffff1663a9059cbb33846040518363ffffffff1660e01b8152600401808373ffffffffffffffffffffffffffffffffffffffff16815260200182815260200192505050602060405180830381600087803b158015611c6557600080fd5b505af1158015611c79573d6000803e3d6000fd5b505050506040513d6020811015611c8f57600080fd5b8101908080519060200190929190505050503373ffffffffffffffffffffffffffffffffffffffff167fa3778e112275f3f7c5cfcc393b49b87cf6cd7aeaac223796b6f00dbf85457d69836040518082815260200191505060405180910390a260019050919050565b600160009054906101000a900473ffffffffffffffffffffffffffffffffffffffff1681565b60076020528160005260406000208181548110611d3a57600080fd5b9060005260206000209060050201600091509150508060000154908060010154908060020154908060030154908060040160009054906101000a900461ffff16905085565b60006001600760008573ffffffffffffffffffffffffffffffffffffffff1673ffffffffffffffffffffffffffffffffffffffff1681526020019081526020016000208381548110611dcd57fe5b906000526020600020906005020160040160009054906101000a900461ffff1661ffff1614611e47576040517f08c379a00000000000000000000000000000000000000000000000000000000081526004018080602001828103825260478152602001806139346047913960600191505060405180910390fd5b60004290506000600760008673ffffffffffffffffffffffffffffffffffffffff1673ffffffffffffffffffffffffffffffffffffffff1681526020019081526020016000208481548110611e9857fe5b90600052602060002090600502016003015414611f0e57600760008573ffffffffffffffffffffffffffffffffffffffff1673ffffffffffffffffffffffffffffffffffffffff1681526020019081526020016000208381548110611ef957fe5b90600052602060002090600502016003015490505b6000600760008673ffffffffffffffffffffffffffffffffffffffff1673ffffffffffffffffffffffffffffffffffffffff1681526020019081526020016000208481548110611f5a57fe5b9060005260206000209060050201600101549050600060056000600760008973ffffffffffffffffffffffffffffffffffffffff1673ffffffffffffffffffffffffffffffffffffffff1681526020019081526020016000208781548110611fbe57fe5b9060005260206000209060050201600201548152602001908152602001600020600101549050600060056000600760008a73ffffffffffffffffffffffffffffffffffffffff1673ffffffffffffffffffffffffffffffffffffffff168152602001908152602001600020888154811061203457fe5b9060005260206000209060050201600201548152602001908152602001600020600301549050600061206f84866131b890919063ffffffff16565b905060008110156120cb576040517f08c379a000000000000000000000000000000000000000000000000000000000815260040180806020018281038252602e8152602001806139ae602e913960400191505060405180910390fd5b60006120e084836133b890919063ffffffff16565b9050600061215284600760008d73ffffffffffffffffffffffffffffffffffffffff1673ffffffffffffffffffffffffffffffffffffffff1681526020019081526020016000208b8154811061213257fe5b90600052602060002090600502016000015461340290919063ffffffff16565b9050612169600d54826133b890919063ffffffff16565b905061217e828261340290919063ffffffff16565b90508097505050505050505092915050565b60056020528060005260406000206000915090508060000154908060010154908060020154908060030154905084565b6121d46000801b6121cf61328a565b612956565b612229576040517f08c379a0000000000000000000000000000000000000000000000000000000008152600401808060200182810382526028815260200180613b5d6028913960400191505060405180910390fd5b3373ffffffffffffffffffffffffffffffffffffffff167f99f7d214847e4072c3c37978426a2da32abe73252fdbf030ee309a2f1e399316826040518082815260200191505060405180910390a23373ffffffffffffffffffffffffffffffffffffffff166108fc829081150290604051600060405180830381858888f193505050501580156122bd573d6000803e3d6000fd5b5050565b600381815481106122d157600080fd5b906000526020600020016000915090505481565b60066020528060005260406000206000915090505481565b60006123307fe56e19a7d558c827e5fe3dd17249e3d1e70e83b18ea8e11167d41e0a83cdd16861232b61328a565b612956565b612385576040517f08c379a000000000000000000000000000000000000000000000000000000000815260040180806020018281038252602d815260200180613bdd602d913960400191505060405180910390fd5b61239a82600b5461320290919063ffffffff16565b600b81905550600160009054906101000a900473ffffffffffffffffffffffffffffffffffffffff1673ffffffffffffffffffffffffffffffffffffffff166323b872dd3330856040518463ffffffff1660e01b8152600401808473ffffffffffffffffffffffffffffffffffffffff1681526020018373ffffffffffffffffffffffffffffffffffffffff1681526020018281526020019350505050602060405180830381600087803b15801561245157600080fd5b505af1158015612465573d6000803e3d6000fd5b505050506040513d602081101561247b57600080fd5b8101908080519060200190929190505050503373ffffffffffffffffffffffffffffffffffffffff167fa85a1296a1d1807b2a16e05fdd913aa7729945e7c59b8f3526fbc7f84eb8c048836040518082815260200191505060405180910390a260019050919050565b600080600760008573ffffffffffffffffffffffffffffffffffffffff1673ffffffffffffffffffffffffffffffffffffffff168152602001908152602001600020838154811061253157fe5b906000526020600020906005020160040160009054906101000a900461ffff1661ffff16146125ab576040517f08c379a000000000000000000000000000000000000000000000000000000000815260040180806020018281038252603f815260200180613a2f603f913960400191505060405180910390fd5b60004290506000600760008673ffffffffffffffffffffffffffffffffffffffff1673ffffffffffffffffffffffffffffffffffffffff16815260200190815260200160002084815481106125fc57fe5b9060005260206000209060050201600301541461267257600760008573ffffffffffffffffffffffffffffffffffffffff1673ffffffffffffffffffffffffffffffffffffffff168152602001908152602001600020838154811061265d57fe5b90600052602060002090600502016003015490505b6000600760008673ffffffffffffffffffffffffffffffffffffffff1673ffffffffffffffffffffffffffffffffffffffff16815260200190815260200160002084815481106126be57fe5b9060005260206000209060050201600101549050600060056000600760008973ffffffffffffffffffffffffffffffffffffffff1673ffffffffffffffffffffffffffffffffffffffff168152602001908152602001600020878154811061272257fe5b9060005260206000209060050201600201548152602001908152602001600020600101549050600060056000600760008a73ffffffffffffffffffffffffffffffffffffffff1673ffffffffffffffffffffffffffffffffffffffff168152602001908152602001600020888154811061279857fe5b906000526020600020906005020160020154815260200190815260200160002060020154905060006127d384866131b890919063ffffffff16565b9050600081101561282f576040517f08c379a000000000000000000000000000000000000000000000000000000000815260040180806020018281038252602e8152602001806139ae602e913960400191505060405180910390fd5b600061284484836133b890919063ffffffff16565b9050600080600760008c73ffffffffffffffffffffffffffffffffffffffff1673ffffffffffffffffffffffffffffffffffffffff1681526020019081526020016000208a8154811061289357fe5b90600052602060002090600502016000015490505b60008311156129145760006128d960646128cb888561340290919063ffffffff16565b6133b890919063ffffffff16565b90506128ee818361320290919063ffffffff16565b9150612903818461320290919063ffffffff16565b9250838060019003945050506128a8565b819850505050505050505092915050565b600061294e8260008086815260200190815260200160002060000161348890919063ffffffff16565b905092915050565b600061297f826000808681526020019081526020016000206000016134a290919063ffffffff16565b905092915050565b6000801b81565b7fe56e19a7d558c827e5fe3dd17249e3d1e70e83b18ea8e11167d41e0a83cdd16881565b60086020528060005260406000206000915054906101000a900460ff1681565b60006129f16000808481526020019081526020016000206000016134d2565b9050919050565b60008311612a51576040517f08c379a00000000000000000000000000000000000000000000000000000000081526004018080602001828103825260238152602001806139dc6023913960400191505060405180910390fd5b6000600560008481526020019081526020016000206001015411612ac0576040517f08c379a000000000000000000000000000000000000000000000000000000000815260040180806020018281038252605d815260200180613a6e605d913960600191505060405180910390fd5b60008161ffff161480612ad7575060018161ffff16145b612b2c576040517f08c379a000000000000000000000000000000000000000000000000000000000815260040180806020018281038252603381526020018061397b6033913960400191505060405180910390fd5b612b7e83600660003373ffffffffffffffffffffffffffffffffffffffff1673ffffffffffffffffffffffffffffffffffffffff1681526020019081526020016000205461320290919063ffffffff16565b600660003373ffffffffffffffffffffffffffffffffffffffff1673ffffffffffffffffffffffffffffffffffffffff16815260200190815260200160002081905550612bc96138ac565b83816000018181525050428160200181815250508281604001818152505081816080019061ffff16908161ffff1681525050600760003373ffffffffffffffffffffffffffffffffffffffff1673ffffffffffffffffffffffffffffffffffffffff1681526020019081526020016000208190806001815401808255809150506001900390600052602060002090600502016000909190919091506000820151816000015560208201518160010155604082015181600201556060820151816003015560808201518160040160006101000a81548161ffff021916908361ffff1602179055505050600860003373ffffffffffffffffffffffffffffffffffffffff1673ffffffffffffffffffffffffffffffffffffffff16815260200190815260200160002060009054906101000a900460ff16612d6657600a339080600181540180825580915050600190039060005260206000200160009091909190916101000a81548173ffffffffffffffffffffffffffffffffffffffff021916908373ffffffffffffffffffffffffffffffffffffffff1602179055505b6001600860003373ffffffffffffffffffffffffffffffffffffffff1673ffffffffffffffffffffffffffffffffffffffff16815260200190815260200160002060006101000a81548160ff021916908315150217905550612dd384600c5461320290919063ffffffff16565b600c81905550600160009054906101000a900473ffffffffffffffffffffffffffffffffffffffff1673ffffffffffffffffffffffffffffffffffffffff166323b872dd3330876040518463ffffffff1660e01b8152600401808473ffffffffffffffffffffffffffffffffffffffff1681526020018373ffffffffffffffffffffffffffffffffffffffff1681526020018281526020019350505050602060405180830381600087803b158015612e8a57600080fd5b505af1158015612e9e573d6000803e3d6000fd5b505050506040513d6020811015612eb457600080fd5b8101908080519060200190929190505050503373ffffffffffffffffffffffffffffffffffffffff167f1a48069d0547cc392ac119894ca10b48ec87b6f2e68b12c1abc2c7e641c45d428486856001600760003373ffffffffffffffffffffffffffffffffffffffff1673ffffffffffffffffffffffffffffffffffffffff1681526020019081526020016000208054905003604051808581526020018481526020018361ffff16815260200182815260200194505050505060405180910390a250505050565b612fa160008084815260200190815260200160002060020154612f9c61328a565b612956565b612ff6576040517f08c379a00000000000000000000000000000000000000000000000000000000081526004018080602001828103825260308152602001806139ff6030913960400191505060405180910390fd5b6130008282613325565b5050565b600061301a6000801b61301561328a565b612956565b61306f576040517f08c379a0000000000000000000000000000000000000000000000000000000008152600401808060200182810382526028815260200180613b5d6028913960400191505060405180910390fd5b8173ffffffffffffffffffffffffffffffffffffffff163373ffffffffffffffffffffffffffffffffffffffff167f9cfb745b670c95e8ef9382dae3210003e39541be472222da9c57278d425815be856040518082815260200191505060405180910390a38173ffffffffffffffffffffffffffffffffffffffff1663a9059cbb33856040518363ffffffff1660e01b8152600401808373ffffffffffffffffffffffffffffffffffffffff16815260200182815260200192505050602060405180830381600087803b15801561314557600080fd5b505af1158015613159573d6000803e3d6000fd5b505050506040513d602081101561316f57600080fd5b8101908080519060200190929190505050905092915050565b60006131b0836000018373ffffffffffffffffffffffffffffffffffffffff1660001b6134e7565b905092915050565b60006131fa83836040518060400160405280601e81526020017f536166654d6174683a207375627472616374696f6e206f766572666c6f770000815250613557565b905092915050565b600080828401905083811015613280576040517f08c379a000000000000000000000000000000000000000000000000000000000815260040180806020018281038252601b8152602001807f536166654d6174683a206164646974696f6e206f766572666c6f77000000000081525060200191505060405180910390fd5b8091505092915050565b600033905090565b6132b98160008085815260200190815260200160002060000161318890919063ffffffff16565b15613321576132c661328a565b73ffffffffffffffffffffffffffffffffffffffff168173ffffffffffffffffffffffffffffffffffffffff16837f2f8788117e7eff1d82e926ec794901d17c78024a50270940304540a733656f0d60405160405180910390a45b5050565b61334c8160008085815260200190815260200160002060000161361790919063ffffffff16565b156133b45761335961328a565b73ffffffffffffffffffffffffffffffffffffffff168173ffffffffffffffffffffffffffffffffffffffff16837ff6391f5c32d9c69d2a47ea670b442974b53935d1edc7fd64eb21e047a839171b60405160405180910390a45b5050565b60006133fa83836040518060400160405280601a81526020017f536166654d6174683a206469766973696f6e206279207a65726f000000000000815250613647565b905092915050565b6000808314156134155760009050613482565b600082840290508284828161342657fe5b041461347d576040517f08c379a0000000000000000000000000000000000000000000000000000000008152600401808060200182810382526021815260200180613acb6021913960400191505060405180910390fd5b809150505b92915050565b6000613497836000018361370d565b60001c905092915050565b60006134ca836000018373ffffffffffffffffffffffffffffffffffffffff1660001b613790565b905092915050565b60006134e0826000016137b3565b9050919050565b60006134f38383613790565b61354c578260000182908060018154018082558091505060019003906000526020600020016000909190919091505582600001805490508360010160008481526020019081526020016000208190555060019050613551565b600090505b92915050565b6000838311158290613604576040517f08c379a00000000000000000000000000000000000000000000000000000000081526004018080602001828103825283818151815260200191508051906020019080838360005b838110156135c95780820151818401526020810190506135ae565b50505050905090810190601f1680156135f65780820380516001836020036101000a031916815260200191505b509250505060405180910390fd5b5060008385039050809150509392505050565b600061363f836000018373ffffffffffffffffffffffffffffffffffffffff1660001b6137c4565b905092915050565b600080831182906136f3576040517f08c379a00000000000000000000000000000000000000000000000000000000081526004018080602001828103825283818151815260200191508051906020019080838360005b838110156136b857808201518184015260208101905061369d565b50505050905090810190601f1680156136e55780820380516001836020036101000a031916815260200191505b509250505060405180910390fd5b5060008385816136ff57fe5b049050809150509392505050565b60008183600001805490501161376e576040517f08c379a00000000000000000000000000000000000000000000000000000000081526004018080602001828103825260228152602001806138e36022913960400191505060405180910390fd5b82600001828154811061377d57fe5b9060005260206000200154905092915050565b600080836001016000848152602001908152602001600020541415905092915050565b600081600001805490509050919050565b600080836001016000848152602001908152602001600020549050600081146138a0576000600182039050600060018660000180549050039050600086600001828154811061380f57fe5b906000526020600020015490508087600001848154811061382c57fe5b906000526020600020018190555060018301876001016000838152602001908152602001600020819055508660000180548061386457fe5b600190038181906000526020600020016000905590558660010160008781526020019081526020016000206000905560019450505050506138a6565b60009150505b92915050565b6040518060a0016040528060008152602001600081526020016000801916815260200160008152602001600061ffff168152509056fe456e756d657261626c655365743a20696e646578206f7574206f6620626f756e6473416363657373436f6e74726f6c3a2073656e646572206d75737420626520616e2061646d696e20746f206772616e7475736520636865636b5374616b6552657761726420666f72207374616b657320616363756d756c6174696e672072657761726420696e20746865204e617469766520546f6b656e7265776172642074797065206e6f74206b6e6f776e3a2030206973206e617469766520746f6b656e2c203120697320434c49515374616b696e672074696d652063616e6e6f74206265206c61746572207468616e2063757272656e742074696d65207374616b65206120706f736974697665206e756d626572206f6620746f6b656e7320416363657373436f6e74726f6c3a2073656e646572206d75737420626520616e2061646d696e20746f207265766f6b6575736520636865636b5374616b65436c697152657761726420666f72207374616b657320616363756d756c6174696e672072657761726420696e20434c49517468657265206973206e6f207374616b696e67207061636b616765207769746820746865206465636c61726564206e616d652c206f7220746865207374616b696e67207061636b61676520697320706f6f726c7920666f726d61746564536166654d6174683a206d756c7469706c69636174696f6e206f766572666c6f777468652069736e277420656e6f75676820434c495120696e207468697320636f6e747261637420746f2070617920796f757220726577617264207269676874206e6f77546865207374616b6520796f752061726520736561726368696e6720666f72206973206e6f7420646566696e656463616c6c657220646f6573206e6f74206861766520746865204d61696e7461696e657220726f6c65546f6b656e2063726561746f727320646964206e6f7420706c61636520656e6f756768206c697175696469747920696e2074686520636f6e747261637420666f7220796f75722072657761726420746f206265207061696463616c6c657220646f6573206e6f74206861766520746865205245574152445f50524f564944455220726f6c65416363657373436f6e74726f6c3a2063616e206f6e6c792072656e6f756e636520726f6c657320666f722073656c66a2646970667358221220871958ffe60edd007eff1adf42d734ad79e4b8cd1891036cb2a55b5d8c32896164736f6c63430007040033",
  "immutableReferences": {},
  "source": "// SPDX-License-Identifier: GPL-3.0\npragma solidity ^0.7.4;\n\nimport \"@openzeppelin/contracts/access/AccessControl.sol\";\nimport \"@openzeppelin/contracts/token/ERC20/IERC20.sol\";\nimport \"@openzeppelin/contracts/math/SafeMath.sol\";\n\ncontract CliqStaking is AccessControl {\n    using SafeMath for uint256;\n\n    string public constant name = \"Cliq Staking Contract\";\n\n    // we can improve this with a \"unstaked:false\" flag when the user force withdraws the funds\n    // so he can collect the reward later\n    struct Stake {\n        uint256 _amount;\n        uint256 _timestamp;\n        bytes32 _packageName;\n        uint256 _withdrawnTimestamp;\n        uint16 _stakeRewardType; // 0 for native coin reward, 1 for CLIQ stake reward\n    }\n\n    struct YieldType {\n        bytes32 _packageName;\n        uint256 _daysLocked;\n        uint256 _packageInterest;\n        uint256 _packageCliqReward; // the number of cliq token received for each native token staked\n    }\n\n    IERC20 public tokenContract;\n    IERC20 public CLIQ;\n\n    bytes32[] public packageNames;\n    uint256 decimals = 18;\n    mapping(bytes32 => YieldType) public packages;\n    mapping(address => uint256) public totalStakedBalance;\n    mapping(address => Stake[]) public stakes;\n    mapping(address => bool) public hasStaked;\n    address private owner;\n    address[] stakers;\n    uint256 rewardProviderTokenAllowance = 0;\n    uint256 public totalStakedFunds = 0;\n    uint256 cliqRewardUnits = 1000000; // ciq reward for 1.000.000 tokens staked\n    bytes32 public constant REWARD_PROVIDER = keccak256(\"REWARD_PROVIDER\"); // i upgraded solc and used REWARD_PROVIDER instead of whitelist role and DEFAULT_ADMIN_ROLE instead of whiteloist admin\n\n    event NativeTokenRewardAdded(address indexed _from, uint256 _val);\n    event NativeTokenRewardRemoved(address indexed _to, uint256 _val);\n    event StakeAdded(\n        address indexed _usr,\n        bytes32 _packageName,\n        uint256 _amount,\n        uint16 _stakeRewardType,\n        uint256 _stakeIndex\n    );\n    event Unstaked(address indexed _usr, uint256 stakeIndex);\n    event ForcefullyWithdrawn(address indexed _usr, uint256 stakeIndex);\n    event FundsParked(\n        address indexed _usr,\n        address indexed _token,\n        uint256 _amount\n    );\n    event ETHParked(address indexed _usr, uint256 _amount);\n\n    modifier onlyRewardProvider() {\n        require(\n            hasRole(REWARD_PROVIDER, _msgSender()),\n            \"caller does not have the REWARD_PROVIDER role\"\n        );\n        _;\n    }\n\n    modifier onlyMaintainer() {\n        require(\n            hasRole(DEFAULT_ADMIN_ROLE, _msgSender()),\n            \"caller does not have the Maintainer role\"\n        );\n        _;\n    }\n\n    constructor(address _stakedToken, address _CLIQ) {\n        _setupRole(DEFAULT_ADMIN_ROLE, _msgSender());\n        tokenContract = IERC20(_stakedToken);\n        CLIQ = IERC20(_CLIQ);\n        //define packages here\n        _definePackage(\"Silver Package\", 30, 8, 1000000); // in 30 days you receive: 15% of staked token OR 1 cliq for 1 token staked\n        _definePackage(\"Gold Package\", 60, 18, 1500000); // 1.5 cliq for 1 token staked\n        _definePackage(\"Platinum Package\", 90, 30, 2000000); // 2 cliq for 1 token staked\n    }\n\n    function stakesLength(address _address) external view returns (uint256) {\n        return stakes[_address].length;\n    }\n\n    function packageLength() external view returns (uint256) {\n        return packageNames.length;\n    }\n\n    function stakeTokens(\n        uint256 _amount,\n        bytes32 _packageName,\n        uint16 _stakeRewardType\n    ) public {\n        require(_amount > 0, \" stake a positive number of tokens \");\n        require(\n            packages[_packageName]._daysLocked > 0,\n            \"there is no staking package with the declared name, or the staking package is poorly formated\"\n        );\n        require(\n            _stakeRewardType == 0 || _stakeRewardType == 1,\n            \"reward type not known: 0 is native token, 1 is CLIQ\"\n        );\n\n        //add to stake sum of address\n        totalStakedBalance[msg.sender] = totalStakedBalance[msg.sender].add(\n            _amount\n        );\n\n        //add to stakes\n        Stake memory currentStake;\n        currentStake._amount = _amount;\n        currentStake._timestamp = block.timestamp;\n        currentStake._packageName = _packageName;\n        currentStake._stakeRewardType = _stakeRewardType;\n        stakes[msg.sender].push(currentStake);\n\n        //if user is not declared as a staker, push him into the staker array\n        if (!hasStaked[msg.sender]) {\n            stakers.push(msg.sender);\n        }\n\n        //update the bool mapping of past and current stakers\n        hasStaked[msg.sender] = true;\n        totalStakedFunds = totalStakedFunds.add(_amount);\n\n        //transfer from (need allowance)\n        tokenContract.transferFrom(msg.sender, address(this), _amount);\n\n        StakeAdded(\n            msg.sender,\n            _packageName,\n            _amount,\n            _stakeRewardType,\n            stakes[msg.sender].length - 1\n        );\n    }\n\n    function checkStakeReward(address _address, uint256 stakeIndex)\n        public\n        view\n        returns (uint256)\n    {\n        require(\n            stakes[_address][stakeIndex]._stakeRewardType == 0,\n            \"use checkStakeCliqReward for stakes accumulating reward in CLIQ\"\n        );\n\n        uint256 currentTime = block.timestamp;\n        if (stakes[_address][stakeIndex]._withdrawnTimestamp != 0) {\n            currentTime = stakes[_address][stakeIndex]._withdrawnTimestamp;\n        }\n\n        uint256 stakingTime = stakes[_address][stakeIndex]._timestamp;\n        uint256 daysLocked =\n            packages[stakes[_address][stakeIndex]._packageName]._daysLocked;\n        uint256 packageInterest =\n            packages[stakes[_address][stakeIndex]._packageName]\n                ._packageInterest;\n\n        uint256 timeDiff = currentTime.sub(stakingTime);\n        require(\n            timeDiff >= 0,\n            \"Staking time cannot be later than current time\"\n        );\n\n        uint256 yieldPeriods = timeDiff.div(daysLocked); // the _days is in seconds for now so can fucking test stuff\n\n        uint256 yieldReward = 0;\n        uint256 totalStake = stakes[_address][stakeIndex]._amount;\n\n        // for each period of days defined in the package, compound the interest\n        while (yieldPeriods > 0) {\n            uint256 currentReward = totalStake.mul(packageInterest).div(100);\n\n            totalStake = totalStake.add(currentReward);\n\n            yieldReward = yieldReward.add(currentReward);\n\n            yieldPeriods--;\n        }\n\n        return yieldReward;\n    }\n\n    function checkStakeCliqReward(address _address, uint256 stakeIndex)\n        public\n        view\n        returns (uint256)\n    {\n        require(\n            stakes[_address][stakeIndex]._stakeRewardType == 1,\n            \"use checkStakeReward for stakes accumulating reward in the Native Token\"\n        );\n\n        uint256 currentTime = block.timestamp;\n        if (stakes[_address][stakeIndex]._withdrawnTimestamp != 0) {\n            currentTime = stakes[_address][stakeIndex]._withdrawnTimestamp;\n        }\n\n        uint256 stakingTime = stakes[_address][stakeIndex]._timestamp;\n        uint256 daysLocked =\n            packages[stakes[_address][stakeIndex]._packageName]._daysLocked;\n        uint256 packageCliqInterest =\n            packages[stakes[_address][stakeIndex]._packageName]\n                ._packageCliqReward;\n\n        uint256 timeDiff = currentTime.sub(stakingTime);\n        require(\n            timeDiff >= 0,\n            \"Staking time cannot be later than current time\"\n        );\n\n        uint256 yieldPeriods = timeDiff.div(daysLocked); // the _days is in seconds for now so i can fucking test stuff\n\n        uint256 yieldReward =\n            stakes[_address][stakeIndex]._amount.mul(packageCliqInterest);\n\n        yieldReward = yieldReward.div(cliqRewardUnits);\n\n        yieldReward = yieldReward.mul(yieldPeriods);\n\n        return yieldReward;\n    }\n\n    function unstake(uint256 stakeIndex) public {\n        require(\n            stakes[msg.sender][stakeIndex]._amount > 0,\n            \"The stake you are searching for is not defined\"\n        );\n        require(\n            stakes[msg.sender][stakeIndex]._withdrawnTimestamp == 0,\n            \"Stake already withdrawn\"\n        );\n\n        if (stakes[msg.sender][stakeIndex]._stakeRewardType == 0) {\n            uint256 reward = checkStakeReward(msg.sender, stakeIndex);\n\n            require(\n                rewardProviderTokenAllowance > reward,\n                \"Token creators did not place enough liquidity in the contract for your reward to be paid\"\n            );\n\n            rewardProviderTokenAllowance = rewardProviderTokenAllowance.sub(\n                reward\n            );\n\n            uint256 totalStake =\n                stakes[msg.sender][stakeIndex]._amount.add(reward);\n\n            stakes[msg.sender][stakeIndex]._withdrawnTimestamp = block\n                .timestamp;\n\n            tokenContract.transfer(msg.sender, totalStake);\n        } else if (stakes[msg.sender][stakeIndex]._stakeRewardType == 1) {\n            uint256 cliqReward = checkStakeCliqReward(msg.sender, stakeIndex);\n\n            require(\n                CLIQ.balanceOf(address(this)) >= cliqReward,\n                \"the isn't enough CLIQ in this contract to pay your reward right now\"\n            );\n\n            totalStakedFunds = totalStakedFunds.sub(\n                stakes[msg.sender][stakeIndex]._amount\n            );\n            totalStakedBalance[msg.sender] = totalStakedBalance[msg.sender].sub(\n                stakes[msg.sender][stakeIndex]._amount\n            );\n\n            stakes[msg.sender][stakeIndex]._withdrawnTimestamp = block\n                .timestamp;\n\n            CLIQ.transfer(msg.sender, cliqReward);\n            tokenContract.transfer(\n                msg.sender,\n                stakes[msg.sender][stakeIndex]._amount\n            );\n        } else {\n            revert();\n        }\n\n        emit Unstaked(msg.sender, stakeIndex);\n    }\n\n    function forceWithdraw(uint256 stakeIndex) public {\n        require(\n            stakes[msg.sender][stakeIndex]._amount > 0,\n            \"The stake you are searching for is not defined\"\n        );\n        require(\n            stakes[msg.sender][stakeIndex]._withdrawnTimestamp == 0,\n            \"Stake already withdrawn\"\n        );\n\n        stakes[msg.sender][stakeIndex]._withdrawnTimestamp = block.timestamp;\n        totalStakedFunds = totalStakedFunds.sub(\n            stakes[msg.sender][stakeIndex]._amount\n        );\n        totalStakedBalance[msg.sender] = totalStakedBalance[msg.sender].sub(\n            stakes[msg.sender][stakeIndex]._amount\n        );\n\n        tokenContract.transfer(\n            msg.sender,\n            stakes[msg.sender][stakeIndex]._amount\n        );\n\n        emit ForcefullyWithdrawn(msg.sender, stakeIndex);\n    }\n\n    function parkFunds(uint256 _parkedAmount, address tokenAddr)\n        public\n        onlyMaintainer\n        returns (bool)\n    {\n        emit FundsParked(msg.sender, tokenAddr, _parkedAmount);\n        return IERC20(tokenAddr).transfer(msg.sender, _parkedAmount);\n    }\n\n    function parkETH(uint256 _parkedAmount) public onlyMaintainer {\n        emit ETHParked(msg.sender, _parkedAmount);\n        msg.sender.transfer(_parkedAmount);\n    }\n\n    function addStakedTokenReward(uint256 _amount)\n        public\n        onlyRewardProvider\n        returns (bool)\n    {\n        //transfer from (need allowance)\n        rewardProviderTokenAllowance = rewardProviderTokenAllowance.add(\n            _amount\n        );\n        tokenContract.transferFrom(msg.sender, address(this), _amount);\n\n        emit NativeTokenRewardAdded(msg.sender, _amount);\n        return true;\n    }\n\n    function removeStakedTokenReward(uint256 _amount)\n        public\n        onlyRewardProvider\n        returns (bool)\n    {\n        require(\n            _amount <= rewardProviderTokenAllowance,\n            \"you cannot withdraw this amount\"\n        );\n        rewardProviderTokenAllowance = rewardProviderTokenAllowance.sub(\n            _amount\n        );\n        tokenContract.transfer(msg.sender, _amount);\n        emit NativeTokenRewardRemoved(msg.sender, _amount);\n        return true;\n    }\n\n    function _definePackage(\n        bytes32 _name,\n        uint256 _days,\n        uint256 _packageInterest,\n        uint256 _packageCliqReward\n    ) private {\n        YieldType memory package;\n        package._packageName = _name;\n        package._daysLocked = _days;\n        package._packageInterest = _packageInterest;\n        package._packageCliqReward = _packageCliqReward;\n\n        packages[_name] = package;\n        packageNames.push(_name);\n    }\n}\n",
  "sourcePath": "/Users/codrin/Projects/erc20-staking/deficliq-staking/contracts/cliqStaking.sol",
  "compiler": {
    "name": "solc",
    "version": "0.7.4+commit.3f05b770.Emscripten.clang"
  },
  "schemaVersion": "3.3.3",
  "updatedAt": "2021-01-22T22:40:38.505Z",
  "networkType": "ethereum",
  "devdoc": {
    "kind": "dev",
    "methods": {
      "getRoleAdmin(bytes32)": {
        "details": "Returns the admin role that controls `role`. See {grantRole} and {revokeRole}. To change a role's admin, use {_setRoleAdmin}."
      },
      "getRoleMember(bytes32,uint256)": {
        "details": "Returns one of the accounts that have `role`. `index` must be a value between 0 and {getRoleMemberCount}, non-inclusive. Role bearers are not sorted in any particular way, and their ordering may change at any point. WARNING: When using {getRoleMember} and {getRoleMemberCount}, make sure you perform all queries on the same block. See the following https://forum.openzeppelin.com/t/iterating-over-elements-on-enumerableset-in-openzeppelin-contracts/2296[forum post] for more information."
      },
      "getRoleMemberCount(bytes32)": {
        "details": "Returns the number of accounts that have `role`. Can be used together with {getRoleMember} to enumerate all bearers of a role."
      },
      "grantRole(bytes32,address)": {
        "details": "Grants `role` to `account`. If `account` had not been already granted `role`, emits a {RoleGranted} event. Requirements: - the caller must have ``role``'s admin role."
      },
      "hasRole(bytes32,address)": {
        "details": "Returns `true` if `account` has been granted `role`."
      },
      "renounceRole(bytes32,address)": {
        "details": "Revokes `role` from the calling account. Roles are often managed via {grantRole} and {revokeRole}: this function's purpose is to provide a mechanism for accounts to lose their privileges if they are compromised (such as when a trusted device is misplaced). If the calling account had been granted `role`, emits a {RoleRevoked} event. Requirements: - the caller must be `account`."
      },
      "revokeRole(bytes32,address)": {
        "details": "Revokes `role` from `account`. If `account` had been granted `role`, emits a {RoleRevoked} event. Requirements: - the caller must have ``role``'s admin role."
      }
    },
    "version": 1
  },
  "userdoc": {
    "kind": "user",
    "methods": {},
    "version": 1
  }
}