{
  "contractName": "CliqStaking",
  "abi": [
    {
      "constant": true,
      "inputs": [],
      "name": "name",
      "outputs": [
        {
          "name": "",
          "type": "string"
        }
      ],
      "payable": false,
      "stateMutability": "view",
      "type": "function"
    },
    {
      "constant": false,
      "inputs": [
        {
          "name": "account",
          "type": "address"
        }
      ],
      "name": "addWhitelisted",
      "outputs": [],
      "payable": false,
      "stateMutability": "nonpayable",
      "type": "function"
    },
    {
      "constant": true,
      "inputs": [],
      "name": "totalStakedFunds",
      "outputs": [
        {
          "name": "",
          "type": "uint256"
        }
      ],
      "payable": false,
      "stateMutability": "view",
      "type": "function"
    },
    {
      "constant": false,
      "inputs": [
        {
          "name": "account",
          "type": "address"
        }
      ],
      "name": "removeWhitelisted",
      "outputs": [],
      "payable": false,
      "stateMutability": "nonpayable",
      "type": "function"
    },
    {
      "constant": true,
      "inputs": [
        {
          "name": "account",
          "type": "address"
        }
      ],
      "name": "isWhitelisted",
      "outputs": [
        {
          "name": "",
          "type": "bool"
        }
      ],
      "payable": false,
      "stateMutability": "view",
      "type": "function"
    },
    {
      "constant": false,
      "inputs": [],
      "name": "renounceWhitelistAdmin",
      "outputs": [],
      "payable": false,
      "stateMutability": "nonpayable",
      "type": "function"
    },
    {
      "constant": true,
      "inputs": [],
      "name": "tokenContract",
      "outputs": [
        {
          "name": "",
          "type": "address"
        }
      ],
      "payable": false,
      "stateMutability": "view",
      "type": "function"
    },
    {
      "constant": true,
      "inputs": [
        {
          "name": "",
          "type": "address"
        },
        {
          "name": "",
          "type": "uint256"
        }
      ],
      "name": "stakes",
      "outputs": [
        {
          "name": "_amount",
          "type": "uint256"
        },
        {
          "name": "_timestamp",
          "type": "uint256"
        },
        {
          "name": "_packageName",
          "type": "bytes32"
        },
        {
          "name": "_withdrawnTimestamp",
          "type": "uint256"
        }
      ],
      "payable": false,
      "stateMutability": "view",
      "type": "function"
    },
    {
      "constant": true,
      "inputs": [
        {
          "name": "",
          "type": "bytes32"
        }
      ],
      "name": "packages",
      "outputs": [
        {
          "name": "_packageName",
          "type": "bytes32"
        },
        {
          "name": "_daysLocked",
          "type": "uint256"
        },
        {
          "name": "_packageInterest",
          "type": "uint256"
        }
      ],
      "payable": false,
      "stateMutability": "view",
      "type": "function"
    },
    {
      "constant": false,
      "inputs": [
        {
          "name": "account",
          "type": "address"
        }
      ],
      "name": "addWhitelistAdmin",
      "outputs": [],
      "payable": false,
      "stateMutability": "nonpayable",
      "type": "function"
    },
    {
      "constant": true,
      "inputs": [
        {
          "name": "",
          "type": "address"
        }
      ],
      "name": "totalStakedBalance",
      "outputs": [
        {
          "name": "",
          "type": "uint256"
        }
      ],
      "payable": false,
      "stateMutability": "view",
      "type": "function"
    },
    {
      "constant": true,
      "inputs": [
        {
          "name": "account",
          "type": "address"
        }
      ],
      "name": "isWhitelistAdmin",
      "outputs": [
        {
          "name": "",
          "type": "bool"
        }
      ],
      "payable": false,
      "stateMutability": "view",
      "type": "function"
    },
    {
      "constant": true,
      "inputs": [
        {
          "name": "",
          "type": "address"
        }
      ],
      "name": "hasStaked",
      "outputs": [
        {
          "name": "",
          "type": "bool"
        }
      ],
      "payable": false,
      "stateMutability": "view",
      "type": "function"
    },
    {
      "constant": false,
      "inputs": [],
      "name": "renounceWhitelisted",
      "outputs": [],
      "payable": false,
      "stateMutability": "nonpayable",
      "type": "function"
    },
    {
      "inputs": [
        {
          "name": "_stakedToken",
          "type": "address"
        }
      ],
      "payable": false,
      "stateMutability": "nonpayable",
      "type": "constructor"
    },
    {
      "anonymous": false,
      "inputs": [
        {
          "indexed": true,
          "name": "account",
          "type": "address"
        }
      ],
      "name": "WhitelistedAdded",
      "type": "event"
    },
    {
      "anonymous": false,
      "inputs": [
        {
          "indexed": true,
          "name": "account",
          "type": "address"
        }
      ],
      "name": "WhitelistedRemoved",
      "type": "event"
    },
    {
      "anonymous": false,
      "inputs": [
        {
          "indexed": true,
          "name": "account",
          "type": "address"
        }
      ],
      "name": "WhitelistAdminAdded",
      "type": "event"
    },
    {
      "anonymous": false,
      "inputs": [
        {
          "indexed": true,
          "name": "account",
          "type": "address"
        }
      ],
      "name": "WhitelistAdminRemoved",
      "type": "event"
    },
    {
      "constant": false,
      "inputs": [
        {
          "name": "_amount",
          "type": "uint256"
        },
        {
          "name": "_packageName",
          "type": "bytes32"
        }
      ],
      "name": "stakeTokens",
      "outputs": [],
      "payable": false,
      "stateMutability": "nonpayable",
      "type": "function"
    },
    {
      "constant": true,
      "inputs": [
        {
          "name": "_address",
          "type": "address"
        },
        {
          "name": "stakeIndex",
          "type": "uint256"
        }
      ],
      "name": "checkStakeReward",
      "outputs": [
        {
          "name": "",
          "type": "uint256"
        }
      ],
      "payable": false,
      "stateMutability": "view",
      "type": "function"
    },
    {
      "constant": false,
      "inputs": [
        {
          "name": "stakeIndex",
          "type": "uint256"
        }
      ],
      "name": "unstake",
      "outputs": [],
      "payable": false,
      "stateMutability": "nonpayable",
      "type": "function"
    },
    {
      "constant": false,
      "inputs": [
        {
          "name": "stakeIndex",
          "type": "uint256"
        }
      ],
      "name": "forceWithdraw",
      "outputs": [],
      "payable": false,
      "stateMutability": "nonpayable",
      "type": "function"
    },
    {
      "constant": false,
      "inputs": [
        {
          "name": "_parkedAmount",
          "type": "uint256"
        }
      ],
      "name": "parkFunds",
      "outputs": [
        {
          "name": "",
          "type": "bool"
        }
      ],
      "payable": false,
      "stateMutability": "nonpayable",
      "type": "function"
    },
    {
      "constant": false,
      "inputs": [
        {
          "name": "_amount",
          "type": "uint256"
        }
      ],
      "name": "addStakedTokenReward",
      "outputs": [
        {
          "name": "",
          "type": "bool"
        }
      ],
      "payable": false,
      "stateMutability": "nonpayable",
      "type": "function"
    },
    {
      "constant": false,
      "inputs": [
        {
          "name": "_amount",
          "type": "uint256"
        }
      ],
      "name": "removeStakedTokenReward",
      "outputs": [
        {
          "name": "",
          "type": "bool"
        }
      ],
      "payable": false,
      "stateMutability": "nonpayable",
      "type": "function"
    }
  ],
  "bytecode": "0x60806040526040805190810160405280601581526020017f436c6971205374616b696e6720436f6e747261637400000000000000000000008152506002908051906020019062000051929190620004fe565b50601260035560006008556000600c553480156200006e57600080fd5b5060405160208062003530833981018060405260208110156200009057600080fd5b8101908080519060200190929190505050620000d3620000be62000216640100000000026401000000009004565b6200021e640100000000026401000000009004565b33600560006101000a81548173ffffffffffffffffffffffffffffffffffffffff021916908373ffffffffffffffffffffffffffffffffffffffff16021790555080600660006101000a81548173ffffffffffffffffffffffffffffffffffffffff021916908373ffffffffffffffffffffffffffffffffffffffff160217905550620001937f53696c766572205061636b616765000000000000000000000000000000000000601e600862000288640100000000026401000000009004565b620001d17f476f6c64205061636b6167650000000000000000000000000000000000000000603c600a62000288640100000000026401000000009004565b6200020f7f506c6174696e756d205061636b61676500000000000000000000000000000000605a600c62000288640100000000026401000000009004565b50620005d2565b600033905090565b62000242816000620002eb6401000000000262002b36179091906401000000009004565b8073ffffffffffffffffffffffffffffffffffffffff167f22380c05984257a1cb900161c713dd71d39e74820f1aea43bd3f1bdd2096129960405160405180910390a250565b6200029262000585565b838160000181815250508281602001818152505081816040018181525050806004600086815260200190815260200160002060008201518160000155602082015181600101556040820151816002015590505050505050565b620003068282620003da640100000000026401000000009004565b1515156200037c576040517f08c379a000000000000000000000000000000000000000000000000000000000815260040180806020018281038252601f8152602001807f526f6c65733a206163636f756e7420616c72656164792068617320726f6c650081525060200191505060405180910390fd5b60018260000160008373ffffffffffffffffffffffffffffffffffffffff1673ffffffffffffffffffffffffffffffffffffffff16815260200190815260200160002060006101000a81548160ff0219169083151502179055505050565b60008073ffffffffffffffffffffffffffffffffffffffff168273ffffffffffffffffffffffffffffffffffffffff1614151515620004a7576040517f08c379a00000000000000000000000000000000000000000000000000000000081526004018080602001828103825260228152602001807f526f6c65733a206163636f756e7420697320746865207a65726f20616464726581526020017f737300000000000000000000000000000000000000000000000000000000000081525060400191505060405180910390fd5b8260000160008373ffffffffffffffffffffffffffffffffffffffff1673ffffffffffffffffffffffffffffffffffffffff16815260200190815260200160002060009054906101000a900460ff16905092915050565b828054600181600116156101000203166002900490600052602060002090601f016020900481019282601f106200054157805160ff191683800117855562000572565b8280016001018555821562000572579182015b828111156200057157825182559160200191906001019062000554565b5b509050620005819190620005aa565b5090565b6060604051908101604052806000801916815260200160008152602001600081525090565b620005cf91905b80821115620005cb576000816000905550600101620005b1565b5090565b90565b612f4e80620005e26000396000f3fe60806040526004361061011d576000357c0100000000000000000000000000000000000000000000000000000000900463ffffffff16806306de70671461012257806306fdde03146101675780630fcc56f7146101f757806310154bad1461023257806318ec2d5c14610283578063291d9549146102ae5780632e17de78146102ff5780633af32abf1461033a5780634c5a628c146103a35780634d85bd9f146103ba57806355a373d61461040d578063584b62a11461046457806371102819146104e85780637362d9c8146105455780637435a3f9146105965780637c329830146105e95780637e0391531461064e578063864792b4146106a1578063bb5f747b14610710578063c93c8f3414610779578063d6cd9473146107e2575b600080fd5b34801561012e57600080fd5b506101656004803603604081101561014557600080fd5b8101908080359060200190929190803590602001909291905050506107f9565b005b34801561017357600080fd5b5061017c610d29565b6040518080602001828103825283818151815260200191508051906020019080838360005b838110156101bc5780820151818401526020810190506101a1565b50505050905090810190601f1680156101e95780820380516001836020036101000a031916815260200191505b509250505060405180910390f35b34801561020357600080fd5b506102306004803603602081101561021a57600080fd5b8101908080359060200190929190505050610dc7565b005b34801561023e57600080fd5b506102816004803603602081101561025557600080fd5b81019080803573ffffffffffffffffffffffffffffffffffffffff1690602001909291905050506112c4565b005b34801561028f57600080fd5b5061029861137a565b6040518082815260200191505060405180910390f35b3480156102ba57600080fd5b506102fd600480360360208110156102d157600080fd5b81019080803573ffffffffffffffffffffffffffffffffffffffff169060200190929190505050611380565b005b34801561030b57600080fd5b506103386004803603602081101561032257600080fd5b8101908080359060200190929190505050611436565b005b34801561034657600080fd5b506103896004803603602081101561035d57600080fd5b81019080803573ffffffffffffffffffffffffffffffffffffffff169060200190929190505050611a3b565b604051808215151515815260200191505060405180910390f35b3480156103af57600080fd5b506103b8611a58565b005b3480156103c657600080fd5b506103f3600480360360208110156103dd57600080fd5b8101908080359060200190929190505050611a6a565b604051808215151515815260200191505060405180910390f35b34801561041957600080fd5b50610422611cb5565b604051808273ffffffffffffffffffffffffffffffffffffffff1673ffffffffffffffffffffffffffffffffffffffff16815260200191505060405180910390f35b34801561047057600080fd5b506104bd6004803603604081101561048757600080fd5b81019080803573ffffffffffffffffffffffffffffffffffffffff16906020019092919080359060200190929190505050611cdb565b6040518085815260200184815260200183815260200182815260200194505050505060405180910390f35b3480156104f457600080fd5b506105216004803603602081101561050b57600080fd5b8101908080359060200190929190505050611d27565b60405180848152602001838152602001828152602001935050505060405180910390f35b34801561055157600080fd5b506105946004803603602081101561056857600080fd5b81019080803573ffffffffffffffffffffffffffffffffffffffff169060200190929190505050611d51565b005b3480156105a257600080fd5b506105cf600480360360208110156105b957600080fd5b8101908080359060200190929190505050611e07565b604051808215151515815260200191505060405180910390f35b3480156105f557600080fd5b506106386004803603602081101561060c57600080fd5b81019080803573ffffffffffffffffffffffffffffffffffffffff169060200190929190505050611fba565b6040518082815260200191505060405180910390f35b34801561065a57600080fd5b506106876004803603602081101561067157600080fd5b8101908080359060200190929190505050611fd2565b604051808215151515815260200191505060405180910390f35b3480156106ad57600080fd5b506106fa600480360360408110156106c457600080fd5b81019080803573ffffffffffffffffffffffffffffffffffffffff169060200190929190803590602001909291905050506121d7565b6040518082815260200191505060405180910390f35b34801561071c57600080fd5b5061075f6004803603602081101561073357600080fd5b81019080803573ffffffffffffffffffffffffffffffffffffffff1690602001909291905050506122b9565b604051808215151515815260200191505060405180910390f35b34801561078557600080fd5b506107c86004803603602081101561079c57600080fd5b81019080803573ffffffffffffffffffffffffffffffffffffffff1690602001909291905050506122d6565b604051808215151515815260200191505060405180910390f35b3480156107ee57600080fd5b506107f76122f6565b005b600082111515610897576040517f08c379a00000000000000000000000000000000000000000000000000000000081526004018080602001828103825260238152602001807f207374616b65206120706f736974697665206e756d626572206f6620746f6b6581526020017f6e7320000000000000000000000000000000000000000000000000000000000081525060400191505060405180910390fd5b60006004600083815260200190815260200160002060010154111515610971576040517f08c379a000000000000000000000000000000000000000000000000000000000815260040180806020018281038252605d8152602001807f7468657265206973206e6f207374616b696e67207061636b616765207769746881526020017f20746865206465636c61726564206e616d652c206f7220746865207374616b6981526020017f6e67207061636b61676520697320706f6f726c7920666f726d6174656400000081525060600191505060405180910390fd5b600660009054906101000a900473ffffffffffffffffffffffffffffffffffffffff1673ffffffffffffffffffffffffffffffffffffffff166323b872dd3330856040518463ffffffff167c0100000000000000000000000000000000000000000000000000000000028152600401808473ffffffffffffffffffffffffffffffffffffffff1673ffffffffffffffffffffffffffffffffffffffff1681526020018373ffffffffffffffffffffffffffffffffffffffff1673ffffffffffffffffffffffffffffffffffffffff1681526020018281526020019350505050602060405180830381600087803b158015610a6a57600080fd5b505af1158015610a7e573d6000803e3d6000fd5b505050506040513d6020811015610a9457600080fd5b810190808051906020019092919050505050610af882600960003373ffffffffffffffffffffffffffffffffffffffff1673ffffffffffffffffffffffffffffffffffffffff1681526020019081526020016000205461230890919063ffffffff16565b600960003373ffffffffffffffffffffffffffffffffffffffff1673ffffffffffffffffffffffffffffffffffffffff16815260200190815260200160002081905550610b43612ef6565b828160000181815250504281602001818152505081816040018181525050600a60003373ffffffffffffffffffffffffffffffffffffffff1673ffffffffffffffffffffffffffffffffffffffff168152602001908152602001600020819080600181540180825580915050906001820390600052602060002090600402016000909192909190915060008201518160000155602082015181600101556040820151816002015560608201518160030155505050600b60003373ffffffffffffffffffffffffffffffffffffffff1673ffffffffffffffffffffffffffffffffffffffff16815260200190815260200160002060009054906101000a900460ff161515610cb15760073390806001815401808255809150509060018203906000526020600020016000909192909190916101000a81548173ffffffffffffffffffffffffffffffffffffffff021916908373ffffffffffffffffffffffffffffffffffffffff160217905550505b6001600b60003373ffffffffffffffffffffffffffffffffffffffff1673ffffffffffffffffffffffffffffffffffffffff16815260200190815260200160002060006101000a81548160ff021916908315150217905550610d1e83600c5461230890919063ffffffff16565b600c81905550505050565b60028054600181600116156101000203166002900480601f016020809104026020016040519081016040528092919081815260200182805460018160011615610100020316600290048015610dbf5780601f10610d9457610100808354040283529160200191610dbf565b820191906000526020600020905b815481529060010190602001808311610da257829003601f168201915b505050505081565b6000600a60003373ffffffffffffffffffffffffffffffffffffffff1673ffffffffffffffffffffffffffffffffffffffff16815260200190815260200160002082815481101515610e1557fe5b906000526020600020906004020160000154111515610ec2576040517f08c379a000000000000000000000000000000000000000000000000000000000815260040180806020018281038252602e8152602001807f546865207374616b6520796f752061726520736561726368696e6720666f722081526020017f6973206e6f7420646566696e656400000000000000000000000000000000000081525060400191505060405180910390fd5b6000600a60003373ffffffffffffffffffffffffffffffffffffffff1673ffffffffffffffffffffffffffffffffffffffff16815260200190815260200160002082815481101515610f1057fe5b906000526020600020906004020160030154141515610f97576040517f08c379a00000000000000000000000000000000000000000000000000000000081526004018080602001828103825260178152602001807f5374616b6520616c72656164792077697468647261776e00000000000000000081525060200191505060405180910390fd5b600660009054906101000a900473ffffffffffffffffffffffffffffffffffffffff1673ffffffffffffffffffffffffffffffffffffffff1663a9059cbb33600a60003373ffffffffffffffffffffffffffffffffffffffff1673ffffffffffffffffffffffffffffffffffffffff1681526020019081526020016000208481548110151561102257fe5b9060005260206000209060040201600001546040518363ffffffff167c0100000000000000000000000000000000000000000000000000000000028152600401808373ffffffffffffffffffffffffffffffffffffffff1673ffffffffffffffffffffffffffffffffffffffff16815260200182815260200192505050602060405180830381600087803b1580156110b957600080fd5b505af11580156110cd573d6000803e3d6000fd5b505050506040513d60208110156110e357600080fd5b81019080805190602001909291905050505042600a60003373ffffffffffffffffffffffffffffffffffffffff1673ffffffffffffffffffffffffffffffffffffffff1681526020019081526020016000208281548110151561114257fe5b9060005260206000209060040201600301819055506111c9600a60003373ffffffffffffffffffffffffffffffffffffffff1673ffffffffffffffffffffffffffffffffffffffff168152602001908152602001600020828154811015156111a657fe5b906000526020600020906004020160000154600c5461239290919063ffffffff16565b600c8190555061127e600a60003373ffffffffffffffffffffffffffffffffffffffff1673ffffffffffffffffffffffffffffffffffffffff1681526020019081526020016000208281548110151561121e57fe5b906000526020600020906004020160000154600960003373ffffffffffffffffffffffffffffffffffffffff1673ffffffffffffffffffffffffffffffffffffffff1681526020019081526020016000205461239290919063ffffffff16565b600960003373ffffffffffffffffffffffffffffffffffffffff1673ffffffffffffffffffffffffffffffffffffffff1681526020019081526020016000208190555050565b6112d46112cf6123dc565b6122b9565b151561136e576040517f08c379a00000000000000000000000000000000000000000000000000000000081526004018080602001828103825260408152602001807f57686974656c69737441646d696e526f6c653a2063616c6c657220646f65732081526020017f6e6f742068617665207468652057686974656c69737441646d696e20726f6c6581525060400191505060405180910390fd5b611377816123e4565b50565b600c5481565b61139061138b6123dc565b6122b9565b151561142a576040517f08c379a00000000000000000000000000000000000000000000000000000000081526004018080602001828103825260408152602001807f57686974656c69737441646d696e526f6c653a2063616c6c657220646f65732081526020017f6e6f742068617665207468652057686974656c69737441646d696e20726f6c6581525060400191505060405180910390fd5b6114338161243e565b50565b6000600a60003373ffffffffffffffffffffffffffffffffffffffff1673ffffffffffffffffffffffffffffffffffffffff1681526020019081526020016000208281548110151561148457fe5b906000526020600020906004020160000154111515611531576040517f08c379a000000000000000000000000000000000000000000000000000000000815260040180806020018281038252602e8152602001807f546865207374616b6520796f752061726520736561726368696e6720666f722081526020017f6973206e6f7420646566696e656400000000000000000000000000000000000081525060400191505060405180910390fd5b6000600a60003373ffffffffffffffffffffffffffffffffffffffff1673ffffffffffffffffffffffffffffffffffffffff1681526020019081526020016000208281548110151561157f57fe5b906000526020600020906004020160030154141515611606576040517f08c379a00000000000000000000000000000000000000000000000000000000081526004018080602001828103825260178152602001807f5374616b6520616c72656164792077697468647261776e00000000000000000081525060200191505060405180910390fd5b6000611613338342612498565b9050806008541115156116da576040517f08c379a00000000000000000000000000000000000000000000000000000000081526004018080602001828103825260588152602001807f546f6b656e2063726561746f727320646964206e6f7420706c61636520656e6f81526020017f756768206c697175696469747920696e2074686520636f6e747261637420666f81526020017f7220796f75722072657761726420746f2062652070616964000000000000000081525060600191505060405180910390fd5b6116ef8160085461239290919063ffffffff16565b600881905550600061176782600a60003373ffffffffffffffffffffffffffffffffffffffff1673ffffffffffffffffffffffffffffffffffffffff1681526020019081526020016000208581548110151561174757fe5b90600052602060002090600402016000015461230890919063ffffffff16565b9050600660009054906101000a900473ffffffffffffffffffffffffffffffffffffffff1673ffffffffffffffffffffffffffffffffffffffff1663a9059cbb33836040518363ffffffff167c0100000000000000000000000000000000000000000000000000000000028152600401808373ffffffffffffffffffffffffffffffffffffffff1673ffffffffffffffffffffffffffffffffffffffff16815260200182815260200192505050602060405180830381600087803b15801561182e57600080fd5b505af1158015611842573d6000803e3d6000fd5b505050506040513d602081101561185857600080fd5b81019080805190602001909291905050505042600a60003373ffffffffffffffffffffffffffffffffffffffff1673ffffffffffffffffffffffffffffffffffffffff168152602001908152602001600020848154811015156118b757fe5b90600052602060002090600402016003018190555061193e600a60003373ffffffffffffffffffffffffffffffffffffffff1673ffffffffffffffffffffffffffffffffffffffff1681526020019081526020016000208481548110151561191b57fe5b906000526020600020906004020160000154600c5461239290919063ffffffff16565b600c819055506119f3600a60003373ffffffffffffffffffffffffffffffffffffffff1673ffffffffffffffffffffffffffffffffffffffff1681526020019081526020016000208481548110151561199357fe5b906000526020600020906004020160000154600960003373ffffffffffffffffffffffffffffffffffffffff1673ffffffffffffffffffffffffffffffffffffffff1681526020019081526020016000205461239290919063ffffffff16565b600960003373ffffffffffffffffffffffffffffffffffffffff1673ffffffffffffffffffffffffffffffffffffffff16815260200190815260200160002081905550505050565b6000611a5182600161289d90919063ffffffff16565b9050919050565b611a68611a636123dc565b6129c0565b565b6000611a7c611a776123dc565b611a3b565b1515611b16576040517f08c379a000000000000000000000000000000000000000000000000000000000815260040180806020018281038252603a8152602001807f57686974656c6973746564526f6c653a2063616c6c657220646f6573206e6f7481526020017f2068617665207468652057686974656c697374656420726f6c6500000000000081525060400191505060405180910390fd5b6008548211151515611b90576040517f08c379a000000000000000000000000000000000000000000000000000000000815260040180806020018281038252601f8152602001807f796f752063616e6e6f74207769746864726177207468697320616d6f756e740081525060200191505060405180910390fd5b611ba58260085461239290919063ffffffff16565b600881905550600660009054906101000a900473ffffffffffffffffffffffffffffffffffffffff1673ffffffffffffffffffffffffffffffffffffffff1663a9059cbb33846040518363ffffffff167c0100000000000000000000000000000000000000000000000000000000028152600401808373ffffffffffffffffffffffffffffffffffffffff1673ffffffffffffffffffffffffffffffffffffffff16815260200182815260200192505050602060405180830381600087803b158015611c7057600080fd5b505af1158015611c84573d6000803e3d6000fd5b505050506040513d6020811015611c9a57600080fd5b81019080805190602001909291905050505060019050919050565b600660009054906101000a900473ffffffffffffffffffffffffffffffffffffffff1681565b600a60205281600052604060002081815481101515611cf657fe5b9060005260206000209060040201600091509150508060000154908060010154908060020154908060030154905084565b60046020528060005260406000206000915090508060000154908060010154908060020154905083565b611d61611d5c6123dc565b6122b9565b1515611dfb576040517f08c379a00000000000000000000000000000000000000000000000000000000081526004018080602001828103825260408152602001807f57686974656c69737441646d696e526f6c653a2063616c6c657220646f65732081526020017f6e6f742068617665207468652057686974656c69737441646d696e20726f6c6581525060400191505060405180910390fd5b611e0481612a1a565b50565b6000611e19611e146123dc565b6122b9565b1515611eb3576040517f08c379a00000000000000000000000000000000000000000000000000000000081526004018080602001828103825260408152602001807f57686974656c69737441646d696e526f6c653a2063616c6c657220646f65732081526020017f6e6f742068617665207468652057686974656c69737441646d696e20726f6c6581525060400191505060405180910390fd5b600660009054906101000a900473ffffffffffffffffffffffffffffffffffffffff1673ffffffffffffffffffffffffffffffffffffffff1663a9059cbb33846040518363ffffffff167c0100000000000000000000000000000000000000000000000000000000028152600401808373ffffffffffffffffffffffffffffffffffffffff1673ffffffffffffffffffffffffffffffffffffffff16815260200182815260200192505050602060405180830381600087803b158015611f7857600080fd5b505af1158015611f8c573d6000803e3d6000fd5b505050506040513d6020811015611fa257600080fd5b81019080805190602001909291905050509050919050565b60096020528060005260406000206000915090505481565b6000611fe4611fdf6123dc565b611a3b565b151561207e576040517f08c379a000000000000000000000000000000000000000000000000000000000815260040180806020018281038252603a8152602001807f57686974656c6973746564526f6c653a2063616c6c657220646f6573206e6f7481526020017f2068617665207468652057686974656c697374656420726f6c6500000000000081525060400191505060405180910390fd5b600660009054906101000a900473ffffffffffffffffffffffffffffffffffffffff1673ffffffffffffffffffffffffffffffffffffffff166323b872dd3330856040518463ffffffff167c0100000000000000000000000000000000000000000000000000000000028152600401808473ffffffffffffffffffffffffffffffffffffffff1673ffffffffffffffffffffffffffffffffffffffff1681526020018373ffffffffffffffffffffffffffffffffffffffff1673ffffffffffffffffffffffffffffffffffffffff1681526020018281526020019350505050602060405180830381600087803b15801561217757600080fd5b505af115801561218b573d6000803e3d6000fd5b505050506040513d60208110156121a157600080fd5b8101908080519060200190929190505050506121c88260085461230890919063ffffffff16565b60088190555060019050919050565b6000804290506000600a60008673ffffffffffffffffffffffffffffffffffffffff1673ffffffffffffffffffffffffffffffffffffffff1681526020019081526020016000208481548110151561222b57fe5b9060005260206000209060040201600301541415156122a557600a60008573ffffffffffffffffffffffffffffffffffffffff1673ffffffffffffffffffffffffffffffffffffffff1681526020019081526020016000208381548110151561229057fe5b90600052602060002090600402016003015490505b6122b0848483612498565b91505092915050565b60006122cf82600061289d90919063ffffffff16565b9050919050565b600b6020528060005260406000206000915054906101000a900460ff1681565b6123066123016123dc565b61243e565b565b6000808284019050838110151515612388576040517f08c379a000000000000000000000000000000000000000000000000000000000815260040180806020018281038252601b8152602001807f536166654d6174683a206164646974696f6e206f766572666c6f77000000000081525060200191505060405180910390fd5b8091505092915050565b60006123d483836040805190810160405280601e81526020017f536166654d6174683a207375627472616374696f6e206f766572666c6f770000815250612a74565b905092915050565b600033905090565b6123f8816001612b3690919063ffffffff16565b8073ffffffffffffffffffffffffffffffffffffffff167fee1504a83b6d4a361f4c1dc78ab59bfa30d6a3b6612c403e86bb01ef2984295f60405160405180910390a250565b612452816001612c1390919063ffffffff16565b8073ffffffffffffffffffffffffffffffffffffffff167f270d9b30cf5b0793bbfd54c9d5b94aeb49462b8148399000265144a8722da6b660405160405180910390a250565b600080600a60008673ffffffffffffffffffffffffffffffffffffffff1673ffffffffffffffffffffffffffffffffffffffff168152602001908152602001600020848154811015156124e757fe5b906000526020600020906004020160000154111515612594576040517f08c379a000000000000000000000000000000000000000000000000000000000815260040180806020018281038252602e8152602001807f546865207374616b6520796f752061726520736561726368696e6720666f722081526020017f6973206e6f7420646566696e656400000000000000000000000000000000000081525060400191505060405180910390fd5b60008290506000600a60008773ffffffffffffffffffffffffffffffffffffffff1673ffffffffffffffffffffffffffffffffffffffff168152602001908152602001600020858154811015156125e757fe5b9060005260206000209060040201600101549050600060046000600a60008a73ffffffffffffffffffffffffffffffffffffffff1673ffffffffffffffffffffffffffffffffffffffff1681526020019081526020016000208881548110151561264d57fe5b9060005260206000209060040201600201548152602001908152602001600020600101549050600060046000600a60008b73ffffffffffffffffffffffffffffffffffffffff1673ffffffffffffffffffffffffffffffffffffffff168152602001908152602001600020898154811015156126c557fe5b90600052602060002090600402016002015481526020019081526020016000206002015490506000612700848661239290919063ffffffff16565b90506000811115156127a0576040517f08c379a000000000000000000000000000000000000000000000000000000000815260040180806020018281038252602e8152602001807f5374616b696e672074696d652063616e6e6f74206265206c617465722074686181526020017f6e2063757272656e742074696d6500000000000000000000000000000000000081525060400191505060405180910390fd5b60006127b58483612d1590919063ffffffff16565b905060008090506000600a60008d73ffffffffffffffffffffffffffffffffffffffff1673ffffffffffffffffffffffffffffffffffffffff1681526020019081526020016000208b81548110151561280a57fe5b90600052602060002090600402016000015490505b600083111561288b57600061285060646128428885612d5f90919063ffffffff16565b612d1590919063ffffffff16565b9050612865818361230890919063ffffffff16565b915061287a818461230890919063ffffffff16565b92508380600190039450505061281f565b81985050505050505050509392505050565b60008073ffffffffffffffffffffffffffffffffffffffff168273ffffffffffffffffffffffffffffffffffffffff1614151515612969576040517f08c379a00000000000000000000000000000000000000000000000000000000081526004018080602001828103825260228152602001807f526f6c65733a206163636f756e7420697320746865207a65726f20616464726581526020017f737300000000000000000000000000000000000000000000000000000000000081525060400191505060405180910390fd5b8260000160008373ffffffffffffffffffffffffffffffffffffffff1673ffffffffffffffffffffffffffffffffffffffff16815260200190815260200160002060009054906101000a900460ff16905092915050565b6129d4816000612c1390919063ffffffff16565b8073ffffffffffffffffffffffffffffffffffffffff167f0a8eb35e5ca14b3d6f28e4abf2f128dbab231a58b56e89beb5d636115001e16560405160405180910390a250565b612a2e816000612b3690919063ffffffff16565b8073ffffffffffffffffffffffffffffffffffffffff167f22380c05984257a1cb900161c713dd71d39e74820f1aea43bd3f1bdd2096129960405160405180910390a250565b60008383111582901515612b23576040517f08c379a00000000000000000000000000000000000000000000000000000000081526004018080602001828103825283818151815260200191508051906020019080838360005b83811015612ae8578082015181840152602081019050612acd565b50505050905090810190601f168015612b155780820380516001836020036101000a031916815260200191505b509250505060405180910390fd5b5060008385039050809150509392505050565b612b40828261289d565b151515612bb5576040517f08c379a000000000000000000000000000000000000000000000000000000000815260040180806020018281038252601f8152602001807f526f6c65733a206163636f756e7420616c72656164792068617320726f6c650081525060200191505060405180910390fd5b60018260000160008373ffffffffffffffffffffffffffffffffffffffff1673ffffffffffffffffffffffffffffffffffffffff16815260200190815260200160002060006101000a81548160ff0219169083151502179055505050565b612c1d828261289d565b1515612cb7576040517f08c379a00000000000000000000000000000000000000000000000000000000081526004018080602001828103825260218152602001807f526f6c65733a206163636f756e7420646f6573206e6f74206861766520726f6c81526020017f650000000000000000000000000000000000000000000000000000000000000081525060400191505060405180910390fd5b60008260000160008373ffffffffffffffffffffffffffffffffffffffff1673ffffffffffffffffffffffffffffffffffffffff16815260200190815260200160002060006101000a81548160ff0219169083151502179055505050565b6000612d5783836040805190810160405280601a81526020017f536166654d6174683a206469766973696f6e206279207a65726f000000000000815250612e2c565b905092915050565b600080831415612d725760009050612e26565b60008284029050828482811515612d8557fe5b04141515612e21576040517f08c379a00000000000000000000000000000000000000000000000000000000081526004018080602001828103825260218152602001807f536166654d6174683a206d756c7469706c69636174696f6e206f766572666c6f81526020017f770000000000000000000000000000000000000000000000000000000000000081525060400191505060405180910390fd5b809150505b92915050565b600080831182901515612eda576040517f08c379a00000000000000000000000000000000000000000000000000000000081526004018080602001828103825283818151815260200191508051906020019080838360005b83811015612e9f578082015181840152602081019050612e84565b50505050905090810190601f168015612ecc5780820380516001836020036101000a031916815260200191505b509250505060405180910390fd5b5060008385811515612ee857fe5b049050809150509392505050565b60806040519081016040528060008152602001600081526020016000801916815260200160008152509056fea165627a7a72305820aa974c4f7b1c813b02b5677f588ef11f25c1a92b36a634ac921f855f39590f0c0029",
  "source": "pragma solidity ^0.5.0;\n\nimport \"@openzeppelin/contracts/token/ERC20/IERC20.sol\";\nimport \"@openzeppelin/contracts/math/SafeMath.sol\";\nimport \"@openzeppelin/contracts/ownership/Ownable.sol\";\nimport \"@openzeppelin/contracts/access/roles/WhitelistedRole.sol\";\n\ncontract CliqStaking is WhitelistedRole {\n    using SafeMath for uint256;\n\n    struct YieldType {\n        bytes32 _packageName;\n        uint256 _daysLocked;\n        uint256 _packageInterest;\n    }\n\n    struct Stake {\n        uint256 _amount;\n        uint256 _timestamp;\n        bytes32 _packageName;\n        uint256 _withdrawnTimestamp;\n    }\n\n    function toWei(uint256 num) private view returns (uint256) {\n        return num * 10**decimals;\n    }\n\n    function definePackage(\n        bytes32 _name,\n        uint256 _days,\n        uint256 _packageInterest\n    ) private {\n        YieldType memory package;\n        package._packageName = _name;\n        package._daysLocked = _days;\n        package._packageInterest = _packageInterest;\n        packages[_name] = package;\n    }\n\n    string public name = \"Cliq Staking Contract\";\n\n    uint256 decimals = 18;\n\n    mapping(bytes32 => YieldType) public packages;\n\n    address private owner;\n    IERC20 public tokenContract;\n\n    address[] stakers;\n\n    uint256 whitelistRoleTokenAllowance = 0;\n\n    mapping(address => uint256) public totalStakedBalance;\n    mapping(address => Stake[]) public stakes;\n    mapping(address => bool) public hasStaked;\n    uint256 public totalStakedFunds = 0;\n\n    constructor(address _stakedToken) public {\n        owner = msg.sender;\n        tokenContract = IERC20(_stakedToken);\n        //define packages here\n        definePackage(\"Silver Package\", 30, 8);\n        definePackage(\"Gold Package\", 60, 10);\n        definePackage(\"Platinum Package\", 90, 12);\n    }\n\n    function getAddrTokensBalance(address _address)\n        private\n        view\n        returns (uint256 balance)\n    {\n        return tokenContract.balanceOf(_address);\n    }\n\n    function stakeTokens(uint256 _amount, bytes32 _packageName) public {\n        require(_amount > 0, \" stake a positive number of tokens \");\n        require(\n            packages[_packageName]._daysLocked > 0,\n            \"there is no staking package with the declared name, or the staking package is poorly formated\"\n        );\n\n        //transfer from (need allowance)\n        tokenContract.transferFrom(msg.sender, address(this), _amount);\n\n        //add to stake sum of address\n        totalStakedBalance[msg.sender] = totalStakedBalance[msg.sender].add(\n            _amount\n        );\n\n        //add to stakes\n        Stake memory currentStake;\n        currentStake._amount = _amount;\n        currentStake._timestamp = block.timestamp;\n        currentStake._packageName = _packageName;\n        stakes[msg.sender].push(currentStake);\n\n        //if user is not declared as a staker, push him into the staker array\n        if (!hasStaked[msg.sender]) {\n            stakers.push(msg.sender);\n        }\n\n        //update the bool mapping of past and current stakers\n        hasStaked[msg.sender] = true;\n        totalStakedFunds = totalStakedFunds.add(_amount);\n    }\n\n    function checkStakeReward(address _address, uint256 stakeIndex)\n        external\n        view\n        returns (uint256)\n    {\n        uint256 withdrawnTimestamp = block.timestamp;\n        if (stakes[_address][stakeIndex]._withdrawnTimestamp != 0) {\n            withdrawnTimestamp = stakes[_address][stakeIndex]\n                ._withdrawnTimestamp;\n        }\n\n        return _checkStakeReward(_address, stakeIndex, withdrawnTimestamp);\n    }\n\n    function _checkStakeReward(\n        address _address,\n        uint256 stakeIndex,\n        uint256 untilTimestamp\n    ) private view returns (uint256) {\n        require(\n            stakes[_address][stakeIndex]._amount > 0,\n            \"The stake you are searching for is not defined\"\n        );\n        uint256 currentTime = untilTimestamp;\n        uint256 stakingTime = stakes[_address][stakeIndex]._timestamp;\n        uint256 daysLocked = packages[stakes[_address][stakeIndex]._packageName]\n            ._daysLocked;\n        uint256 packageInterest = packages[stakes[_address][stakeIndex]\n            ._packageName]\n            ._packageInterest;\n\n        uint256 timeDiff = currentTime.sub(stakingTime);\n        require(timeDiff > 0, \"Staking time cannot be later than current time\");\n\n        uint256 yieldPeriods = timeDiff.div(daysLocked); // the _days is in seconds for now so can fucking test stuff\n\n        uint256 yieldReward = 0;\n        uint256 totalStake = stakes[_address][stakeIndex]._amount;\n\n        // for each period of days defined in the package, compound the interest\n        while (yieldPeriods > 0) {\n            uint256 currentReward = totalStake.mul(packageInterest).div(100);\n\n            totalStake = totalStake.add(currentReward);\n\n            yieldReward = yieldReward.add(currentReward);\n\n            yieldPeriods--;\n        }\n\n        return yieldReward;\n    }\n\n    function unstake(uint256 stakeIndex) public {\n        require(\n            stakes[msg.sender][stakeIndex]._amount > 0,\n            \"The stake you are searching for is not defined\"\n        );\n        require(\n            stakes[msg.sender][stakeIndex]._withdrawnTimestamp == 0,\n            \"Stake already withdrawn\"\n        );\n\n        uint256 reward = _checkStakeReward(\n            msg.sender,\n            stakeIndex,\n            block.timestamp\n        );\n\n        require(\n            whitelistRoleTokenAllowance > reward,\n            \"Token creators did not place enough liquidity in the contract for your reward to be paid\"\n        );\n\n        whitelistRoleTokenAllowance = whitelistRoleTokenAllowance.sub(reward);\n\n        uint256 totalStake = stakes[msg.sender][stakeIndex]._amount.add(reward);\n\n        tokenContract.transfer(msg.sender, totalStake);\n        stakes[msg.sender][stakeIndex]._withdrawnTimestamp = block.timestamp;\n        totalStakedFunds = totalStakedFunds.sub(\n            stakes[msg.sender][stakeIndex]._amount\n        );\n        totalStakedBalance[msg.sender] = totalStakedBalance[msg.sender].sub(\n            stakes[msg.sender][stakeIndex]._amount\n        );\n    }\n\n    function forceWithdraw(uint256 stakeIndex) public {\n        require(\n            stakes[msg.sender][stakeIndex]._amount > 0,\n            \"The stake you are searching for is not defined\"\n        );\n        require(\n            stakes[msg.sender][stakeIndex]._withdrawnTimestamp == 0,\n            \"Stake already withdrawn\"\n        );\n\n        tokenContract.transfer(\n            msg.sender,\n            stakes[msg.sender][stakeIndex]._amount\n        );\n        stakes[msg.sender][stakeIndex]._withdrawnTimestamp = block.timestamp;\n        totalStakedFunds = totalStakedFunds.sub(\n            stakes[msg.sender][stakeIndex]._amount\n        );\n        totalStakedBalance[msg.sender] = totalStakedBalance[msg.sender].sub(\n            stakes[msg.sender][stakeIndex]._amount\n        );\n    }\n\n    function parkFunds(uint256 _parkedAmount)\n        public\n        onlyWhitelistAdmin\n        returns (bool)\n    {\n        return tokenContract.transfer(msg.sender, _parkedAmount);\n    }\n\n    function addStakedTokenReward(uint256 _amount)\n        public\n        onlyWhitelisted\n        returns (bool)\n    {\n        //transfer from (need allowance)\n        tokenContract.transferFrom(msg.sender, address(this), _amount);\n        whitelistRoleTokenAllowance = whitelistRoleTokenAllowance.add(_amount);\n        return true;\n    }\n\n    function removeStakedTokenReward(uint256 _amount)\n        public\n        onlyWhitelisted\n        returns (bool)\n    {\n        require(\n            _amount <= whitelistRoleTokenAllowance,\n            \"you cannot withdraw this amount\"\n        );\n        whitelistRoleTokenAllowance = whitelistRoleTokenAllowance.sub(_amount);\n        tokenContract.transfer(msg.sender, _amount);\n        return true;\n    }\n}\n",
  "sourcePath": "/Users/codrin/Projects/erc20/cliq/contracts/cliqStaking.sol",
  "compiler": {
    "name": "solc",
    "version": "0.5.0+commit.1d4f565a.Emscripten.clang"
  },
  "schemaVersion": "3.3.3",
  "updatedAt": "2020-12-19T03:39:10.977Z",
  "networkType": "ethereum",
  "devdoc": {
    "methods": {}
  },
  "userdoc": {
    "methods": {}
  }
}