{
  "contractName": "WhitelistAdminRole",
  "abi": [
    {
      "anonymous": false,
      "inputs": [
        {
          "indexed": true,
          "internalType": "address",
          "name": "account",
          "type": "address"
        }
      ],
      "name": "WhitelistAdminAdded",
      "type": "event"
    },
    {
      "anonymous": false,
      "inputs": [
        {
          "indexed": true,
          "internalType": "address",
          "name": "account",
          "type": "address"
        }
      ],
      "name": "WhitelistAdminRemoved",
      "type": "event"
    },
    {
      "inputs": [
        {
          "internalType": "address",
          "name": "account",
          "type": "address"
        }
      ],
      "name": "isWhitelistAdmin",
      "outputs": [
        {
          "internalType": "bool",
          "name": "",
          "type": "bool"
        }
      ],
      "stateMutability": "view",
      "type": "function"
    },
    {
      "inputs": [
        {
          "internalType": "address",
          "name": "account",
          "type": "address"
        }
      ],
      "name": "addWhitelistAdmin",
      "outputs": [],
      "stateMutability": "nonpayable",
      "type": "function"
    },
    {
      "inputs": [],
      "name": "renounceWhitelistAdmin",
      "outputs": [],
      "stateMutability": "nonpayable",
      "type": "function"
    }
  ],
  "bytecode": "0x608060405234801561001057600080fd5b50610579806100206000396000f3fe608060405234801561001057600080fd5b50600436106100415760003560e01c80634c5a628c146100465780637362d9c814610050578063bb5f747b14610094575b600080fd5b61004e6100ee565b005b6100926004803603602081101561006657600080fd5b81019080803573ffffffffffffffffffffffffffffffffffffffff169060200190929190505050610100565b005b6100d6600480360360208110156100aa57600080fd5b81019080803573ffffffffffffffffffffffffffffffffffffffff169060200190929190505050610171565b60405180821515815260200191505060405180910390f35b6100fe6100f961018e565b610196565b565b61011061010b61018e565b610171565b610165576040517f08c379a00000000000000000000000000000000000000000000000000000000081526004018080602001828103825260408152602001806105046040913960400191505060405180910390fd5b61016e816101f0565b50565b600061018782600061024a90919063ffffffff16565b9050919050565b600033905090565b6101aa81600061032890919063ffffffff16565b8073ffffffffffffffffffffffffffffffffffffffff167f0a8eb35e5ca14b3d6f28e4abf2f128dbab231a58b56e89beb5d636115001e16560405160405180910390a250565b6102048160006103e590919063ffffffff16565b8073ffffffffffffffffffffffffffffffffffffffff167f22380c05984257a1cb900161c713dd71d39e74820f1aea43bd3f1bdd2096129960405160405180910390a250565b60008073ffffffffffffffffffffffffffffffffffffffff168273ffffffffffffffffffffffffffffffffffffffff1614156102d1576040517f08c379a00000000000000000000000000000000000000000000000000000000081526004018080602001828103825260228152602001806104e26022913960400191505060405180910390fd5b8260000160008373ffffffffffffffffffffffffffffffffffffffff1673ffffffffffffffffffffffffffffffffffffffff16815260200190815260200160002060009054906101000a900460ff16905092915050565b610332828261024a565b610387576040517f08c379a00000000000000000000000000000000000000000000000000000000081526004018080602001828103825260218152602001806104c16021913960400191505060405180910390fd5b60008260000160008373ffffffffffffffffffffffffffffffffffffffff1673ffffffffffffffffffffffffffffffffffffffff16815260200190815260200160002060006101000a81548160ff0219169083151502179055505050565b6103ef828261024a565b15610462576040517f08c379a000000000000000000000000000000000000000000000000000000000815260040180806020018281038252601f8152602001807f526f6c65733a206163636f756e7420616c72656164792068617320726f6c650081525060200191505060405180910390fd5b60018260000160008373ffffffffffffffffffffffffffffffffffffffff1673ffffffffffffffffffffffffffffffffffffffff16815260200190815260200160002060006101000a81548160ff021916908315150217905550505056fe526f6c65733a206163636f756e7420646f6573206e6f74206861766520726f6c65526f6c65733a206163636f756e7420697320746865207a65726f206164647265737357686974656c69737441646d696e526f6c653a2063616c6c657220646f6573206e6f742068617665207468652057686974656c69737441646d696e20726f6c65a2646970667358221220e4aba4be9823e815cc15d0bed470ddef19e2e7b35e7ac7ae948a371e123d41c164736f6c63430007040033",
  "immutableReferences": {},
  "source": "// SPDX-License-Identifier: MIT\n\npragma solidity ^0.7.4;\n\nimport \"@openzeppelin/contracts/GSN/Context.sol\";\nimport \"./Roles.sol\";\n\n/**\n * @title WhitelistAdminRole\n * @dev WhitelistAdmins are responsible for assigning and removing Whitelisted accounts.\n */\ncontract WhitelistAdminRole is Context {\n    using Roles for Roles.Role;\n\n    event WhitelistAdminAdded(address indexed account);\n    event WhitelistAdminRemoved(address indexed account);\n\n    Roles.Role private _whitelistAdmins;\n\n    modifier onlyWhitelistAdmin() {\n        require(\n            isWhitelistAdmin(_msgSender()),\n            \"WhitelistAdminRole: caller does not have the WhitelistAdmin role\"\n        );\n        _;\n    }\n\n    function isWhitelistAdmin(address account) public view returns (bool) {\n        return _whitelistAdmins.has(account);\n    }\n\n    function addWhitelistAdmin(address account) public onlyWhitelistAdmin {\n        _addWhitelistAdmin(account);\n    }\n\n    function renounceWhitelistAdmin() public {\n        _removeWhitelistAdmin(_msgSender());\n    }\n\n    function _addWhitelistAdmin(address account) internal {\n        _whitelistAdmins.add(account);\n        emit WhitelistAdminAdded(account);\n    }\n\n    function _removeWhitelistAdmin(address account) internal {\n        _whitelistAdmins.remove(account);\n        emit WhitelistAdminRemoved(account);\n    }\n}\n",
  "sourcePath": "/Users/codrin/Projects/erc20-staking/deficliq-staking/contracts/WhitelistAdminRole.sol",
  "compiler": {
    "name": "solc",
    "version": "0.7.4+commit.3f05b770.Emscripten.clang"
  },
  "schemaVersion": "3.3.3",
  "updatedAt": "2021-01-04T18:57:37.651Z",
  "devdoc": {
    "details": "WhitelistAdmins are responsible for assigning and removing Whitelisted accounts.",
    "kind": "dev",
    "methods": {},
    "title": "WhitelistAdminRole",
    "version": 1
  },
  "userdoc": {
    "kind": "user",
    "methods": {},
    "version": 1
  }
}