{
  "contractName": "WhitelistedRole",
  "abi": [
    {
      "anonymous": false,
      "inputs": [
        {
          "indexed": true,
          "internalType": "address",
          "name": "account",
          "type": "address"
        }
      ],
      "name": "WhitelistAdminAdded",
      "type": "event"
    },
    {
      "anonymous": false,
      "inputs": [
        {
          "indexed": true,
          "internalType": "address",
          "name": "account",
          "type": "address"
        }
      ],
      "name": "WhitelistAdminRemoved",
      "type": "event"
    },
    {
      "anonymous": false,
      "inputs": [
        {
          "indexed": true,
          "internalType": "address",
          "name": "account",
          "type": "address"
        }
      ],
      "name": "WhitelistedAdded",
      "type": "event"
    },
    {
      "anonymous": false,
      "inputs": [
        {
          "indexed": true,
          "internalType": "address",
          "name": "account",
          "type": "address"
        }
      ],
      "name": "WhitelistedRemoved",
      "type": "event"
    },
    {
      "inputs": [
        {
          "internalType": "address",
          "name": "account",
          "type": "address"
        }
      ],
      "name": "addWhitelistAdmin",
      "outputs": [],
      "stateMutability": "nonpayable",
      "type": "function"
    },
    {
      "inputs": [
        {
          "internalType": "address",
          "name": "account",
          "type": "address"
        }
      ],
      "name": "isWhitelistAdmin",
      "outputs": [
        {
          "internalType": "bool",
          "name": "",
          "type": "bool"
        }
      ],
      "stateMutability": "view",
      "type": "function"
    },
    {
      "inputs": [],
      "name": "renounceWhitelistAdmin",
      "outputs": [],
      "stateMutability": "nonpayable",
      "type": "function"
    },
    {
      "inputs": [
        {
          "internalType": "address",
          "name": "account",
          "type": "address"
        }
      ],
      "name": "isWhitelisted",
      "outputs": [
        {
          "internalType": "bool",
          "name": "",
          "type": "bool"
        }
      ],
      "stateMutability": "view",
      "type": "function"
    },
    {
      "inputs": [
        {
          "internalType": "address",
          "name": "account",
          "type": "address"
        }
      ],
      "name": "addWhitelisted",
      "outputs": [],
      "stateMutability": "nonpayable",
      "type": "function"
    },
    {
      "inputs": [
        {
          "internalType": "address",
          "name": "account",
          "type": "address"
        }
      ],
      "name": "removeWhitelisted",
      "outputs": [],
      "stateMutability": "nonpayable",
      "type": "function"
    },
    {
      "inputs": [],
      "name": "renounceWhitelisted",
      "outputs": [],
      "stateMutability": "nonpayable",
      "type": "function"
    }
  ],
  "bytecode": "0x608060405234801561001057600080fd5b50610866806100206000396000f3fe608060405234801561001057600080fd5b506004361061007d5760003560e01c80634c5a628c1161005b5780634c5a628c146101645780637362d9c81461016e578063bb5f747b146101b2578063d6cd94731461020c5761007d565b806310154bad14610082578063291d9549146100c65780633af32abf1461010a575b600080fd5b6100c46004803603602081101561009857600080fd5b81019080803573ffffffffffffffffffffffffffffffffffffffff169060200190929190505050610216565b005b610108600480360360208110156100dc57600080fd5b81019080803573ffffffffffffffffffffffffffffffffffffffff169060200190929190505050610287565b005b61014c6004803603602081101561012057600080fd5b81019080803573ffffffffffffffffffffffffffffffffffffffff1690602001909291905050506102f8565b60405180821515815260200191505060405180910390f35b61016c610315565b005b6101b06004803603602081101561018457600080fd5b81019080803573ffffffffffffffffffffffffffffffffffffffff169060200190929190505050610327565b005b6101f4600480360360208110156101c857600080fd5b81019080803573ffffffffffffffffffffffffffffffffffffffff169060200190929190505050610398565b60405180821515815260200191505060405180910390f35b6102146103b5565b005b6102266102216103c7565b610398565b61027b576040517f08c379a00000000000000000000000000000000000000000000000000000000081526004018080602001828103825260408152602001806107f16040913960400191505060405180910390fd5b610284816103cf565b50565b6102976102926103c7565b610398565b6102ec576040517f08c379a00000000000000000000000000000000000000000000000000000000081526004018080602001828103825260408152602001806107f16040913960400191505060405180910390fd5b6102f581610429565b50565b600061030e82600161048390919063ffffffff16565b9050919050565b6103256103206103c7565b610561565b565b6103376103326103c7565b610398565b61038c576040517f08c379a00000000000000000000000000000000000000000000000000000000081526004018080602001828103825260408152602001806107f16040913960400191505060405180910390fd5b610395816105bb565b50565b60006103ae82600061048390919063ffffffff16565b9050919050565b6103c56103c06103c7565b610429565b565b600033905090565b6103e381600161061590919063ffffffff16565b8073ffffffffffffffffffffffffffffffffffffffff167fee1504a83b6d4a361f4c1dc78ab59bfa30d6a3b6612c403e86bb01ef2984295f60405160405180910390a250565b61043d8160016106f090919063ffffffff16565b8073ffffffffffffffffffffffffffffffffffffffff167f270d9b30cf5b0793bbfd54c9d5b94aeb49462b8148399000265144a8722da6b660405160405180910390a250565b60008073ffffffffffffffffffffffffffffffffffffffff168273ffffffffffffffffffffffffffffffffffffffff16141561050a576040517f08c379a00000000000000000000000000000000000000000000000000000000081526004018080602001828103825260228152602001806107cf6022913960400191505060405180910390fd5b8260000160008373ffffffffffffffffffffffffffffffffffffffff1673ffffffffffffffffffffffffffffffffffffffff16815260200190815260200160002060009054906101000a900460ff16905092915050565b6105758160006106f090919063ffffffff16565b8073ffffffffffffffffffffffffffffffffffffffff167f0a8eb35e5ca14b3d6f28e4abf2f128dbab231a58b56e89beb5d636115001e16560405160405180910390a250565b6105cf81600061061590919063ffffffff16565b8073ffffffffffffffffffffffffffffffffffffffff167f22380c05984257a1cb900161c713dd71d39e74820f1aea43bd3f1bdd2096129960405160405180910390a250565b61061f8282610483565b15610692576040517f08c379a000000000000000000000000000000000000000000000000000000000815260040180806020018281038252601f8152602001807f526f6c65733a206163636f756e7420616c72656164792068617320726f6c650081525060200191505060405180910390fd5b60018260000160008373ffffffffffffffffffffffffffffffffffffffff1673ffffffffffffffffffffffffffffffffffffffff16815260200190815260200160002060006101000a81548160ff0219169083151502179055505050565b6106fa8282610483565b61074f576040517f08c379a00000000000000000000000000000000000000000000000000000000081526004018080602001828103825260218152602001806107ae6021913960400191505060405180910390fd5b60008260000160008373ffffffffffffffffffffffffffffffffffffffff1673ffffffffffffffffffffffffffffffffffffffff16815260200190815260200160002060006101000a81548160ff021916908315150217905550505056fe526f6c65733a206163636f756e7420646f6573206e6f74206861766520726f6c65526f6c65733a206163636f756e7420697320746865207a65726f206164647265737357686974656c69737441646d696e526f6c653a2063616c6c657220646f6573206e6f742068617665207468652057686974656c69737441646d696e20726f6c65a26469706673582212205761eee66a05623cce46dbbee39d3c10395c830689ccfdee4d93b20be65a40ff64736f6c63430007040033",
  "immutableReferences": {},
  "source": "// SPDX-License-Identifier: MIT\n\npragma solidity ^0.7.4;\n\nimport \"@openzeppelin/contracts/GSN/Context.sol\";\nimport \"./Roles.sol\";\nimport \"./WhitelistAdminRole.sol\";\n\n/**\n * @title WhitelistedRole\n * @dev Whitelisted accounts have been approved by a WhitelistAdmin to perform certain actions (e.g. participate in a\n * crowdsale). This role is special in that the only accounts that can add it are WhitelistAdmins (who can also remove\n * it), and not Whitelisteds themselves.\n */\ncontract WhitelistedRole is Context, WhitelistAdminRole {\n    using Roles for Roles.Role;\n\n    event WhitelistedAdded(address indexed account);\n    event WhitelistedRemoved(address indexed account);\n\n    Roles.Role private _whitelisteds;\n\n    modifier onlyWhitelisted() {\n        require(\n            isWhitelisted(_msgSender()),\n            \"WhitelistedRole: caller does not have the Whitelisted role\"\n        );\n        _;\n    }\n\n    function isWhitelisted(address account) public view returns (bool) {\n        return _whitelisteds.has(account);\n    }\n\n    function addWhitelisted(address account) public onlyWhitelistAdmin {\n        _addWhitelisted(account);\n    }\n\n    function removeWhitelisted(address account) public onlyWhitelistAdmin {\n        _removeWhitelisted(account);\n    }\n\n    function renounceWhitelisted() public {\n        _removeWhitelisted(_msgSender());\n    }\n\n    function _addWhitelisted(address account) internal {\n        _whitelisteds.add(account);\n        emit WhitelistedAdded(account);\n    }\n\n    function _removeWhitelisted(address account) internal {\n        _whitelisteds.remove(account);\n        emit WhitelistedRemoved(account);\n    }\n}\n",
  "sourcePath": "/Users/codrin/Projects/erc20-staking/deficliq-staking/contracts/WhitelistedRole.sol",
  "compiler": {
    "name": "solc",
    "version": "0.7.4+commit.3f05b770.Emscripten.clang"
  },
  "schemaVersion": "3.3.3",
  "updatedAt": "2021-01-04T18:57:37.654Z",
  "devdoc": {
    "details": "Whitelisted accounts have been approved by a WhitelistAdmin to perform certain actions (e.g. participate in a crowdsale). This role is special in that the only accounts that can add it are WhitelistAdmins (who can also remove it), and not Whitelisteds themselves.",
    "kind": "dev",
    "methods": {},
    "title": "WhitelistedRole",
    "version": 1
  },
  "userdoc": {
    "kind": "user",
    "methods": {},
    "version": 1
  }
}